:020000040800F2
:10000000A8040020450100087D0100087F010008C8
:1000100083010008870100088B0100080000000030
:100020000000000000000000000000008F01000838
:1000300091010008000000009301000895010008EC
:100040005F0100085F0100085F0100085F01000810
:100050005F0100085F0100085F0100085F01000800
:100060005F0100085F0100085F0100085F010008F0
:100070005F0100085F0100085F0100085F010008E0
:100080005F0100085F0100085F0100085F010008D0
:100090005F0100085F0100085F0100085F010008C0
:1000A0005F0100085F0100085F0100085F010008B0
:1000B0005F0100085F0100081B0200085F010008E3
:1000C0005F0100085F0100085F0100085F01000890
:1000D0005F010008970100085F0100085F01000848
:1000E0005F0100085F0100085F0100085F01000870
:1000F0005F0100085F0100085F0100085F01000860
:100100005F0100085F0100085F0100085F0100084F
:100110005F0100085F0100085F0100085F0100083F
:100120005F0100085F0100085F0100085F0100082F
:10013000DFF80CD004F0EEF8004800476901000831
:10014000A80400200648804706480047FEE7FEE76F
:10015000FEE7FEE7FEE7FEE7FEE7FEE7FEE7FEE777
:10016000051E00083101000800F05AFE00F035FAC3
:1001700000F04DFC00F042FF00BFFEE7704700BFFB
:10018000FEE700BFFEE700BFFEE700BFFEE77047E7
:100190007047704770472DE9F04100240026002584
:1001A0000027E84804F0E4F9C4B2E64804F0E0F9B6
:1001B000C6B22146E4A004F0DFF8A6F13000C5B2D3
:1001C000E04804F0D5F9C7B22946E1A004F0D4F81C
:1001D000412C06D0422C08D0432C0AD0442C10D1FC
:1001E0000BE0284601F072FD0BE0284601F079FD96
:1001F00007E0284601F080FD03E0284601F087FD76
:1002000000BF00BFBDE8F08101B502E00098401ECC
:10021000009000980028F9D108BD70B50121CE48A2
:1002200003F0A2FC0221CC4803F0A1FC002860D01E
:100230000221C94803F0ACFCC848007840B901204D
:10024000C6490870C44803F073FCC549088050E0F3
:10025000C248007801284CD100250020BF49087011
:10026000BD4803F065FCBF490880BD480088098887
:10027000884207DABB480088B9490988401ABA4958
:10028000088009E0B64800884FF6FF71081AB549A2
:1002900009880844B4490880B3480088B3490988EC
:1002A00088420EDDB0480088B0490988401A85B2FE
:1002B000AF48008895FBF0F0AE490988084484B245
:1002C0000DE0AA480088A8490988401A85B2A848C4
:1002D000008895FBF0F0A7490988081A84B241F21A
:1002E0008830844202DDA349088001E0A1480480EF
:1002F00000BF0421984803F03AFC002861D0042193
:10030000954803F045FC9C48007840B901209A4983
:100310000870914803F00FFC9849088051E0964816
:10032000007801284DD10024002500209249087052
:10033000894803F000FC92490880904800880988A9
:10034000884207DA8E4800888C490988401A8D490E
:10035000088009E0894800884FF6FF71081A88492B
:100360000988084487490880864800887F490988A9
:1003700088420EDD834800887C490988401A85B28E
:100380007B48008895FBF0F07F490988084484B2D7
:100390000DE0764800887B490988401A85B2744888
:1003A000008895FBF0F078490988081A84B241F278
:1003B0008830844202DD7449088001E0724804807C
:1003C00000BF0821644803F0D2FB002859D008215F
:1003D000614803F0DDFB6D48007840B901206B49AE
:1003E00008705D4803F0AAFB6949088049E0674846
:1003F0000078012845D1002400206449087056483F
:1004000003F09CFB634908806148008809888842A2
:1004100007DA604800885E490988401A5E4908800A
:1004200009E05B4800884FF6FF71081A59490988AE
:10043000084459490880584800884C49098888422E
:100440000FDD5548008849490988401A84B2484858
:10045000008894FBF0F05149098808444F4908800E
:100460000EE0424800884C490988401A84B240484E
:10047000008894FBF0F049490988081A4749088028
:1004800000BF1021344803F072FB002859D010211E
:10049000314803F07DFB4248007840B901204049D3
:1004A00008702D4803F04DFB3E49088049E03C4868
:1004B0000078012845D100240020394908702648D9
:1004C00003F03FFB38490880364800880988884295
:1004D00007DA3548008833490988401A33490880CB
:1004E00009E0304800884FF6FF71081A2E49098844
:1004F00008442E4908802D4800881C4909888842F4
:100500000FDD2A48008819490988401A84B2184822
:10051000008894FBF0F026490988084424490880A3
:100520000EE01248008821490988401A84B2104818
:10053000008894FBF0F01E490988081A1C490880BD
:1005400000BF70BD600000206469723D25630A0031
:1005500064313D25640A00000008004010000020BE
:100560001400002016000020180000202C0000209D
:100570002E00002000000020110000201A000020A2
:100580001C0000201E00002004000020120000209B
:100590002000002022000020240000200200002073
:1005A0001300002026000020280000202A00002040
:1005B0000600002008B54FF4A06001F0A3FC252040
:1005C0008DF8000001208DF801008DF802008DF8F3
:1005D0000300684601F09BFC08BD00B585B0012111
:1005E000042002F063FB0121880302F05FFB4FF45B
:1005F0000070ADF8100018208DF8130003208DF85E
:10060000120004A9534802F09BF84FF48060ADF843
:10061000100004208DF8130004A94E4802F090F851
:100620004FF4E13000900020ADF80400ADF8060072
:10063000ADF80800ADF80C000C20ADF80A006946D2
:10064000454803F0ECFAFFF7B5FF012240F22551CF
:10065000414803F07CFB01213F4803F06CFB05B0EF
:1006600000BD70B504460D462946204603F0D0FB78
:1006700000BF8021204603F039FC0028F9D070BD6E
:100680002DE9F04105460C46260AE7B231462846D8
:1006900003F0BEFB00BF8021284603F027FC0028A2
:1006A000F9D03946284603F0B3FB00BF8021284625
:1006B00003F01CFC0028F9D0BDE8F0812DE9F041E1
:1006C00007460D461646002405E0295D3846FFF72B
:1006D000C8FF601CC4B2B442F7DB00BF40213846FB
:1006E00003F004FC0028F9D0BDE8F08170B506469F
:1006F0000C46002500BF615D3046FFF7B2FF681C65
:10070000C5B2605D0028F6D100BF4021304603F03D
:10071000EDFB0028F9D070BD70B504460D46E1B27E
:100720000D4803F075FB00BF80210B4803F0DEFB92
:100730000028F9D0204670BD10B5044600BF202126
:10074000054803F0D3FB0028F9D0034803F064FB0D
:1007500010BD0000000801400038014008B501212B
:10076000042002F0A3FA4FF47070ADF800000020EE
:100770008DF803006946AC4801F0E2FF08BD08B5FA
:100780000121102002F092FA3F20ADF80000002075
:100790008DF803006946A54801F0D2FF08BD08B5F1
:1007A0000121102002F082FA3020ADF80000002074
:1007B0008DF8030069469E4801F0C2FF08BD00B5F0
:1007C00091B00121022002F064FA0121C80302F075
:1007D0006DFA984801F02CFE9748069097480790CC
:1007E000002008900420099000200A9080200B909F
:1007F00040000C9080000D9020200E9000020F9081
:100800000020109006A98B4801F0B4FE0121894810
:1008100001F0DBFE0020019001208DF808008DF82A
:1008200009004FF4602003900020049004208DF80C
:10083000140001A980484C3801F0F9FB4FF4404006
:1008400002F09BF90523012204217B484C3801F07A
:1008500086FC05230222194677484C3801F07FFCBC
:1008600005230322062174484C3801F078FC052347
:100870000422072170484C3801F071FC01216E48B8
:100880004C3801F00BFC01216B484C3801F0FBFBAC
:1008900069484C3801F019FC00BF67484C3801F03A
:1008A00019FC0028F9D164484C3801F01DFC00BF48
:1008B00061484C3801F01DFC0028F9D101215E4847
:1008C0004C3801F020FC11B000BD00B591B0012101
:1008D000084602F0DEF90121480202F0E7F9584823
:1008E00001F0A6FD57480690574807900020089051
:1008F0000820099000200A9080200B9040000C9066
:1009000080000D9020200E9000020F90002010908B
:1009100006A94B4801F02EFE0121494801F055FE81
:100920000020019001208DF808008DF809004FF497
:10093000602003900020049008208DF8140001A985
:1009400040484C3801F073FB4FF4404002F015F979
:10095000052301220A213B484C3801F000FC052305
:1009600002220B2137484C3801F0F9FB0523032202
:100970000C2134484C3801F0F2FB052304220D21F0
:1009800030484C3801F0EBFB05231A460E212D4868
:100990004C3801F0E4FB052306220F2129484C388E
:1009A00001F0DDFB05230722042126484C3801F025
:1009B000D6FB05230822194622484C3801F0CFFB0C
:1009C000012120484C3801F069FB01211D484C38B9
:1009D00001F059FB1B484C3801F077FB00BF194868
:1009E0004C3801F077FB0028F9D116484C3801F05B
:1009F0007BFB00BF13484C3801F07BFB0028F9D18A
:100A0000012110484C3801F07EFB11B000BD10B53B
:100A1000FFF7A4FEFFF7D3FEFFF7B1FEFFF7BFFE1F
:100A2000FFF753FF10BD0000001C01400010014003
:100A300000080140580402404C3C014030000020B6
:100A4000080002404C2401406800002008B5012144
:100A5000042002F02BF94020ADF8000018208DF89A
:100A6000030003208DF802006946F24801F068FE99
:100A70008020ADF8000018208DF8030003208DF8C9
:100A800002006946EB4801F05BFE0121082002F0FC
:100A90000DF90120ADF8000018208DF803000320A7
:100AA0008DF802006946E44801F04AFE0121082061
:100AB00002F0FCF80220ADF8000018208DF80300C9
:100AC00003208DF802006946DB4801F039FE08BDBD
:100AD00008B50121042002F0E9F80120ADF800007A
:100AE00018208DF8030003208DF802006946D148D4
:100AF00001F026FE0121042002F0D8F80220ADF812
:100B0000000018208DF8030003208DF802006946CC
:100B1000C84801F015FE0121042002F0C7F80420A6
:100B2000ADF8000018208DF8030003208DF80200B6
:100B30006946C04801F004FE0121042002F0B6F825
:100B40000820ADF8000018208DF8030003208DF870
:100B500002006946B74801F0F3FD08BD00B587B053
:100B60000121022002F0AFF842F21070ADF804004B
:100B70000A20ADF800000020ADF80600ADF8020034
:100B80008DF808006946AD4802F0CCF96020ADF858
:100B90000C000120ADF80E000020ADF81400ADF8F7
:100BA000120003A9A54802F0FAF90821A34802F0AF
:100BB00045FE0020ADF8120003A9A04802F031FA6A
:100BC00008219E4802F043FE0020ADF8120003A960
:100BD0009A4802F073FA0821984802F045FE002076
:100BE000ADF8120003A9954802F0B3FA0821934822
:100BF00002F043FE0121914802F0F0FC07B000BD75
:100C000000B587B00121082002F05DF842F21070B3
:100C1000ADF804000A20ADF800000020ADF8060091
:100C2000ADF802008DF808006946854802F07AF9AF
:100C30006020ADF80C000120ADF80E000020ADF8EA
:100C40001400ADF8120003A97D4802F0A8F90821AC
:100C50007B4802F0F3FD0020ADF8120003A97848AC
:100C600002F0DFF90821764802F0F1FD0020ADF82E
:100C7000120003A9724802F021FA0821704802F01C
:100C8000F3FD0020ADF8120003A96D4802F061FAEF
:100C900008216B4802F0F1FD0121694802F09EFC39
:100CA00007B000BD1FB56020ADF800000120ADF811
:100CB00002000020ADF8080062480088ADF8060088
:100CC00069465F4802F06BF908215D4802F0B6FD05
:100CD0001FBD1FB56020ADF800000120ADF8020077
:100CE0000020ADF8080058480088ADF806006946B5
:100CF000534802F096F90821514802F0A8FD1FBDA3
:100D00001FB56020ADF800000120ADF80200002002
:100D1000ADF808004D480088ADF80600694648481F
:100D200002F0CCF90821464802F09EFD1FBD1FB518
:100D30006020ADF800000120ADF802000020ADF801
:100D4000080043480088ADF8060069463C4802F0B8
:100D500000FA08213A4802F090FD1FBD1FB560203F
:100D6000ADF800000120ADF802000020ADF8080049
:100D700034480088ADF806006946304802F00FF9A3
:100D800008212E4802F05AFD1FBD1FB56020ADF8A6
:100D900000000120ADF802000020ADF808002A484C
:100DA0000088ADF806006946244802F03AF90821A7
:100DB000224802F04CFD1FBD1FB56020ADF80000B9
:100DC0000120ADF802000020ADF808001F4800889F
:100DD000ADF806006946194802F070F90821174875
:100DE00002F042FD1FBD1FB56020ADF800000120DC
:100DF000ADF802000020ADF8080015480088ADF8F5
:100E0000060069460D4802F0A4F908210B4802F0DB
:100E100034FD1FBD10B5FFF7A1FEFFF7F1FE10BDB9
:100E200010B5FFF713FEFFF753FEFFF797FEFFF72E
:100E3000E7FE10BD00080140000C01400004004026
:100E4000000C0040000000200400002002000020F0
:100E50000600002008B54FF4A06001F053F81E20F2
:100E60008DF8000000208DF8010001208DF80200AF
:100E70008DF80300684601F04AF808BD08B5012165
:100E8000082001F013FF4020ADF8000004208DF889
:100E9000030069465E4801F053FC0121082001F07F
:100EA00005FF8020ADF8000004208DF8030069469E
:100EB000574801F045FC0121082001F0F7FE4FF4EE
:100EC0008070ADF8000004208DF80300694650489A
:100ED00001F036FC0121082001F0E8FE4FF400701B
:100EE000ADF8000004208DF803006946484801F081
:100EF00027FC08BD00B587B00121042001F0E3FE06
:100F00004FF6FF70ADF814004720ADF81000002038
:100F1000ADF81600ADF812008DF8180004A93D4890
:100F200002F000F80020ADF80400ADF80600012042
:100F3000ADF808000020ADF80A00ADF80C0001A9DA
:100F4000344802F082FA0420ADF804000020ADF825
:100F500006000120ADF808000020ADF80A00ADF849
:100F60000C0001A92B4802F070FA0820ADF804002B
:100F70000020ADF806000120ADF808000020ADF813
:100F80000A00ADF80C0001A9224802F05EFA0C201C
:100F9000ADF804000020ADF806000120ADF808000F
:100FA0000020ADF80A00ADF80C0001A9194802F0C4
:100FB0004CFA1F21174802F0D7FD01221F211548C6
:100FC00002F027FB0121134802F008FB07B000BD27
:100FD0000EB50121102001F076FE4FF4FA50ADF865
:100FE000040041F61F40ADF8000069460A4801F0D0
:100FF00099FF0121084802F0F1FA0EBD10B5FFF784
:10100000E7FFFFF727FFFFF739FFFFF773FF10BD7B
:10101000000C0140000800400010004001B502E053
:101020000098401E009000980028F9D108BD2DE9D5
:10103000F04740F6C410FE490880FE490880FE498A
:101040000880FE490880FFF72DFEFFF742FEFFF7FC
:1010500057FEFFF76CFE0121F94802F0BFFA0121AB
:10106000F84802F081FD0021F64802F04BFD55E101
:10107000F549088803F046F881464FF08B4102F0AD
:101080008FFF044603F043F807464FF06632EF4BFC
:1010900002F0C6FF054603F075F8ED490860EA491D
:1010A000488803F02FF881464FF08B4102F078FF1B
:1010B000044603F02CF807464FF06632E34B02F08B
:1010C000AFFF054603F05EF8E1494860DE498888D5
:1010D00003F018F881464FF08B4102F061FF04469F
:1010E00003F015F807464FF06632D84B02F098FF30
:1010F000054603F047F8D6498860D349C88803F00D
:1011000001F881464FF08B4102F04AFF044602F09D
:10111000FEFF07464FF06632CC4B02F081FF0546DA
:1011200003F030F8CA49C860CA49088802F0EAFFEB
:1011300081464FF08B4102F033FF044602F0E7FF97
:1011400007464FF06632C14B02F06AFF054603F0D6
:1011500019F8C1490860BF49488802F0D3FF8146A9
:101160004FF08B4102F01CFF044602F0D0FF07460F
:101170004FF06632B54B02F053FF054603F002F81C
:10118000B5494860B349888802F0BCFF81464FF0FA
:101190008B4102F005FF044602F0B9FF07464FF00D
:1011A0006632AA4B02F03CFF054602F0EBFFAA496B
:1011B0008860A849C88802F0A5FF81464FF08B419E
:1011C00002F0EEFE044602F0A2FF07464FF0663240
:1011D0009E4B02F025FF054602F0D4FF9E49C860F1
:1011E0009C49088902F08EFF81464FF08B4102F046
:1011F000D7FE044602F08BFF07464FF06632934B52
:1012000002F00EFF054602F0BDFF934908619149C7
:10121000488902F077FF81464FF08B4102F0C0FE13
:10122000044602F074FF07464FF06632874B02F027
:10123000F7FE054602F0A6FF87494861854988897F
:1012400002F060FF81464FF08B4102F0A9FE044698
:1012500002F05DFF07464FF066327C4B02F0E0FE85
:10126000054602F08FFF7C4988617A49C88902F0FF
:1012700049FF81464FF08B4102F092FE044602F096
:1012800046FF07464FF06632704B02F0C9FE054636
:1012900002F078FF7049C861FFF704FDFFF719FD00
:1012A000FFF72EFDFFF743FD6B49C86802F02FFFE3
:1012B00004460022694B02F051FF1FD2664988683C
:1012C00002F025FF04460022644B02F033FF05D2F2
:1012D0004FF47A6056490880564908805E4908698B
:1012E00002F015FF044600225C4B02F023FF05D2FA
:1012F0004FF47A60504908805049088001215148D4
:1013000002F029FC50B15449086802F000FF04467D
:101310000022524B02F00EFF00D200E0A8E600BF10
:101320000021474802F05AF9FFF774FDBDE8F08745
:101330002DE9F04740F6C4103D4908803D4908803A
:101340003D4908803D490880FFF708FDFFF71DFD76
:10135000FFF732FDFFF747FD0121394802F03EF962
:101360000121384802F000FC0021364802F0CAFB97
:101370006EE13549088802F0C5FE81464FF08B4189
:1013800002F00EFE044602F0C2FE07464FF066323F
:101390002E4B02F045FE054602F0F4FE2C49086093
:1013A0002949488802F0AEFE81464FF08B4102F099
:1013B000F7FD044602F0ABFE07464FF06632234BC2
:1013C00002F02EFE054602F0DDFE214948601E496E
:1013D000888802F097FE81464FF08B4102F0E0FDD5
:1013E000044602F094FE07464FF06632174B02F0B7
:1013F00017FE054602F0C6FE154988601249C888E6
:1014000002F080FE81464FF08B4102F0C9FD044698
:1014100002F07DFE07464FF066320C4B02F000FEF4
:10142000054602F0AFFE0A49C8600A49088817E07D
:101430000000002002000020040000200600002020
:1014400000080040001000403000002066660A409E
:101450007800002068000020880000200000F83F8D
:1014600002F050FE81464FF08B4102F099FD044698
:1014700002F04DFE07464FF06632FE4B02F0D0FD03
:10148000054602F07FFEFC490860FC49488802F0EE
:1014900039FE81464FF08B4102F082FD044602F096
:1014A00036FE07464FF06632F24B02F0B9FD0546B4
:1014B00002F068FEF0494860F049888802F022FE98
:1014C00081464FF08B4102F06BFD044602F01FFE97
:1014D00007464FF06632E74B02F0A2FD054602F0E8
:1014E00051FEE5498860E549C88802F00BFE814657
:1014F0004FF08B4102F054FD044602F008FE07460F
:101500004FF06632DB4B02F08BFD054602F03AFEEF
:10151000D949C860D949088902F0F4FD81464FF0E5
:101520008B4102F03DFD044602F0F1FD07464FF00D
:101530006632D04B02F074FD054602F023FECE4920
:101540000861CE49488902F0DDFD81464FF08B41AC
:1015500002F026FD044602F0DAFD07464FF066323F
:10156000C44B02F05DFD054602F00CFEC249486125
:10157000C249888902F0C6FD81464FF08B4102F0D6
:101580000FFD044602F0C3FD07464FF06632B94B2B
:1015900002F046FD054602F0F5FDB7498861B749FE
:1015A000C88902F0AFFD81464FF08B4102F0F8FC94
:1015B000044602F0ACFD07464FF06632AD4B02F038
:1015C0002FFD054602F0DEFDAB49C861FFF7C6FB03
:1015D000FFF7DBFBFFF7F0FBFFF705FCA8494868C6
:1015E00002F095FD04460022A64B02F0B7FD1FD283
:1015F000A349086802F08BFD04460022A14B02F0CB
:1016000099FD05D24FF47A609F4908809F49088070
:101610009B49886802F07BFD04460022994B02F04A
:1016200089FD05D24FF47A6099490880994908806C
:101630000121994802F08FFA50B18F49086802F0F1
:1016400066FD044600228F4B02F074FD00D200E0DC
:101650008FE600BF0021914801F0C0FFFFF7DAFBE1
:10166000BDE8F0872DE9F04740F6C41088490880AE
:10167000884908808449088084490880FFF712FB64
:10168000FFF783FBFFF798FBFFF751FB012183482E
:1016900001F0A4FF0121804802F066FA00217E4893
:1016A00002F030FA6EE17E49088802F02BFD814697
:1016B0004FF08B4102F074FC044602F028FD07460F
:1016C0004FF066326B4B02F0ABFC054602F05AFD60
:1016D0006B4908607249488802F014FD81464FF05A
:1016E0008B4102F05DFC044602F011FD07464FF00D
:1016F0006632604B02F094FC054602F043FD6049FF
:1017000048606749888802F0FDFC81464FF08B41B4
:1017100002F046FC044602F0FAFC07464FF066323F
:10172000544B02F07DFC054602F02CFD54498860C4
:101730005B49C88802F0E6FC81464FF08B4102F01D
:101740002FFC044602F0E3FC07464FF06632494B9B
:1017500002F066FC054602F015FD4949C86047499C
:10176000088802F0CFFC81464FF08B4102F018FC54
:10177000044602F0CCFC07464FF066323D4B02F0C7
:101780004FFC054602F0FEFC3B4908603B49488897
:1017900002F0B8FC81464FF08B4102F001FC044698
:1017A00002F0B5FC07464FF06632324B02F038FCCF
:1017B000054602F0E7FC304948603049888802F06D
:1017C000A1FC81464FF08B4102F0EAFB044602F097
:1017D0009EFC07464FF06632264B02F021FC054680
:1017E00002F0D0FC244988602449C88802F08AFCB1
:1017F00081464FF08B4102F0D3FB044602F087FC98
:1018000007464FF066321B4B02F00AFC054602F019
:10181000B9FC1949C8601949088902F073FC81466E
:101820004FF08B4102F0BCFB044602F070FC07460F
:101830004FF066320F4B02F0F3FB054602F0A2FCBC
:101840000D4908610D49488902F05CFC81464FF062
:101850008B4102F0A5FB044602F059FC07464FF00D
:101860006632044B02F0DCFB054602F08BFC0249B9
:10187000486117E066660A40880000206800002082
:10188000780000200000F83F04000020060000203F
:10189000000000200200002000100040000800406E
:1018A00030000020F849888902F02CFC81464FF076
:1018B0008B4102F075FB044602F029FC07464FF00D
:1018C0006632F24B02F0ACFB054602F05BFCF049DD
:1018D0008861ED49C88902F015FC81464FF08B41C3
:1018E00002F05EFB044602F012FC07464FF066323F
:1018F000E64B02F095FB054602F044FCE449C86162
:10190000FFF7D0F9FFF741FAFFF756FAFFF70FFAA2
:10191000DF49886902F0FBFB04460022DD4B02F040
:101920001DFC1FD2DA49C86902F0F1FB044600220F
:10193000D84B02F0FFFB05D24FF47A60D6490880FD
:10194000D6490880D249486902F0E1FB04460022EA
:10195000D04B02F0EFFB05D24FF47A60D0490880FB
:10196000D04908800121D04802F0F5F850B1CF49A4
:10197000486802F0CCFB04460022C64B02F0DAFBBA
:1019800000D200E08FE600BF0021C94801F026FE2A
:10199000FFF740FABDE8F0872DE9F04740F6C410A4
:1019A000BF490880BC490880BE490880BB490880FF
:1019B000FFF7D4F9FFF78DF9FFF7A2F9FFF713FA54
:1019C0000121BB4801F00AFE0121B74802F0CCF822
:1019D0000021B54802F096F86EE1B649088802F099
:1019E00091FB81464FF08B4102F0DAFA044602F097
:1019F0008EFB07464FF06632A44B02F011FB054602
:101A000002F0C0FBA9490860AA49488802F07AFBA5
:101A100081464FF08B4102F0C3FA044602F077FB97
:101A200007464FF06632994B02F0FAFA054602F08B
:101A3000A9FB9E4948609F49888802F063FB814664
:101A40004FF08B4102F0ACFA044602F060FB07460F
:101A50004FF066328D4B02F0E3FA054602F092FB3E
:101A6000924988609349C88802F04CFB81464FF048
:101A70008B4102F095FA044602F049FB07464FF00D
:101A80006632824B02F0CCFA054602F07BFB8749B6
:101A9000C8607D49088802F035FB81464FF08B41D4
:101AA00002F07EFA044602F032FB07464FF066323F
:101AB000764B02F0B5FA054602F064FB7449086003
:101AC0007149488802F01EFB81464FF08B4102F0BD
:101AD00067FA044602F01BFB07464FF066326B4B79
:101AE00002F09EFA054602F04DFB694948606649DE
:101AF000888802F007FB81464FF08B4102F050FAD4
:101B0000044602F004FB07464FF066325F4B02F0DA
:101B100087FA054602F036FB5D4988605A49C88855
:101B200002F0F0FA81464FF08B4102F039FA044698
:101B300002F0EDFA07464FF06632544B02F070FAAD
:101B4000054602F01FFB5249C8604F49088902F060
:101B5000D9FA81464FF08B4102F022FA044602F096
:101B6000D6FA07464FF06632484B02F059FA05465E
:101B700002F008FB464908614349488902F0C2FA6D
:101B800081464FF08B4102F00BFA044602F0BFFA97
:101B900007464FF066323D4B02F042FA054602F02E
:101BA000F1FA3B4948613849888902F0ABFA81462D
:101BB0004FF08B4102F0F4F9044602F0A8FA074610
:101BC0004FF06632314B02F02BFA054602F0DAFA9A
:101BD0002F4988612C49C88902F094FA81464FF058
:101BE0008B4102F0DDF9044602F091FA07464FF00E
:101BF0006632264B02F014FA054602F0C3FA244975
:101C0000C861FFF7ABF8FFF764F8FFF779F8FFF763
:101C1000EAF81F49086802F07AFA044600221D4BD0
:101C200002F09CFA1FD22149C86802F070FA0446FB
:101C30000022184B02F07EFA05D24FF47A60164962
:101C40000880164908801249486802F060FA044684
:101C50000022104B02F06EFA05D24FF47A60104960
:101C600008801049088001210F4801F074FF50B12D
:101C70000E49486802F04BFA04460022054B02F078
:101C800059FA19D219E017E06800002066660A4088
:101C9000880000200000F83F02000020060000201D
:101CA0000000002004000020001000407800002008
:101CB00000080040300000208FE600BF00211948D6
:101CC00001F08CFCFFF7A6F8BDE8F08770B504467C
:101CD000002503E0FFF72CFB681CC5B2A542F9DB29
:101CE00070BD70B50446002503E0FFF7A0F9681C3D
:101CF000C5B2A542F9DB70BD70B50446002503E00E
:101D0000FFF7B0FC681CC5B2A542F9DB70BD70B529
:101D10000446002503E0FFF73FFE681CC5B2A5425C
:101D2000F9DB70BD000800400CB500200190009068
:101D30006B48006840F480306949086000BF68481B
:101D4000006800F4003000900198401C0190009859
:101D500018B90198B0F5A06FF1D16148006810F48E
:101D6000003F02D00120009001E000200090009888
:101D7000012842D15B48006840F0100059490860D2
:101D80000846006820F0030008600846006840F03C
:101D9000020008605248406851494860084640685F
:101DA00048600846406840F48060486008464068E3
:101DB00020F47C1048600846406840F4E810486011
:101DC0000846006840F08070086000BF4448006822
:101DD00010F0007FFAD04248406820F003004049EC
:101DE00048600846406840F00200486000BF3C4838
:101DF000406800F00C000828F9D10CBD10B5FFF7C1
:101E000093FF10BD10B53648006840F0010034491A
:101E1000086008464068344908403149486008462F
:101E20000068324908402E4908600846006820F4DE
:101E3000802008600846406820F4FE0048604FF4A7
:101E40001F008860FFF7DAFF4FF000602849086044
:101E500010BD10B5002100200022214B5B6803F06B
:101E60000C0121B1042906D0082928D107E0214B13
:101E7000214C236027E01F4B1F4C236023E0184BAD
:101E80005B6803F47010164B5B6803F48032022326
:101E900003EB904022B9194B4343174C23600DE0EC
:101EA0000F4B5B6813F4003F04D0144B4343124CB8
:101EB000236003E00F4B43430F4C236003E00D4BC3
:101EC0000D4C236000BF00BF054B5B68C3F30313D9
:101ED0000B4CE15C084B1B68CB40074C236010BDEA
:101EE00000100240002002400000FFF8FFFFF6FE55
:101EF00008ED00E000127A003800002000093D00E3
:101F00003C00002031490143314A1160704770B5EF
:101F1000002100230F22C4780CB32D4C246804F454
:101F2000E064C4F5E064210AC1F10403CA404478C6
:101F300004FA03F18478144021430901254C067802
:101F4000A155047804F01F050124AC4005786D11FB
:101F50004FF0E02606EB8505C5F8004109E004785E
:101F600004F01F050124AC401B4D0678761145F89E
:101F7000264070BD194A0A400243154B1B1F1A60C8
:101F8000704739B1124A121D12680243104B1B1DD3
:101F90001A6006E00E4A121D126882430C4B1B1D8C
:101FA0001A607047042808D14FF0E021096941F018
:101FB00004014FF0E022116107E04FF0E0210969D0
:101FC00021F004014FF0E022116170470000FA0592
:101FD0000CED00E000E400E080E100E080FFFF1F86
:101FE00010B50446FA48844208D10121401500F09A
:101FF00077FE0021601500F073FE17E0F54884427B
:1020000008D10121001500F06BFE0021201500F021
:1020100067FE0BE0F048844208D10121C80300F0BC
:102020005FFE00214FF4004000F05AFE10BD30B5B5
:102030000246002000235068E84C20400D790C68CF
:1020400044EA0524204350609068E54C2040D1E9E3
:1020500002542C434D7944EA450420439060D06AF1
:1020600020F470000C7C641EE4B2234340EA035069
:10207000D06230BD00210160017141718160C16099
:1020800001210174704721B1826842F0010282602F
:1020900003E0826822F001028260704721B1826809
:1020A00042F48072826003E0826822F4807282606F
:1020B000704710B50023CBB21AB144681C4344608A
:1020C00002E044689C43446010BD816841F008010F
:1020D00081607047014600208A6812F0080F01D025
:1020E000012000E000207047816841F00401816018
:1020F0007047014600208A6812F0040F01D00120C9
:1021000000E00020704721B1826842F4A0028260A2
:1021100003E0826822F4A00282607047014600203A
:102120008A6812F4800F01D0012000E0002070477F
:1021300010B50A4600210023416821F46041531E76
:1021400041EA4331416010BD21B1426842F400626E
:10215000426003E0426822F4006242607047F0B5DA
:1021600004460D4600200021092D11DDE068A5F18F
:102170000A0606EB4607072606FA07F18843A5F18B
:102180000A0606EB460603FA06F10843E0600CE097
:10219000206905EB4507072606FA07F1884305EB9A
:1021A000450603FA06F108432061072A0FDA606B3F
:1021B000561E06EB86071F2606FA07F18843561EB1
:1021C00006EB860605FA06F10843606322E00D2A55
:1021D0000FDA206BD61F06EB86071F2606FA07F1DB
:1021E0008843D61F06EB860605FA06F108432063EE
:1021F00010E0E06AA2F10D0606EB86071F2606FA3C
:1022000007F18843A2F10D0606EB860605FA06F1F2
:102210000843E062F0BD21B1826842F4801282601E
:1022200003E0826822F48012826070470146C86C25
:1022300080B2704766484C300068704721B14268F0
:1022400042F48062426003E0426822F480624260AD
:10225000704721B1426842F48052426003E0426814
:1022600022F48052426070470A460021816821F4BE
:10227000E04111438160704721B1826842F400421D
:10228000826003E0826822F400428260704721B1DC
:10229000826842F40212826003E0826822F4021231
:1022A00082607047014600208A6812F4001F01D046
:1022B000012000E000207047F0B5044615460020DC
:1022C00000220026092911DDE068A1F10A0707EBC9
:1022D000470C072707FA0CF29043A1F10A0707EB16
:1022E000470703FA07F21043E0600CE0206901EBB6
:1022F000410C072707FA0CF2904301EB410703FA60
:1023000007F210432061A06BC0F30156EF1C06F1E9
:10231000010CA7EB0C0707EB870C1F2707FA0CF241
:102320009043EF1C06F1010CA7EB0C0707EB8707A6
:1023300001FA07F21043A063F0BD10B50A46002170
:102340000023816B21F44011531E41EA0351816344
:1023500010BD08B5002300930090009B0B44009330
:10236000009B1A6008BD08B502460020009000924C
:1023700001F12800009B184400900098006880B28A
:1023800008BD0A4600214168164B194011434160BF
:1023900070474162826270470A460021416821F01D
:1023A0001F0111434160704740B109490831096874
:1023B00041F40001064A0832116007E0044908317F
:1023C000096821F40001024A0832116070470000D8
:1023D0000024014000280140003C0140FFFEF0FFC6
:1023E000FDF7F1FFFFFD3FFF0246002013680B429F
:1023F00001D0012000E000207047CA43026070470E
:1024000070B502460020002300240B125568CEB29E
:1024100005EA060415681D4202D00CB1012000E057
:10242000002070BD00220A12D343036070470000F1
:1024300001684FF6FE7211400160002101604160A9
:102440008160C1608C49884208D18B49083949684C
:1024500041F00F01884A083A51608AE086491431F8
:10246000884208D184490839496841F0F001824A1C
:10247000083A51607DE080492831884208D17E4980
:102480000839496841F470617B4A083A516070E04C
:1024900079493C31884208D177490839496841F483
:1024A0007041754A083A516063E07349503188427F
:1024B00008D171490839496841F470216E4A083AD7
:1024C000516056E06C496431884208D16A49083944
:1024D000496841F47001684A083A516049E0664928
:1024E0007831884208D164490839496841F07061FF
:1024F000614A083A51603CE06049884206D1011FB8
:10250000096841F00F01021F116032E05B4914318C
:10251000884208D15949091F096841F0F001574A1A
:10252000121F116025E055492831884208D15349CE
:10253000091F096841F47061504A121F116018E0C8
:102540004E493C31884208D14C49091F096841F481
:1025500070414A4A121F11600BE0484950318842CD
:1025600007D14649091F096841F47021434A121FE7
:102570001160704710B50022026847F6F0739A4365
:102580000C6A8B6823430C6923434C6923438C6991
:102590002343CC6923434C6A23438C6A23431A4365
:1025A0000260CB6843600B6883604B68C36010BDFA
:1025B0000021016041608160C16001614161816110
:1025C000C161016241628162704721B1026842F0DB
:1025D0000102026004E002684FF6FE731A400260D6
:1025E00070471AB103680B43036002E003688B4332
:1025F00003607047416070470146486880B2704789
:1026000001460020002211F0805F03D01B4B083BE5
:102610001A6802E0184B083B1A680A4201D00120F0
:1026200000E00020704710F0805F03D01349091FBD
:10263000086002E0104908394860704701460020F0
:10264000002211F0805F03D00C4B083B1A6802E0B7
:10265000094B083B1A680A4201D0012000E0002023
:10266000704710F0805F03D00449091F086002E042
:1026700001490839486070470800024008040240D8
:1026800010B50446CA48844208D10121042000F054
:1026900027FB0021042000F023FB46E0C5488442CC
:1026A00008D10121082000F01BFB0021082000F0C8
:1026B00017FB3AE0C048844208D10121102000F005
:1026C0000FFB0021102000F00BFB2EE0BB488442E2
:1026D00008D10121202000F003FB0021202000F080
:1026E000FFFA22E0B648844208D10121402000F0E0
:1026F000F7FA0021402000F0F3FA16E0B1488442D6
:1027000008D10121802000F0EBFA0021802000F0A8
:10271000E7FA0AE0AC48844207D10121801500F0B5
:10272000DFFA0021A01500F0DBFA10BD10B5012181
:10273000084600F0D5FA0021012000F0D1FA10BDC2
:102740002DE9F04102460025002600200023002448
:10275000002791F803C00CF00F0591F803C01CF09E
:10276000100F03D091F802C04CEA050591F800C0A3
:10277000BCF1000F31D0146800202BE04FF0010CA9
:102780000CFA00F3B1F800C00CEA03069E4220D117
:1027900083004FF00F0C0CFA03F7BC4305FA03FC5F
:1027A0004CEA040491F803C0BCF1280F06D14FF0A5
:1027B000010C0CFA00FCC2F814C00AE091F803C046
:1027C000BCF1480F05D14FF0010C0CFA00FCC2F827
:1027D00010C0401C0828D1D31460B1F800C0BCF16F
:1027E000FF0F34DD546800202EE000F1080C4FF09C
:1027F000010808FA0CF3B1F800C00CEA03069E4287
:1028000021D183004FF00F0C0CFA03F7BC4305FAFB
:1028100003FC4CEA040491F803C0BCF1280F05D175
:1028200000F1080C08FA0CF8C2F8148091F803C003
:10283000BCF1480F07D100F1080C4FF0010808FA6D
:102840000CF8C2F81080401C0828CED35460BDE8B4
:10285000F0814FF6FF710180022181700421C17067
:1028600070470246002093680B4201D0012000E02F
:10287000002070470146886880B2704702460020F9
:10288000D3680B4201D0012000E0002070470146D0
:10289000C86880B2704701617047416170470AB1F2
:1028A000016100E041617047C16070474FF48032C0
:1028B0000A4382618161826182698269704702464E
:1028C0000020424B18684FF68073184040EA02100F
:1028D00008433E4B186070473D49C8617047F0B5EA
:1028E0000A46002300240021002500F00046B6F12E
:1028F000004F02D1354EF16901E0344E7168C0F3EA
:10290000034583B200F44016B6F5401F08D121F00C
:1029100070612E4E766826F070662C4F7E6012E055
:1029200000F48016B6F5801F06D1032606FA05F4DA
:10293000A14341F0706106E0460D360103FA06F648
:10294000B14341F0706122B1460D360103FA06F63B
:10295000314300F00046B6F1004F02D11B4EF16149
:1029600001E01A4E7160F0BD30B500228B071C0FDC
:102970000F2303FA04F2154B08338C1053F824305C
:102980009343124C08348D1044F8253023468C10A4
:1029900053F824308C07240F00FA04F423430B4C23
:1029A00008348D1044F8253030BD0A49086070475E
:1029B00000080140000C01400010014000140140DB
:1029C00000180140001C01400020014000000140AF
:1029D00000002042DC002042DD48006840F0010099
:1029E000DB49086008464068DA490840D849486031
:1029F00008460068D8490840D5490860084600687C
:102A000020F4802008600846406820F4FE004860FA
:102A10004FF41F0088607047CD49096821F4803168
:102A2000CB4A11601146096821F480211160B0F58C
:102A3000803F03D0B0F5802F0ED106E0C44909686D
:102A400041F48031C24A116007E0C149096841F48C
:102A5000A021BF4A116000E000BF00BF704710B561
:102A600001460022002300204A11012A02D1B84C5D
:102A7000236806E0022A02D1B54C236A01E0B44C77
:102A8000636A01F01F02012494401C4201D001201E
:102A900000E0002010BD38B5002000900024002583
:102AA00000BF3120FFF7DBFF05460098401C009077
:102AB0000098B0F5A06F01D0002DF2D03120FFF7C3
:102AC000CEFF08B1012400E00024204638BD0146B5
:102AD00000209F4A106820F0F80040EAC100106012
:102AE00070479E490860704702460020984B58681E
:102AF00020F47C1042EA01031843954B586070475C
:102B000096490866704701460020914A506820F0B7
:102B100003000843506070478D48406800F00C0087
:102B20007047014600208A4A506820F0F0000843B0
:102B30005060704701460020854A506820F4E060EC
:102B400008435060704701460020814A506820F4D5
:102B5000605040EAC1005060704729B17C4A527A07
:102B600002437B4B5A7204E0794A527A8243784B93
:102B70005A7270477A490860704701460020744ACB
:102B8000506820F440400843506070470021754A67
:102B900011706F4A82F82010012802D0042808D151
:102BA00003E001216F4A117004E005216D4A1170A4
:102BB00000E000BF00BF70476B4908607047644980
:102BC000096A0143624A11627047674944390860E3
:102BD000704730B500210022002400235C4D6D6851
:102BE00005F00C0121B1042905D0082923D105E005
:102BF0005E4D056022E05D4D05601FE0544D6D683F
:102C000005F47012524D6D6805F48034022505EB11
:102C100092421CB9564D554305600BE04C4D6D6812
:102C200015F4003F03D0524D5543056002E04F4D6F
:102C30005543056002E04D4D056000BF00BF444DA7
:102C40006D6805F0F00109094A4D6B5C0568DD40CF
:102C500045603F4D6D6805F4E061090A454D6B5CC8
:102C60004568DD4085603A4D6D6805F46051C90ADC
:102C7000404D6B5C4568DD40C560354D6D6805F4C1
:102C80004041890B3C4D6B5CC568B5FBF3F50561B4
:102C900030BD29B12E4A526902432D4B5A6104E0DE
:102CA0002B4A526982432A4B5A61704729B1284AFC
:102CB00092690243264B9A6104E0254A9269824355
:102CC000234B9A61704729B1214AD2690243204BB4
:102CD000DA6104E01E4AD26982431D4BDA61704713
:102CE00029B11B4AD2680243194BDA6004E0184A42
:102CF000D2688243164BDA60704729B1144A1269D0
:102D00000243134B1A6104E0114A12698243104BCB
:102D10001A61704714494039086070470F49C86408
:102D200070470B49C87170470948406A40F080708D
:102D300007494862704701460020054A92680A42E6
:102D400001D0012000E000207047014988727047DF
:102D5000001002400000FFF8FFFFF6FE00004242B4
:102D6000D8004242201002408004424200127A0001
:102D700000093D004C0000205C00002010B5044616
:102D8000FE48844208D10121C014FFF7A9FF0021A9
:102D9000E014FFF7A5FFC4E0B4F1804F08D1012192
:102DA0000846FFF7AAFF00210120FFF7A6FFB8E0C1
:102DB000F348844208D101210220FFF79EFF002141
:102DC0000220FFF79AFFACE0EE48844208D10121CF
:102DD0000420FFF792FF00210420FFF78EFFA0E000
:102DE000E948844208D101210820FFF786FF00212D
:102DF0000820FFF782FF94E0E448844208D10121D3
:102E00001020FFF77AFF00211020FFF776FF88E0FF
:102E1000DF48844208D101212020FFF76EFF002106
:102E20002020FFF76AFF7CE0DA48844208D10121C4
:102E30004014FFF755FF00216014FFF751FF70E0C9
:102E4000D548844209D10121C804FFF749FF002178
:102E50004FF40020FFF744FF63E0D048844209D1DB
:102E600001210805FFF73CFF00214FF48010FFF718
:102E700037FF56E0CA48844209D101214805FFF7CF
:102E80002FFF00214FF40010FFF72AFF49E0C5484B
:102E9000844208D101214020FFF72FFF002140206C
:102EA000FFF72BFF3DE0C048844208D1012180207C
:102EB000FFF723FF00218020FFF71FFF31E0BB4811
:102EC000844208D101218015FFF717FF0021A015CA
:102ED000FFF713FF25E0B648844209D10121080419
:102EE000FFF7FEFE00214FF48030FFF7F9FE18E0F7
:102EF000B048844209D101214804FFF7F1FE0021C6
:102F00004FF40030FFF7ECFE0BE0AB48844208D1F1
:102F100001218804FFF7E4FE00214FF48020FFF731
:102F2000DFFE10BD00220288944B98420ED0994BD0
:102F300098420BD0B0F1804F08D0914B984205D009
:102F4000904B984202D0904B984204D14FF68F7329
:102F50001A404B881A438D4B984207D08C4B9842AD
:102F600004D04FF6FF431A40CB881A4302808B8867
:102F700083850B880385814B98420BD0854B984203
:102F800008D08B4B984205D08A4B984202D08A4B8E
:102F9000984201D10B7A038601238382704770B572
:102FA000002400220023058C4FF6FE763540058470
:102FB000028C8388048B4FF68F752C40B51E2C40F5
:102FC0000D882C43751E2A400D892A434D882A43BB
:102FD0006A4DA8420BD06F4DA84208D0744DA8424C
:102FE00005D0744DA84202D0734DA84213D14FF6BC
:102FF000F7752A404D892A434FF6FB752A408D8884
:103000002A434FF6FF652B404FF6FF552B408D8925
:103010002B43CD892B4383800483CD88858602840E
:1030200070BD70B5002400220023058C4FF6EF76AA
:1030300035400584028C8388048B48F6FF752C404C
:103040004FF6FF452C400D884FF6FF7606EA052522
:103050002C434FF6DF752A400D8906EA05152A43F1
:103060004D8806EA05152A43444DA84202D0494D31
:10307000A8421DD14FF67F752A404D894FF6FF7645
:1030800006EA05152A434FF6BF752A408D8806EAE1
:1030900005152A434FF6FF352B404FF2FF752B40A5
:1030A0008D8906EA85052B43CD8906EA85052B43E4
:1030B00083800483CD880587028470BD70B50024A9
:1030C00000220023058C4FF6FF6635400584028CF4
:1030D0008388848B4FF68F752C404FF6FC752C40FF
:1030E0000D882C434FF6FF552A400D894FF6FF7689
:1030F00006EA05252A434D8806EA05252A431F4D81
:10310000A84202D0234DA8421DD14FF2FF752A409C
:103110004D894FF6FF7606EA05252A434FF6FF351F
:103120002A408D8806EA05252A434EF6FF752B4076
:103130004DF6FF752B408D8906EA05152B43CD8989
:1031400006EA05152B4383808483CD888587028416
:1031500070BD70B5002200230024058C4EF6FF766A
:1031600035400584038C8488828B48F6FF752A409D
:103170004FF6FF452A400D8820E00000002C01405A
:103180000004004000080040000C00400010004017
:103190000014004000340140004C01400050014048
:1031A0000054014000180040001C00400020004076
:1031B0000040014000440140004801404FF6FF76C6
:1031C00006EA05252A434DF6FF752B400D8906EAD0
:1031D00005352B434D8806EA05352B43FA4DA842A9
:1031E00002D0FA4DA84208D14BF6FF752C408D89CC
:1031F0004FF6FF7606EA85152C4384808283CD88BE
:10320000A0F84050038470BD828B4FF2FF331A4008
:103210008283828B4FF6FF7303EA01231A43828372
:103220007047F0B50C461546002200210026078C99
:103230004EF6FF7C07EA0C070784828B018C4FF661
:10324000FF7707EA043640F6FF473A404FF6FF772C
:1032500007EA05273A434FF6FF7707EA03373A4371
:10326000D94FB8420ED0D94FB8420BD0B0F1804FF1
:1032700008D0D74FB84205D0D64FB84202D0D64F6B
:10328000B84206D14DF6FF77394046F480573943AE
:1032900005E047F6FF57394044F4805739438283AD
:1032A0000184F0BD828B4FF6F3731A408283828BC8
:1032B0000A4382837047F0B50C4615460022002170
:1032C0000026078C4FF6FF6C07EA0C070784828BF9
:1032D000018C4FF6FF7707EA04264FF60C773A4049
:1032E0004FF6FF7707EA03172F433A43B64FB8422A
:1032F0000ED0B64FB8420BD0B0F1804F08D0B44FCB
:10330000B84205D0B34FB84202D0B34FB84206D14D
:103310004FF6FF57394046F48077394305E04FF2C6
:10332000FF57394044F48077394382830184F0BDEC
:10333000028B4FF2FF331A400283028B4FF6FF736A
:1033400003EA01231A4302837047F0B50C46154681
:10335000002200210026078C4FF6EF7C07EA0C07BD
:103360000784028B018C4FF6FF7707EA041640F6BC
:10337000FF473A404FF6FF7707EA03373A434FF6E5
:10338000FF7707EA05273A438F4FB8420ED08F4F99
:10339000B8420BD0B0F1804F08D08D4FB84205D065
:1033A0008C4FB84202D08C4FB84206D14FF6DF772F
:1033B000394046F01007394305E04FF65F77394052
:1033C00044F01007394302830184F0BD028B4FF6AD
:1033D000F3731A400283028B0A4302837047F0B5ED
:1033E0000C46154600220021068C4FF6FE773E4023
:1033F0000684028B018C4FF60C7632407E1C06EA66
:1034000003162E433243704EB0420ED06F4EB04280
:103410000BD0B0F1804F08D06D4EB04205D06D4E4C
:10342000B04202D06C4EB04206D14FF6FD7631402C
:1034300044F00106314305E04FF6F576314044F0A3
:103440000106314302830184F0BD70B505460C4688
:103450005D4885420ED05D4885420BD0B5F1804F66
:1034600008D05B48854205D05A48854202D05A4868
:10347000854200D100E000BF208850B92389A2888E
:1034800061882846FFF7ABFFE1882846FFF79EFFDB
:1034900025E0208804280AD12389A288618828464B
:1034A000FFF753FFE1882846FFF742FF17E0208827
:1034B00008280AD12389A28861882846FFF7FBFEE5
:1034C000E1882846FFF7EEFE09E02389A28861889B
:1034D0002846FFF7A6FEE1882846FFF795FE70BD57
:1034E0002DE9F04105460C4600260127608808B901
:1034F000022600E00026A088012801D1022700E072
:1035000001272088A0B92389A28861882846FFF76F
:1035100066FFE1882846FFF759FF23893A4631467E
:103520002846FFF712FFE1882846FFF701FF13E066
:103530002389A28861882846FFF707FFE18828468B
:10354000FFF7F6FE23893A4631462846FFF747FF44
:10355000E1882846FFF73AFFBDE8F0810A884B88EA
:103560001A438B881A43CB881A430B891A434B8919
:103570001A438B891A43A0F8442070474FF6FF7115
:10358000818000210180C18041800172704700214B
:10359000018041808180C180018141818181C1811F
:1035A0007047002101804180012181800021C1807C
:1035B000018170470021018041808180C1800181AB
:1035C0004181818170470000002C0140003401409E
:1035D0000004004000080040000C004021B10288B7
:1035E00042F00102028004E002884FF6FE731A40A6
:1035F0000280704731B1B0F8442042F40042A0F894
:10360000442005E0B0F84420C2F30E02A0F84420A4
:1036100070471AB183890B43838102E083898B430E
:10362000838170478182704741EA0203A0F84830E5
:1036300070471AB183890B43838102E083898B43EE
:103640008381704701894FF6F872114001817047FC
:103650000A46002101894FF68F73194011430181F9
:10366000704730B504460D4629462046FFF7F0FF67
:10367000208940F00700208130BD2DE9F04104464B
:103680000D4616461F46602D06D13B4601223146A7
:103690002046FFF75AFE05E03B4601223146204610
:1036A000FFF79DFE29462046FFF7D2FF208940F014
:1036B00007002081BDE8F08130B50C46002101896A
:1036C000C9B24FF6FF7505EA032515432543294383
:1036D000018130BD2DE9F04105460E46174698465A
:1036E000002443463A4631462846FFF7E5FF2C8939
:1036F0004FF6F870044044F007044FF68F70044012
:1037000044F070042C81BDE8F081F0B504460D460C
:1037100016461F463B46324629462046FFF7CCFF59
:10372000208940F480402081F0BD0185828270476D
:103730000A46002101884FF68F731940114301801A
:103740007047F0B50C4615461E46002100220023A6
:103750000189028B038C4FF6F877394021434FF6ED
:10376000FC473A4040F201173A434FF6DD773B40C1
:103770004FF6FF7707EA06172F433B430181028389
:103780000384F0BD0A460021018B4FF68F73194068
:103790001143018370470A460021018B48F6FF73ED
:1037A00019404FF6FF7303EA022319430183704760
:1037B0000A460021818B4FF68F7319401143818394
:1037C00070470A460021818B48F6FF7319404FF677
:1037D000FF7303EA022319438183704721B10288F2
:1037E00042F08002028004E002884FF67F731A40A4
:1037F0000280704721B1828842F00402828004E096
:1038000082884FF6FB731A408280704721B182880C
:1038100042F00802828004E082884FF6F7731A4073
:103820008280704721B1828842F00102828004E0E8
:1038300082884FF6FE731A40828070470A46002144
:10384000018B4FF6F77319401143018370470A4605
:103850000021018B4FF2FF7319404FF6FF7303EA0B
:1038600002231943018370470A460021818B4FF6DA
:10387000F77319401143818370470A460021818BF9
:103880004FF2FF7319404FF6FF7303EA0223194307
:10389000818370470A460021018B4FF6FB73194064
:1038A0001143018370470A460021018B4FF6FF3315
:1038B00019404FF6FF7303EA02231943018370474F
:1038C0000A460021818B4FF6FB7319401143818317
:1038D00070470A460021818B4FF6FF3319404FF69F
:1038E000FF7303EA02231943818370470A460021CC
:1038F000018B4FF67F7319401143018370470A46CD
:103900000021018BC1F30E014FF6FF7303EA02237E
:103910001943018370470A460021818B4FF67F735C
:1039200019401143818370470A460021818BC1F3FE
:103930000E014FF6FF7303EA022319438183704798
:103940000A460021018C4FF6FD7319401143018492
:1039500070470A460021018C4FF6F7731940114356
:10396000018470470A460021018C4FF6DF7319402D
:103970004FF6FF7303EA02131943018470470A46A6
:103980000021018C4FF67F7319404FF6FF7303EA55
:1039900002131943018470470A460021018C4FF637
:1039A000FF5319404FF6FF7303EA022319430184C2
:1039B00070470A460021018C4FF2FF7319404FF601
:1039C000FF7303EA02231943018470470A4600216A
:1039D000018C4DF6FF7319404FF6FF7303EA023373
:1039E00019430184704730B5002301248C40A3B2F1
:1039F000048C9C430484048C02FA01F5ADB22C4380
:103A0000048430BD30B5002304248C40A3B2048C60
:103A10009C430484048C02FA01F5ADB22C43048467
:103A200030BD70B50346002000241846183001252B
:103A30008D40ACB21D8CA5431D8409B1082909D164
:103A400000EB6100056825F0700505600568154309
:103A500005600EE00D1FC5F34E052844056825F4EA
:103A6000E045056005684FF6FF7606EA0226354315
:103A7000056070BD21B1028842F00202028004E0BC
:103A800002884FF6FD731A400280704721B1028808
:103A900042F00402028004E002884FF6FB731A40F1
:103AA0000280704721B1828842F08002828004E067
:103AB00082884FF67F731A408280704702884FF6E3
:103AC000F7731A40028002880A4302807047828896
:103AD0004FF68F731A40828082880A438280704733
:103AE00002894FF6F8731A40028102890A43028163
:103AF000704702894FF67F731A40028102890A4398
:103B00000281704781847047818570478186704744
:103B10000187704781877047A0F84010704702887E
:103B20004FF6FF431A40028002880A430280704722
:103B30000146888E70470146088F70470146888F7E
:103B400070470146B1F8400070470146888C7047C5
:103B50000146088D704702460020138A0B4201D0AF
:103B6000012000E000207047CA430282704730B550
:103B70000246002000230024158A05EA01039589E6
:103B800005EA010413B10CB1012000E0002030BDB2
:103B9000CA4302827047000010B50446FB488442C5
:103BA00009D101218803FFF79BF800214FF48040E1
:103BB000FFF796F832E0F648844209D10121480423
:103BC000FFF79BF800214FF40030FFF796F825E04F
:103BD000F048844209D101218804FFF78EF80021C2
:103BE0004FF48020FFF789F818E0EB48844209D1B0
:103BF0000121C804FFF781F800214FF40020FFF7EE
:103C00007CF80BE0E548844208D101210805FFF764
:103C100074F800214FF48010FFF76FF810BD2DE904
:103C2000F04786B005460E460024A24600BFA146D6
:103C30000027B08900B100BF2F462C8A4CF6FF70D8
:103C40000440F08804432C82AC894EF6F310044003
:103C5000B08831890843718908430443AC81AC8A38
:103C60004FF6FF400440B0890443AC8201A8FEF740
:103C7000B0FFC648874202D1DDF810A001E0DDF8B0
:103C80000CA0A88910F4004F08D00AEBCA0000EB82
:103C90000A1031684900B0FBF1F807E00AEBCA00EE
:103CA00000EB0A1031688900B0FBF1F86420B8FB22
:103CB000F0F004012009642101FB1089A88910F4A7
:103CC000004F08D0322000EBC900B0FBF1F000F04B
:103CD0000700044308E0322000EB09106421B0FB28
:103CE000F1F000F00F0004432C8106B0BDE8F0872E
:103CF0004FF41651016000218180C18001810C21A7
:103D0000418100218181704710B502460020108A50
:103D10004FF2FF0318400B884C8823438C882343C1
:103D2000CC8823431843108210BD002101804180BC
:103D30008180C180704721B1828942F40052828122
:103D400004E082894DF6FF731A4082817047F0B516
:103D500003460024002600250020A1F510676A3FD5
:103D600000D100BF1846C1F3421401F01F0601271D
:103D700007FA06F5012C01D10C3004E0022C01D128
:103D8000103000E014301AB107682F43076002E0DA
:103D90000768AF430760F0BD1AB1838A0B43838283
:103DA00002E0838A8B4383827047028A4FF6F07366
:103DB0001A400282028A0A430282704782894FF2C5
:103DC000FF731A40828182890A438281704721B140
:103DD000828942F00202828104E082894FF6FD73FB
:103DE0001A4082817047028A4FF6DF731A400282BE
:103DF000028A0A430282704721B1028A42F4804259
:103E0000028204E0028A4BF6FF731A400282704776
:103E1000C1F308028280704701468888C0F3080019
:103E20007047818941F0010181817047028BD2B2D4
:103E30000283028B42EA012202837047028B02F462
:103E40007F420283028B0A430283704721B1828A38
:103E500042F02002828204E0828A4FF6DF731A4029
:103E60008282704721B1828A42F01002828204E08D
:103E7000828A4FF6EF731A408282704721B1828A9C
:103E800042F00802828204E0828A4FF6F7731A40F9
:103E90008282704721B1828942F40042828103E02C
:103EA0008289C2F30E028281704721B1828A42F474
:103EB0000062828204E0828A4FF2FF731A4082829B
:103EC0007047828A4FF6FB731A408282828A0A43C5
:103ED0008282704721B1828A42F00202828204E02B
:103EE000828A4FF6FD731A40828270470246002094
:103EF000B1F5007F00D100BF13880B4201D0012033
:103F000000E00020704701F40072B2F5007F00D19C
:103F100000BFCA430280704770B5024600240023E8
:103F200000250020A1F510666A3E00D100BFC1F354
:103F3000421501F01F03012606FA03F3012D02D1F9
:103F40009689334006E0022D02D1168A334001E003
:103F5000968A33400C12012606FA04F4168834407F
:103F600013B10CB1012000E0002070BD10B500229B
:103F70000023A1F510646A3C00D100BF0A1201249D
:103F80009440A3B2DC43048010BD0000003801401F
:103F90000044004000480040004C004000500040F9
:103FA00030B480EA010202F0004530F0004221F016
:103FB000004015D0A0B1C0F3C753C2F3C754C2F339
:103FC0001601C0F31600E41A41F4000140F40002A7
:103FD0007D34914201D3641C00E04900002C02DAD8
:103FE00030BC002070474FF400000023914201D301
:103FF000891A034340084FEA4101F7D151B1914278
:1040000002D14FF0004105E002D24FF0010101E082
:104010006FF0010103EBC450284430BC00F0E4B859
:104020002DE9FE4F81EA030404F0004421F0004131
:1040300000944FF0000B23F0004350EA010402D03B
:1040400052EA030404D10020014603B0BDE8F08F1A
:10405000C3F30A54C1F30A552C44A4F2F334019477
:10406000A0FB0254C1F3130141F48011C3F3130305
:1040700043F4801301FB024400FB034E840A970AB9
:1040800044EA815447EA8357A4FB076802958D0AE6
:1040900005FB07854FEA932C04FB0C542705029D72
:1040A0004FEA065847EA1637B5EB08056EEB070CE2
:1040B000870E920E47EA811742EA8312A7FB02019C
:1040C000B6EB0B0164EB00042B0D43EA0C335E18D6
:1040D00044EB1C50DA465146E7FB0201C5F31304DA
:1040E0004FEA0B3343EA14534FEA0432019C43EA8C
:1040F0000603A4F10C040294009CCDE900B400F086
:10410000B6F8A2E796230022114600F076B800F038
:10411000004230F000400AD0C10D01F56071C0F3DB
:10412000160042EA0151C2084007114370470020BF
:104130000146704730B5002904DB4FF0004440428F
:1041400064EB0101002B04DB4FF00044524264EBAE
:1041500003038B4208BF824230BD000030B5002906
:1041600004DB4FF00044404264EB0101002B04DB10
:104170004FF00044524264EB0303994208BF90425F
:1041800030BD000001F0004330B421F0004150EA9E
:10419000010206D00A0DA2F56072C1F31301002AD4
:1041A00002DC30BC00207047440F44EAC104C10067
:1041B000E01830BC00EBC25000F016B830B50B462A
:1041C000014600202022012409E021FA02F59D4247
:1041D00005D303FA02F5491B04FA02F52844151E1B
:1041E000A2F10102F1DC30BD0029A8BF7047401CDC
:1041F000490008BF20F00100704710B4B0FA80FCFD
:1042000000FA0CF050EA010404BF10BC704749B139
:10421000CCF1200421FA04F411FA0CF118BF0121A9
:1042200021430843A3EB0C01CB1D0106000A002B20
:10423000BEBF002010BC704700EBC35010440029E3
:10424000A4BF10BC7047401C490008BF20F001000B
:1042500010BC704710B5002B08DA401C41F100017A
:1042600092185B411A4301D120F0010010BD2DE9E5
:10427000F04D92469B4611B1B1FA81F202E0B0FADC
:1042800080F22032904600F057F804460F4640EA8C
:104290000A0041EA0B0153465A46084303D120461F
:1042A0003946BDE8F08D114653EA010015D0C8F13A
:1042B0004002504600F04FF805460E46504659461B
:1042C000424600F039F8084301D0012000E0002008
:1042D000054346EAE0762C4337430A984FEA4453B5
:1042E000A0EB08004FEAD4240A304FF0000244EA61
:1042F00047544FEAD72502D500200146D1E70105F2
:1043000010196941DDE9084500196941BDE8F04D22
:10431000A0E70000064C074D06E0E06840F001030E
:1043200094E8070098471034AC42F6D3FBF704FF3B
:104330007445000894450008202A04DB203A00FA5E
:1043400002F1002070479140C2F1200320FA03F3EC
:10435000194390407047202A04DB203A21FA02F0EA
:104360000021704721FA02F3D040C2F120029140AF
:1043700008431946704700000FB4054B10B503A958
:10438000044A029800F018F810BC5DF814FB000015
:10439000190700086400002002E008C8121F08C1C5
:1043A000002AFAD170477047002001E001C1121FB6
:1043B000002AFBD1704700002DE9FF4F8BB09A46D1
:1043C0000F4605460026C9E0252837D100246D1C7C
:1043D0006649A04601222B78203B02FA03F00842EE
:1043E00002D004436D1CF6E728782E2817D115F863
:1043F000010F44F004042A280ED06FF02F02287811
:10440000A0F1300109290AD808EB880102EB41012B
:1044100000EB01086D1CF2E757F8048B6D1C28783F
:1044200069283FD006DC002871D063280CD06428AE
:1044300004D137E0732811D075284ED052460D991B
:10444000904706F1010688E017F8040B8DF800008C
:1044500000208DF80100E946012003E057F8049B95
:104460004FF0FF3061074FF0000401D40AE0641CF4
:1044700044450DDA8442FADB19F804100029F6D11C
:1044800006E0641C8442FCDB19F804100029F8D112
:10449000264404E019F8010B52460D999047641E1A
:1044A000F8D25AE001CF4FF00A0B002804DAC0F12D
:1044B00000004FF02D0102E0210504D52B218DF8DD
:1044C0002410012103E0E10705D02021F7E70DF1D9
:1044D000200908910CE00021F9E701CF4FF00A0B09
:1044E000F9E75946FFF76AFE01F1300209F8012D9C
:1044F0000028F6D1ADEB090000F1200B600701D4D4
:104500004FF00108D84503DDA8EB0B0001E029E0DE
:1045100000208046002406E009A85246005D0D995F
:104520009047761C641C08988442F5DB04E0302038
:1045300052460D999047761CB8F10001A8F1010888
:10454000F5DC05E019F8010B52460D999047761CF1
:10455000BBF10001ABF1010BF4DC6D1C28780028E5
:104560007FF432AF0FB03046BDE8F08F092801006C
:10457000FCF7E2B894450008000000206800000045
:1045800098430008FC450008680000204004000033
:10459000A8430008D007D007D007D00700000000CC
:1045A000000000000000000000000000000000000B
:1045B00000000000000000000000000000000000FB
:1045C000B80B0A00000000000000000000A24A042E
:1045D00000000000000000000102030406070809B3
:1045E0000000000001020304010203040607080999
:0C45F000020406080000000000000000AB
:0400000508000145A9
:00000001FF
