:020000040800F2
:1000000088040020450100087D0100087F010008E8
:1000100083010008870100088B0100080000000030
:100020000000000000000000000000008F01000838
:1000300091010008000000009301000895010008EC
:100040005F0100085F0100085F0100085F01000810
:100050005F0100085F0100085F0100085F01000800
:100060005F0100085F0100085F0100085F010008F0
:100070005F0100085F0100085F0100085F010008E0
:100080005F0100085F0100085F0100085F010008D0
:100090005F0100085F0100085F0100085F010008C0
:1000A0005F0100085F0100085F0100085F010008B0
:1000B0005F0100085F010008030200085F010008FB
:1000C0005F0100085F0100085F0100085F01000890
:1000D0005F010008970100085F0100085F01000848
:1000E0005F0100085F0100085F0100085F01000870
:1000F0005F0100085F0100085F0100085F01000860
:100100005F0100085F0100085F0100085F0100084F
:100110005F0100085F0100085F0100085F0100083F
:100120005F0100085F0100085F0100085F0100082F
:10013000DFF80CD003F054FD0048004769010008C7
:10014000880400200648804706480047FEE7FEE78F
:10015000FEE7FEE7FEE7FEE7FEE7FEE7FEE7FEE777
:100160000D1700083101000800F08CFD00F02DFA99
:1001700000F090FB00F075FE00BFFEE7704700BF87
:10018000FEE700BFFEE700BFFEE700BFFEE77047E7
:1001900070477047704770B5002400260025E1487D
:1001A00003F04CFEC4B2DF4803F048FEC6B221465D
:1001B000DDA003F047FD3146DDA003F043FDA6F1CD
:1001C0003000C5B22946DCA003F03CFD412C06D02E
:1001D000422C08D0432C0AD0442C10D10BE02846E6
:1001E00001F0E7F90BE0012001F0EEF907E0284605
:1001F00001F0F5F903E0284601F0FCF900BF00BF6B
:1002000070BD10B50121CE4803F032F90221CC486F
:1002100003F031F900285ED00221C94803F03CF90F
:10022000C848007840B90120C6490870C44803F0A6
:1002300003F9C54908804EE0C248007801284AD138
:1002400000240020BF490870BD4803F0F5F8BF49FD
:100250000880BD4800880988884207DABB480088C2
:10026000B9490988401ABA49088009E0B6480088A7
:100270004FF6FF71081AB54909880844B449088047
:10028000B3480088B349098888420FDDB048008828
:10029000B0490988401A84B2AF48008894FBF0F056
:1002A000AE4909880844AD4908800EE0A948008895
:1002B000A7490988401A84B2A748008894FBF0F047
:1002C000A6490988081AA5490880A4480188A4A05D
:1002D00003F0B8FC00BF0421994803F0CCF80028D3
:1002E0005ED00421964803F0D7F89E48007840B9C4
:1002F00001209C490870924803F0A1F89A490880AF
:100300004EE09848007801284AD100240020954901
:1003100008708B4803F093F894490880924800884D
:100320000988884207DA914800888F490988401A6D
:100330008F49088009E08C4800884FF6FF71081A41
:100340008A49098808448A4908808948008881497F
:10035000098888420FDD864800887E490988401A4E
:1003600084B27D48008894FBF0F0824909880844F3
:10037000804908800EE0774800887D490988401A46
:1003800084B27548008894FBF0F07A490988081A0D
:10039000784908807748018877A003F053FC00BFB4
:1003A0000821674803F067F8002859D008216448FD
:1003B00003F072F87148007840B901206F49087065
:1003C0005F4803F03FF86E49088049E06B480078C9
:1003D000012845D10024002068490870584803F0DE
:1003E00031F868490880664800880988884207DA39
:1003F0006448008862490988401A6349088009E016
:100400005F4800884FF6FF71081A5E490988084462
:100410005D4908805C4800884E49098888420FDDA4
:10042000594800884B490988401A84B24A480088D4
:1004300094FBF0F0554909880844544908800EE0BF
:100440004448008850490988401A84B242480088CC
:1004500094FBF0F04D490988081A4C49088000BF08
:100460001021374803F007F8002859D010213448EC
:1004700003F012F84648007840B90120444908705A
:100480002F4802F0E2FF4349088049E040480078E5
:10049000012845D1002400203D490870284802F079
:1004A000D4FF3D4908803B4800880988884207DA24
:1004B0003948008837490988401A3849088009E0D6
:1004C000344800884FF6FF71081A334909880844F8
:1004D00032490880314800881E49098888420FDD6A
:1004E0002E4800881B490988401A84B21A4800889F
:1004F00094FBF0F02A4909880844294908800EE055
:100500001448008825490988401A84B21248008896
:1005100094FBF0F022490988081A2149088000BF9D
:1005200010BD0000580000206469723D25630A0078
:10053000643D25640A00000064313D25640A000022
:1005400000080040100000201400002016000020C9
:10055000180000202C0000202E00002000000020A9
:1005600073256400110000201A0000201C000020E8
:100570001E000020040000206D25640012000020F1
:100580002000002022000020240000200200002083
:100590001300002026000020280000202A00002050
:1005A0000600002008B54FF4A06001F02FF92520C7
:1005B0008DF8000001208DF801008DF802008DF803
:1005C0000300684601F027F908BD00B585B0012198
:1005D000042001F0EFFF0121880301F0EBFF4FF44D
:1005E0000070ADF8100018208DF8130003208DF86E
:1005F000120004A9534801F027FD4FF48060ADF8C4
:10060000100004208DF8130004A94E4801F01CFDD1
:100610004FF4E13000900020ADF80400ADF8060082
:10062000ADF80800ADF80C000C20ADF80A006946E2
:10063000454802F078FFFFF7B5FF012240F225514F
:10064000414803F008F801213F4802F0F8FF05B0E7
:1006500000BD70B504460D462946204603F05CF8FF
:1006600000BF8021204603F0C5F80028F9D070BDF6
:100670002DE9F04105460C46260AE7B231462846E8
:1006800003F04AF800BF8021284603F0B3F80028A1
:10069000F9D03946284603F03FF800BF80212846AC
:1006A00003F0A8F80028F9D0BDE8F0812DE9F04169
:1006B00007460D461646002405E0295D3846FFF73B
:1006C000C8FF601CC4B2B442F7DB00BF402138460B
:1006D00003F090F80028F9D0BDE8F08170B5064627
:1006E0000C46002500BF615D3046FFF7B2FF681C75
:1006F000C5B2605D0028F6D100BF4021304603F04E
:1007000079F80028F9D070BD70B504460D46E1B205
:100710000D4803F001F800BF80210B4803F06AF890
:100720000028F9D0204670BD10B5044600BF202136
:10073000054803F05FF80028F9D0034802F0F0FF05
:1007400010BD0000000801400038014008B501213B
:10075000102001F02FFF3F20ADF8000000208DF8A1
:10076000030069464E4801F06FFC08BD00B591B02A
:100770000121084601F011FF0121480201F01AFF92
:10078000484801F0D9FA48480690484807900020A8
:1007900008900620099000200A9080200B904000CD
:1007A0000C9080000D9020200E9000020F900020F1
:1007B000109006A93B4801F061FB0121394801F086
:1007C00088FB0020019001208DF808008DF80900B9
:1007D0004FF4602003900020049006208DF8140050
:1007E00001A931484C3801F0A6F84FF4404001F01F
:1007F00048FE052301220A212B484C3801F033F929
:10080000052302220B2128484C3801F02CF905233E
:1008100003220C2124484C3801F025F90523042239
:100820000D2121484C3801F01EF905231A460E21EE
:100830001D484C3801F017F9052306220F211A48EC
:100840004C3801F010F9012117484C3801F0AAF892
:10085000012115484C3801F09AF813484C3801F042
:10086000B8F800BF10484C3801F0B8F80028F9D1AA
:100870000D484C3801F0BCF800BF0B484C3801F073
:10088000BCF80028F9D1012107484C3801F0BFF825
:1008900011B000BD10B5FFF759FFFFF767FF10BD9E
:1008A00000100140080002404C240140600000207C
:1008B00008B50121042001F07DFE4020ADF80000C4
:1008C00018208DF8030003208DF802006946F248D5
:1008D00001F0BAFB8020ADF8000018208DF803006D
:1008E00003208DF802006946EB4801F0ADFB0121C1
:1008F000082001F05FFE0120ADF8000018208DF8FF
:10090000030003208DF802006946E44801F09CFBD7
:100910000121082001F04EFE0220ADF80000182051
:100920008DF8030003208DF802006946DB4801F0D2
:100930008BFB08BD08B50121042001F03BFE01201E
:10094000ADF8000018208DF8030003208DF8020098
:100950006946D14801F078FB0121042001F02AFE0C
:100960000220ADF8000018208DF8030003208DF858
:1009700002006946C84801F067FB0121042001F02C
:1009800019FE0420ADF8000018208DF803000320A4
:100990008DF802006946C04801F056FB0121042091
:1009A00001F008FE0820ADF8000018208DF80300C3
:1009B00003208DF802006946B74801F045FB08BDE9
:1009C00000B587B00121022001F001FE42F2107053
:1009D000ADF804000A20ADF800000020ADF80600D4
:1009E000ADF802008DF808006946AD4801F01EFF21
:1009F0006020ADF80C000120ADF80E000020ADF82D
:100A00001400ADF8120003A9A54801F04CFF08211D
:100A1000A34802F097FB0020ADF8120003A9A048FC
:100A200001F083FF08219E4802F095FB0020ADF8FD
:100A3000120003A99A4801F0C5FF0821984802F066
:100A400097FB0020ADF8120003A9954802F005F8C5
:100A50000821934802F095FB0121914802F042FAE7
:100A600007B000BD00B587B00121082001F0AFFD3F
:100A700042F21070ADF804000A20ADF8000000202A
:100A8000ADF80600ADF802008DF80800694685480B
:100A900001F0CCFE6020ADF80C000120ADF80E0096
:100AA0000020ADF81400ADF8120003A97D4801F054
:100AB000FAFE08217B4802F045FB0020ADF8120049
:100AC00003A9784801F031FF0821764802F043FB82
:100AD0000020ADF8120003A9724801F073FF08214D
:100AE000704802F045FB0020ADF8120003A96D48E4
:100AF00001F0B3FF08216B4802F043FB0121694874
:100B000002F0F0F907B000BD1FB56020ADF800009D
:100B10000120ADF802000020ADF80800624800880E
:100B2000ADF8060069465F4801F0BDFE08215D484A
:100B300002F008FB1FBD1FB56020ADF800000120CA
:100B4000ADF802000020ADF8080058480088ADF864
:100B500006006946534801F0E8FE0821514802F0BA
:100B6000FAFA1FBD1FB56020ADF800000120ADF8F6
:100B700002000020ADF808004D480088ADF80600DE
:100B80006946484801F01EFF0821464802F0F0FA85
:100B90001FBD1FB56020ADF800000120ADF80200B8
:100BA0000020ADF8080043480088ADF8060069460B
:100BB0003C4801F052FF08213A4802F0E2FA1FBD1A
:100BC0001FB56020ADF800000120ADF80200002044
:100BD000ADF8080034480088ADF806006946304892
:100BE00001F061FE08212E4802F0ACFA1FBD1FB5CE
:100BF0006020ADF800000120ADF802000020ADF843
:100C000008002A480088ADF806006946244801F02B
:100C10008CFE0821224802F09EFA1FBD1FB56020FD
:100C2000ADF800000120ADF802000020ADF808008A
:100C30001F480088ADF806006946194801F0C2FE59
:100C40000821174802F094FA1FBD1FB56020ADF8C7
:100C500000000120ADF802000020ADF808001548A2
:100C60000088ADF8060069460D4801F0F6FE08213F
:100C70000B4802F086FA1FBD10B5FFF7A1FEFFF783
:100C8000F1FE10BD10B5FFF713FEFFF753FEFFF79F
:100C900097FEFFF7E7FE10BD00080140000C014081
:100CA00000040040000C0040000000200400002070
:100CB000020000200600002008B54FF4A06000F0FC
:100CC000A5FD1E208DF8000001208DF801000220F6
:100CD0008DF8020001208DF80300684600F09BFDAE
:100CE00008BD08B50121082001F064FC4020ADF8E2
:100CF000000004208DF8030069465F4801F0A4F964
:100D00000121082001F056FC8020ADF800000420ED
:100D10008DF803006946584801F096F90121082032
:100D200001F048FC4FF48070ADF8000004208DF80D
:100D300003006946504801F087F90121082001F0BD
:100D400039FC4FF40070ADF8000004208DF803006A
:100D50006946494801F078F908BD00B587B001211E
:100D6000042001F034FC4FF6FF70ADF814000620AB
:100D7000ADF810000020ADF81600ADF812008DF8A7
:100D8000180004A93D4801F051FD0020ADF8040011
:100D9000ADF806000120ADF808000020ADF80A000B
:100DA000ADF80C0001A9354801F0D3FF0420ADF8DF
:100DB00004000020ADF806000120ADF80800002076
:100DC000ADF80A00ADF80C0001A92C4801F0C1FFF4
:100DD0000820ADF804000020ADF806000120ADF8B1
:100DE00008000020ADF80A00ADF80C0001A9234866
:100DF00001F0AFFF0C20ADF804000020ADF80600B4
:100E00000120ADF808000020ADF80A00ADF80C0094
:100E100001A91A4801F09DFF1F21184802F028FB84
:100E200001221F21154802F078F80121134802F031
:100E300059F807B000BD0EB50121102001F0C7FB25
:100E400049F64040ADF8040041F61F40ADF80000FF
:100E500069460B4801F0EAFC0121094802F042F81A
:100E60000EBD10B5FFF7E7FFFFF726FFFFF739FFCD
:100E7000FFF773FF10BD0000000C014000080040A8
:100E8000001000402DE9F047FFF73EFEFFF753FE4C
:100E9000FFF768FEFFF77DFE0121FE4802F022F811
:100EA0000121FD4802F0E4FA0021FB4802F0AEFA0D
:100EB000BFE0FA49088802F0A9FD81464FF08B4156
:100EC00002F0F2FC044602F0A6FD07464FF066323F
:100ED000F34B02F029FD054602F0B0FDF149086030
:100EE000EE49488802F092FD81464FF08B4102F0B6
:100EF000DBFC044602F08FFD07464FF06632E84BFC
:100F000002F012FD054602F099FDE6494860E3490A
:100F1000888802F07BFD81464FF08B4102F0C4FCD3
:100F2000044602F078FD07464FF06632DC4B02F0D3
:100F3000FBFC054602F082FDDA498860D749C88883
:100F400002F064FD81464FF08B4102F0ADFC044697
:100F500002F061FD07464FF06632D14B02F0E4FC2F
:100F6000054602F06BFDCF49C860CC49088902F004
:100F70004DFD81464FF08B4102F096FC044602F095
:100F80004AFD07464FF06632C54B02F0CDFC0546E0
:100F900002F054FDC3490861C049488902F036FD9A
:100FA00081464FF08B4102F07FFC044602F033FD96
:100FB00007464FF06632BA4B02F0B6FC054602F027
:100FC0003DFDB8494861FFF79FFDFFF7B4FDFFF70E
:100FD000C9FDFFF7DEFDB34908684FF07E5102F00E
:100FE00049FD05D241F69C00AF490880AF49088011
:100FF000AC4948684FF07E5102F03CFD05D241F605
:101000009C00AB490880AB4908800121A24802F04E
:1010100026FA70B1A34908684FF07E5102F02AFD0C
:1010200007D2A04948684FF07E5102F023FD00D25C
:1010300000E03EE700BF0021964801F053FFFFF7B4
:101040001BFEBDE8F0872DE9F047FFF7B9FDFFF77C
:10105000CEFDFFF7E3FDFFF7F8FD01218D4801F01C
:1010600041FF01218C4802F003FA00218A4802F076
:10107000CDF9BFE08949088802F0C8FC81464FF0ED
:101080008B4102F011FC044602F0C5FC07464FF00C
:101090006632834B02F048FC054602F0CFFC8149E2
:1010A00008607E49488802F0B1FC81464FF08B41D0
:1010B00002F0FAFB044602F0AEFC07464FF066323F
:1010C000774B02F031FC054602F0B8FC75494860E8
:1010D0007249888802F09AFC81464FF08B4102F0F9
:1010E000E3FB044602F097FC07464FF066326C4B78
:1010F00002F01AFC054602F0A1FC6A4988606749C3
:10110000C88802F083FC81464FF08B4102F0CCFB93
:10111000044602F080FC07464FF06632604B02F056
:1011200003FC054602F08AFC5E49C8605B490889F9
:1011300002F06CFC81464FF08B4102F0B5FB044697
:1011400002F069FC07464FF06632554B02F0ECFBAB
:10115000054602F073FC534908615049488902F082
:1011600055FC81464FF08B4102F09EFB044602F095
:1011700052FC07464FF06632494B02F0D5FB05465C
:1011800002F05CFC47494861FFF71AFDFFF72FFDAD
:10119000FFF744FDFFF759FD424908684FF07E51C3
:1011A00002F068FC05D241F69C003F4908803F49A7
:1011B00008803C4948684FF07E5102F05BFC05D244
:1011C00041F69C003A4908803A490880012132489A
:1011D00002F045F970B1334908684FF07E5102F0D2
:1011E00049FC07D22F4948684FF07E5102F042FC7B
:1011F00000D200E03EE700BF0021264801F072FE69
:10120000FFF73AFDBDE8F0872DE9F047FFF77CFCDA
:10121000FFF7EDFCFFF702FDFFF7BBFC01211D48C6
:1012200001F060FE01211C4802F022F900211A4859
:1012300002F0ECF8D2E01949088802F0E7FB814699
:101240004FF08B4102F030FB044602F0E4FB07460E
:101250004FF06632124B02F067FB054602F0EEFBE0
:10126000104908600D49488802F0D0FB81464FF0D4
:101270008B4102F019FB044602F0CDFB07464FF00C
:101280006632074B02F050FB054602F0D7FB0549DA
:10129000486011E00008004000100040600000209D
:1012A00066660A406C000020040000200600002052
:1012B0000000002002000020D449888802F0A6FB2C
:1012C00081464FF08B4102F0EFFA044602F0A3FB97
:1012D00007464FF06632CE4B02F026FB054602F081
:1012E000ADFBCC498860C949C88802F08FFB8146B4
:1012F0004FF08B4102F0D8FA044602F08CFB07460F
:101300004FF06632C24B02F00FFB054602F096FB2F
:10131000C049C860BD49088902F078FB81464FF09A
:101320008B4102F0C1FA044602F075FB07464FF00C
:101330006632B74B02F0F8FA054602F07FFBB5497A
:101340000861B249488902F061FB81464FF08B4148
:1013500002F0AAFA044602F05EFB07464FF066323E
:10136000AB4B02F0E1FA054602F068FBA94948617F
:10137000FFF7CAFBFFF73BFCFFF750FCFFF709FC48
:10138000A44908684FF07E5102F074FB05D241F683
:101390009C00A1490880A14908809E4948684FF0F7
:1013A0007E5102F067FB05D241F69C009C49088003
:1013B0009C49088001219C4802F051F870B1954980
:1013C00008684FF07E5102F055FB07D291494868FA
:1013D0004FF07E5102F04EFB00D200E02BE700BF41
:1013E0000021924801F07EFDFFF746FCBDE8F08742
:1013F0002DE9F047FFF7E4FBFFF79DFBFFF7B2FB9A
:10140000FFF723FC0121894801F06CFD012186488A
:1014100002F02EF80021844801F0F8FFBFE07B497C
:10142000088802F0F3FA81464FF08B4102F03CFA53
:10143000044602F0F0FA07464FF06632744B02F0B1
:1014400073FA054602F0FAFA724908606F49488853
:1014500002F0DCFA81464FF08B4102F025FA044697
:1014600002F0D9FA07464FF06632694B02F05CFA97
:10147000054602F0E3FA674948606449888802F04B
:10148000C5FA81464FF08B4102F00EFA044602F095
:10149000C2FA07464FF066325D4B02F045FA054648
:1014A00002F0CCFA5B4988605849C88802F0AEFA6D
:1014B00081464FF08B4102F0F7F9044602F0ABFA97
:1014C00007464FF06632524B02F02EFA054602F004
:1014D000B5FA5049C8604D49088902F097FA81462B
:1014E0004FF08B4102F0E0F9044602F094FA07460F
:1014F0004FF06632464B02F017FA054602F09EFAAC
:10150000444908614149488902F080FA81464FF018
:101510008B4102F0C9F9044602F07DFA07464FF00C
:1015200066323B4B02F000FA054602F087FA394971
:101530004861FFF745FBFFF7FEFAFFF713FBFFF7E4
:1015400084FB344908684FF07E5102F093FA05D2CB
:1015500041F69C0030490880304908802D49486890
:101560004FF07E5102F086FA05D241F69C002C49DC
:1015700008802C49088001212B4801F070FF70B1D0
:10158000244908684FF07E5102F074FA07D22149CD
:1015900048684FF07E5102F06DFA00D200E03EE75D
:1015A00000BF0021214801F09DFCFFF765FBBDE86D
:1015B000F08770B50446002503E0FFF744FD681C82
:1015C000C5B2A542F9DB70BD70B50446002503E045
:1015D000FFF758FC681CC5B2A542F9DB70BD70B5B9
:1015E0000446002503E0FFF70FFE681CC5B2A542C4
:1015F000F9DB70BD70B50446002503E0FFF7F8FE87
:10160000681CC5B2A542F9DB70BD00006000002077
:1016100066660A406C0000200400002006000020DE
:1016200000000020020000200010004000080040E0
:101630000CB50020019000906B48006840F48030A9
:101640006949086000BF6848006800F400300090F5
:101650000198401C0190009818B90198B0F5A06F4E
:10166000F1D16148006810F4003F02D001200090E1
:1016700001E0002000900098012842D15B480068FA
:1016800040F01000594908600846006820F0030047
:1016900008600846006840F0020008605248406850
:1016A000514948600846406848600846406840F430
:1016B000806048600846406820F47C104860084616
:1016C000406840F4E81048600846006840F08070C8
:1016D000086000BF4448006810F0007FFAD042481C
:1016E000406820F00300404948600846406840F0E8
:1016F0000200486000BF3C48406800F00C00082829
:10170000F9D10CBD10B5FFF793FF10BD10B53648E9
:10171000006840F0010034490860084640683449D8
:1017200008403149486008460068324908402E495F
:1017300008600846006820F4802008600846406879
:1017400020F4FE0048604FF41F008860FFF7DAFFC6
:101750004FF000602849086010BD10B5002100203E
:101760000022214B5B6803F00C0121B1042906D053
:10177000082928D107E0214B214C236027E01F4B8B
:101780001F4C236023E0184B5B6803F47010164B6A
:101790005B6803F48032022303EB904022B9194BBB
:1017A0004343174C23600DE00F4B5B6813F4003F7D
:1017B00004D0144B4343124C236003E00F4B4343CC
:1017C0000F4C236003E00D4B0D4C236000BF00BFA6
:1017D000054B5B68C3F303130B4CE15C084B1B68C0
:1017E000CB40074C236010BD001002400020024097
:1017F0000000FFF8FFFFF6FE08ED00E000127A009F
:101800003000002000093D00340000203149014330
:10181000314A1160704770B5002100230F22C4784F
:101820000CB32D4C246804F4E064C4F5E064210A90
:10183000C1F10403CA40447804FA03F184781440E7
:1018400021430901254C0678A155047804F01F05B1
:101850000124AC4005786D114FF0E02606EB8505BC
:10186000C5F8004109E0047804F01F050124AC40EC
:101870001B4D0678761145F8264070BD194A0A407E
:101880000243154B1B1F1A60704739B1124A121DD3
:1018900012680243104B1B1D1A6006E00E4A121D0F
:1018A000126882430C4B1B1D1A607047042808D134
:1018B0004FF0E021096941F004014FF0E02211618D
:1018C00007E04FF0E021096921F004014FF0E02228
:1018D000116170470000FA050CED00E000E400E043
:1018E00080E100E080FFFF1F10B50446FA48844203
:1018F00008D10121401500F077FE0021601500F0AD
:1019000073FE17E0F548844208D10121001500F06C
:101910006BFE0021201500F067FE0BE0F0488442CA
:1019200008D10121C80300F05FFE00214FF4004000
:1019300000F05AFE10BD30B502460020002350686A
:10194000E84C20400D790C6844EA0524204350609F
:101950009068E54C2040D1E902542C434D7944EA8B
:10196000450420439060D06A20F470000C7C641E13
:10197000E4B2234340EA0350D06230BD002101604D
:10198000017141718160C16001210174704721B111
:10199000826842F00102826003E0826822F0010264
:1019A0008260704721B1826842F48072826003E0F5
:1019B000826822F480728260704710B50023CBB237
:1019C0001AB144681C43446002E044689C4344608C
:1019D00010BD816841F00801816070470146002018
:1019E0008A6812F0080F01D0012000E00020704743
:1019F000816841F0040181607047014600208A68D7
:101A000012F0040F01D0012000E00020704721B146
:101A1000826842F4A002826003E0826822F4A0029D
:101A200082607047014600208A6812F4800F01D05E
:101A3000012000E00020704710B50A460021002375
:101A4000416821F46041531E41EA4331416010BDB9
:101A500021B1426842F40062426003E0426822F42D
:101A6000006242607047F0B504460D460020002138
:101A7000092D11DDE068A5F10A0606EB46070726E9
:101A800006FA07F18843A5F10A0606EB460603FAB3
:101A900006F10843E0600CE0206905EB45070726E6
:101AA00006FA07F1884305EB450603FA06F10843F9
:101AB0002061072A0FDA606B561E06EB86071F2689
:101AC00006FA07F18843561E06EB860605FA06F16C
:101AD0000843606322E00D2A0FDA206BD61F06EB65
:101AE00086071F2606FA07F18843D61F06EB8606EF
:101AF00005FA06F10843206310E0E06AA2F10D0642
:101B000006EB86071F2606FA07F18843A2F10D06A9
:101B100006EB860605FA06F10843E062F0BD21B146
:101B2000826842F48012826003E0826822F48012AC
:101B3000826070470146C86C80B2704766484C307E
:101B40000068704721B1426842F48062426003E05D
:101B5000426822F480624260704721B1426842F4D8
:101B60008052426003E0426822F480524260704733
:101B70000A460021816821F4E041114381607047E9
:101B800021B1826842F40042826003E0826822F45C
:101B900000428260704721B1826842F40212826082
:101BA00003E0826822F4021282607047014600203E
:101BB0008A6812F4001F01D0012000E00020704765
:101BC000F0B504461546002000220026092911DD43
:101BD000E068A1F10A0707EB470C072707FA0CF2A8
:101BE0009043A1F10A0707EB470703FA07F21043F6
:101BF000E0600CE0206901EB410C072707FA0CF2CA
:101C0000904301EB410703FA07F210432061A06BF8
:101C1000C0F30156EF1C06F1010CA7EB0C0707EB14
:101C2000870C1F2707FA0CF29043EF1C06F1010CFA
:101C3000A7EB0C0707EB870701FA07F21043A06335
:101C4000F0BD10B50A4600210023816B21F440113C
:101C5000531E41EA0351816310BD08B50023009370
:101C60000090009B0B440093009B1A6008BD08B5D0
:101C7000024600200090009201F12800009B1844C9
:101C800000900098006880B208BD0A4600214168B3
:101C9000164B1940114341607047416282627047A0
:101CA0000A460021416821F01F011143416070473D
:101CB00040B109490831096841F40001064A083277
:101CC000116007E004490831096821F40001024A63
:101CD00008321160704700000024014000280140D4
:101CE000003C0140FFFEF0FFFDF7F1FFFFFD3FFF6D
:101CF0000246002013680B4201D0012000E00020C2
:101D00007047CA430260704770B502460020002346
:101D100000240B125568CEB205EA060415681D4270
:101D200002D00CB1012000E0002070BD00220A1298
:101D3000D34303607047000001684FF6FE72114004
:101D400001600021016041608160C1608C4988426E
:101D500008D18B490839496841F00F01884A083A8F
:101D600051608AE086491431884208D18449083993
:101D7000496841F0F001824A083A51607DE08049AB
:101D80002831884208D17E490839496841F4706198
:101D90007B4A083A516070E079493C31884208D169
:101DA00077490839496841F47041754A083A5160E9
:101DB00063E073495031884208D171490839496854
:101DC00041F470216E4A083A516056E06C49643122
:101DD000884208D16A490839496841F47001684A63
:101DE000083A516049E066497831884208D164492F
:101DF0000839496841F07061614A083A51603CE035
:101E00006049884206D1011F096841F00F01021F95
:101E1000116032E05B491431884208D15949091FE9
:101E2000096841F0F001574A121F116025E0554939
:101E30002831884208D15349091F096841F470616B
:101E4000504A121F116018E04E493C31884208D1B7
:101E50004C49091F096841F470414A4A121F116038
:101E60000BE048495031884207D14649091F0968AB
:101E700041F47021434A121F1160704710B50022CF
:101E8000026847F6F0739A430C6A8B6823430C6927
:101E900023434C6923438C692343CC6923434C6A15
:101EA00023438C6A23431A430260CB6843600B6868
:101EB00083604B68C36010BD002101604160816098
:101EC000C160016141618161C16101624162816200
:101ED000704721B1026842F00102026004E002682A
:101EE0004FF6FE731A40026070471AB103680B4345
:101EF000036002E003688B430360704741607047F2
:101F00000146486880B2704701460020002211F067
:101F1000805F03D01B4B083B1A6802E0184B083B5C
:101F20001A680A4201D0012000E00020704710F03A
:101F3000805F03D01349091F086002E01049083987
:101F40004860704701460020002211F0805F03D0F6
:101F50000C4B083B1A6802E0094B083B1A680A421E
:101F600001D0012000E00020704710F0805F03D016
:101F70000449091F086002E00149083948607047B8
:101F8000080002400804024010B50446CA488442D2
:101F900008D10121042000F027FB0021042000F0DB
:101FA00023FB46E0C548844208D10121082000F007
:101FB0001BFB0021082000F017FB3AE0C0488442D8
:101FC00008D10121102000F00FFB0021102000F0AB
:101FD0000BFB2EE0BB48844208D10121202000F0F9
:101FE00003FB0021202000F0FFFA22E0B6488442E3
:101FF00008D10121402000F0F7FA0021402000F034
:10200000F3FA16E0B148844208D10121802000F0A3
:10201000EBFA0021802000F0E7FA0AE0AC488442A5
:1020200007D10121801500F0DFFA0021A01500F092
:10203000DBFA10BD10B50121084600F0D5FA0021E9
:10204000012000F0D1FA10BD2DE9F0410246002533
:102050000026002000230024002791F803C00CF084
:102060000F0591F803C01CF0100F03D091F802C0C7
:102070004CEA050591F800C0BCF1000F31D014689E
:1020800000202BE04FF0010C0CFA00F3B1F800C077
:102090000CEA03069E4220D183004FF00F0C0CFA8D
:1020A00003F7BC4305FA03FC4CEA040491F803C0AF
:1020B000BCF1280F06D14FF0010C0CFA00FCC2F85D
:1020C00014C00AE091F803C0BCF1480F05D14FF0ED
:1020D000010C0CFA00FCC2F810C0401C0828D1D337
:1020E0001460B1F800C0BCF1FF0F34DD546800206B
:1020F0002EE000F1080C4FF0010808FA0CF3B1F8DB
:1021000000C00CEA03069E4221D183004FF00F0C61
:102110000CFA03F7BC4305FA03FC4CEA040491F8FB
:1021200003C0BCF1280F05D100F1080C08FA0CF827
:10213000C2F8148091F803C0BCF1480F07D100F138
:10214000080C4FF0010808FA0CF8C2F81080401C87
:102150000828CED35460BDE8F0814FF6FF710180AE
:10216000022181700421C1707047024600209368EB
:102170000B4201D0012000E0002070470146886832
:1021800080B2704702460020D3680B4201D0012084
:1021900000E0002070470146C86880B270470161C6
:1021A0007047416170470AB1016100E041617047C9
:1021B000C16070474FF480320A438261816182615D
:1021C00082698269704702460020424B18684FF6C8
:1021D0008073184040EA021008433E4B1860704775
:1021E0003D49C8617047F0B50A460023002400212C
:1021F000002500F00046B6F1004F02D1354EF169DE
:1022000001E0344E7168C0F3034583B200F4401618
:10221000B6F5401F08D121F070612E4E766826F089
:1022200070662C4F7E6012E000F48016B6F5801FB9
:1022300006D1032606FA05F4A14341F0706106E0D9
:10224000460D360103FA06F6B14341F0706122B142
:10225000460D360103FA06F6314300F00046B6F1AA
:10226000004F02D11B4EF16101E01A4E7160F0BDCA
:1022700030B500228B071C0F0F2303FA04F2154B15
:1022800008338C1053F824309343124C08348D10CB
:1022900044F8253023468C1053F824308C07240F43
:1022A00000FA04F423430B4C08348D1044F8253015
:1022B00030BD0A490860704700080140000C014029
:1022C000001001400014014000180140001C0140B2
:1022D000002001400000014000002042DC002042BC
:1022E000DD48006840F00100DB49086008464068AE
:1022F000DA490840D849486008460068D84908408B
:10230000D54908600846006820F480200860084627
:10231000406820F4FE0048604FF41F00886070475A
:10232000CD49096821F48031CB4A11601146096812
:1023300021F480211160B0F5803F03D0B0F5802FEB
:102340000ED106E0C449096841F48031C24A1160E7
:1023500007E0C149096841F4A021BF4A116000E0CB
:1023600000BF00BF704710B50146002200230020C7
:102370004A11012A02D1B84C236806E0022A02D190
:10238000B54C236A01E0B44C636A01F01F020124DA
:1023900094401C4201D0012000E0002010BD38B55F
:1023A000002000900024002500BF3120FFF7DBFF54
:1023B00005460098401C00900098B0F5A06F01D031
:1023C000002DF2D03120FFF7CEFF08B1012400E04C
:1023D0000024204638BD014600209F4A106820F0A6
:1023E000F80040EAC100106070479E4908607047DD
:1023F00002460020984B586820F47C1042EA010302
:102400001843954B586070479649086670470146D7
:102410000020914A506820F0030008435060704744
:102420008D48406800F00C007047014600208A4A41
:10243000506820F0F00008435060704701460020CB
:10244000854A506820F4E0600843506070470146B8
:102450000020814A506820F4605040EAC10050607A
:10246000704729B17C4A527A02437B4B5A7204E08E
:10247000794A527A8243784B5A7270477A49086097
:10248000704701460020744A506820F440400843D9
:10249000506070470021754A11706F4A82F8201011
:1024A000012802D0042808D103E001216F4A1170ED
:1024B00004E005216D4A117000E000BF00BF7047C5
:1024C0006B49086070476449096A0143624A1162B6
:1024D0007047674944390860704730B500210022D1
:1024E000002400235C4D6D6805F00C0121B1042926
:1024F00005D0082923D105E05E4D056022E05D4D41
:1025000005601FE0544D6D6805F47012524D6D6802
:1025100005F48034022505EB92421CB9564D554313
:1025200005600BE04C4D6D6815F4003F03D0524D33
:102530005543056002E04F4D5543056002E04D4DA7
:10254000056000BF00BF444D6D6805F0F00109094A
:102550004A4D6B5C0568DD4045603F4D6D6805F494
:10256000E061090A454D6B5C4568DD4085603A4D88
:102570006D6805F46051C90A404D6B5C4568DD40EB
:10258000C560354D6D6805F44041890B3C4D6B5C71
:10259000C568B5FBF3F5056130BD29B12E4A526916
:1025A00002432D4B5A6104E02B4A526982432A4B65
:1025B0005A61704729B1284A92690243264B9A61B1
:1025C00004E0254A92698243234B9A61704729B1FE
:1025D000214AD2690243204BDA6104E01E4AD269E3
:1025E00082431D4BDA61704729B11B4AD26802430E
:1025F000194BDA6004E0184AD2688243164BDA605D
:10260000704729B1144A12690243134B1A6104E05E
:10261000114A12698243104B1A61704714494039BC
:10262000086070470F49C86470470B49C87170470C
:102630000948406A40F08070074948627047014687
:102640000020054A92680A4201D0012000E00020E3
:102650007047014988727047001002400000FFF87F
:10266000FFFFF6FE00004242D80042422010024026
:102670008004424200127A0000093D00440000201C
:102680005400002010B50446FE48844208D10121C0
:10269000C014FFF7A9FF0021E014FFF7A5FFC4E075
:1026A000B4F1804F08D101210846FFF7AAFF0021AD
:1026B0000120FFF7A6FFB8E0F348844208D10121CA
:1026C0000220FFF79EFF00210220FFF79AFFACE0F7
:1026D000EE48844208D101210420FFF792FF002137
:1026E0000420FFF78EFFA0E0E948844208D10121D1
:1026F0000820FFF786FF00210820FFF782FF94E003
:10270000E448844208D101211020FFF77AFF00211C
:102710001020FFF776FF88E0DF48844208D10121CE
:102720002020FFF76EFF00212020FFF76AFF7CE0EA
:10273000DA48844208D101214014FFF755FF0021F7
:102740006014FFF751FF70E0D548844209D10121A0
:10275000C804FFF749FF00214FF40020FFF744FFB2
:1027600063E0D048844209D101210805FFF73CFF0E
:1027700000214FF48010FFF737FF56E0CA4884422B
:1027800009D101214805FFF72FFF00214FF4001068
:10279000FFF72AFF49E0C548844208D101214020C3
:1027A000FFF72FFF00214020FFF72BFF3DE0C0483F
:1027B000844208D101218020FFF723FF00218020DF
:1027C000FFF71FFF31E0BB48844208D1012180158B
:1027D000FFF717FF0021A015FFF713FF25E0B6480C
:1027E000844209D101210804FFF7FEFE00214FF4C5
:1027F0008030FFF7F9FE18E0B048844209D101218A
:102800004804FFF7F1FE00214FF40030FFF7ECFE23
:102810000BE0AB48844208D101218804FFF7E4FEB5
:1028200000214FF48020FFF7DFFE10BD0022028858
:10283000944B98420ED0994B98420BD0B0F1804FF8
:1028400008D0914B984205D0904B984202D0904BC3
:10285000984204D14FF68F731A404B881A438D4B20
:10286000984207D08C4B984204D04FF6FF431A4051
:10287000CB881A4302808B8883850B880385814B24
:1028800098420BD0854B984208D08B4B984205D08C
:102890008A4B984202D08A4B984201D10B7A038628
:1028A00001238382704770B5002400220023058C29
:1028B0004FF6FE7635400584028C8388048B4FF6F4
:1028C0008F752C40B51E2C400D882C43751E2A4058
:1028D0000D892A434D882A436A4DA8420BD06F4D7B
:1028E000A84208D0744DA84205D0744DA84202D029
:1028F000734DA84213D14FF6F7752A404D892A43EC
:102900004FF6FB752A408D882A434FF6FF652B4012
:102910004FF6FF552B408D892B43CD892B43838068
:102920000483CD888586028470BD70B500240022A2
:102930000023058C4FF6EF7635400584028C8388A2
:10294000048B48F6FF752C404FF6FF452C400D8850
:102950004FF6FF7606EA05252C434FF6DF752A4031
:102960000D8906EA05152A434D8806EA05152A430E
:10297000444DA84202D0494DA8421DD14FF67F7563
:102980002A404D894FF6FF7606EA05152A434FF691
:10299000BF752A408D8806EA05152A434FF6FF3594
:1029A0002B404FF2FF752B408D8906EA85052B439E
:1029B000CD8906EA85052B4383800483CD8805876E
:1029C000028470BD70B5002400220023058C4FF6F0
:1029D000FF6635400584028C8388848B4FF68F75A3
:1029E0002C404FF6FC752C400D882C434FF6FF55BC
:1029F0002A400D894FF6FF7606EA05252A434D88C1
:102A000006EA05252A431F4DA84202D0234DA842BD
:102A10001DD14FF2FF752A404D894FF6FF7606EA29
:102A200005252A434FF6FF352A408D8806EA0525FD
:102A30002A434EF6FF752B404DF6FF752B408D89CE
:102A400006EA05152B43CD8906EA05152B4383803D
:102A50008483CD888587028470BD70B500220023F1
:102A60000024058C4EF6FF7635400584038C84885F
:102A7000828B48F6FF752A404FF6FF452A400D88A5
:102A800020E00000002C014000040040000800404D
:102A9000000C0040001000400014004000340140D1
:102AA000004C01400050014000540140001800401B
:102AB000001C004000200040004001400044014054
:102AC000004801404FF6FF7606EA05252A434DF6F9
:102AD000FF752B400D8906EA05352B434D8806EA24
:102AE00005352B43FA4DA84202D0FA4DA84208D131
:102AF0004BF6FF752C408D894FF6FF7606EA85155B
:102B00002C4384808283CD88A0F84050038470BD1C
:102B1000828B4FF2FF331A408283828B4FF6FF7312
:102B200003EA01231A4382837047F0B50C46154629
:102B3000002200210026078C4EF6FF7C07EA0C07D6
:102B40000784828B018C4FF6FF7707EA043640F644
:102B5000FF473A404FF6FF7707EA05273A434FF61B
:102B6000FF7707EA03373A43D94FB8420ED0D94F1F
:102B7000B8420BD0B0F1804F08D0D74FB84205D043
:102B8000D64FB84202D0D64FB84206D14DF6FF77A5
:102B9000394046F48057394305E047F6FF5739403E
:102BA00044F48057394382830184F0BD828B4FF611
:102BB000F3731A408283828B0A4382837047F0B595
:102BC0000C461546002200210026078C4FF6FF6CAC
:102BD00007EA0C070784828B018C4FF6FF7707EA20
:102BE00004264FF60C773A404FF6FF7707EA0317B3
:102BF0002F433A43B64FB8420ED0B64FB8420BD02F
:102C0000B0F1804F08D0B44FB84205D0B34FB842AE
:102C100002D0B34FB84206D14FF6FF57394046F4C1
:102C20008077394305E04FF2FF57394044F480770D
:102C3000394382830184F0BD028B4FF2FF331A4087
:102C40000283028B4FF6FF7303EA01231A430283C8
:102C50007047F0B50C461546002200210026078C6F
:102C60004FF6EF7C07EA0C070784028B018C4FF6C6
:102C7000FF7707EA041640F6FF473A404FF6FF7722
:102C800007EA03373A434FF6FF7707EA05273A4347
:102C90008F4FB8420ED08F4FB8420BD0B0F1804F5B
:102CA00008D08D4FB84205D08C4FB84202D08C4F1F
:102CB000B84206D14FF6DF77394046F01007394366
:102CC00005E04FF65F77394044F01007394302833F
:102CD0000184F0BD028B4FF6F3731A400283028B1E
:102CE0000A4302837047F0B50C46154600220021C6
:102CF000068C4FF6FE773E400684028B018C4FF621
:102D00000C7632407E1C06EA03162E433243704E88
:102D1000B0420ED06F4EB0420BD0B0F1804F08D011
:102D20006D4EB04205D06D4EB04202D06C4EB042F6
:102D300006D14FF6FD76314044F00106314305E0FF
:102D40004FF6F576314044F00106314302830184A9
:102D5000F0BD70B505460C465D4885420ED05D4815
:102D600085420BD0B5F1804F08D05B48854205D035
:102D70005A48854202D05A48854200D100E000BF3F
:102D8000208850B92389A28861882846FFF7ABFFC5
:102D9000E1882846FFF79EFF25E0208804280AD115
:102DA0002389A28861882846FFF753FFE1882846D7
:102DB000FFF742FF17E0208808280AD12389A2885C
:102DC00061882846FFF7FBFEE1882846FFF7EEFE04
:102DD00009E02389A28861882846FFF7A6FEE188DA
:102DE0002846FFF795FE70BD2DE9F04105460C46DB
:102DF00000260127608808B9022600E00026A08886
:102E0000012801D1022700E001272088A0B92389E9
:102E1000A28861882846FFF766FFE1882846FFF709
:102E200059FF23893A4631462846FFF712FFE188C9
:102E30002846FFF701FF13E02389A288618828460E
:102E4000FFF707FFE1882846FFF7F6FE23893A4699
:102E500031462846FFF747FFE1882846FFF73AFF4B
:102E6000BDE8F0810A884B881A438B881A43CB88C7
:102E70001A430B891A434B891A438B891A43A0F8CA
:102E8000442070474FF6FF71818000210180C1808E
:102E90004180017270470021018041808180C180A2
:102EA000018141818181C181704700210180418080
:102EB000012181800021C1800181704700210180B2
:102EC00041808180C1800181418181817047000002
:102ED000002C014000340140000400400008004084
:102EE000000C004021B1028842F00102028004E09F
:102EF00002884FF6FE731A400280704731B1B0F875
:102F0000442042F40042A0F8442005E0B0F84420F8
:102F1000C2F30E02A0F8442070471AB183890B4314
:102F2000838102E083898B4383817047818270476C
:102F300041EA0203A0F8483070471AB183890B4375
:102F4000838102E083898B438381704701894FF637
:102F5000F8721140018170470A46002101894FF63D
:102F60008F73194011430181704730B504460D46F7
:102F700029462046FFF7F0FF208940F00700208116
:102F800030BD2DE9F04104460D4616461F46602D22
:102F900006D13B46012231462046FFF75AFE05E0A6
:102FA0003B46012231462046FFF79DFE294620463A
:102FB000FFF7D2FF208940F007002081BDE8F081B3
:102FC00030B50C4600210189C9B24FF6FF7505EAFC
:102FD0000325154325432943018130BD2DE9F041E7
:102FE00005460E4617469846002443463A46314663
:102FF0002846FFF7E5FF2C894FF6F870044044F0AF
:1030000007044FF68F70044044F070042C81BDE833
:10301000F081F0B504460D4616461F463B46324643
:1030200029462046FFF7CCFF208940F480402081CC
:10303000F0BD0185828270470A46002101884FF663
:103040008F731940114301807047F0B50C46154647
:103050001E460021002200230189028B038C4FF6BB
:10306000F877394021434FF6FC473A4040F20117C8
:103070003A434FF6DD773B404FF6FF7707EA0617F6
:103080002F433B43018102830384F0BD0A460021A4
:10309000018B4FF68F7319401143018370470A4625
:1030A0000021018B48F6FF7319404FF6FF7303EAC6
:1030B00002231943018370470A460021818B4FF692
:1030C0008F7319401143818370470A460021818B19
:1030D00048F6FF7319404FF6FF7303EA02231943C2
:1030E0008183704721B1028842F08002028004E0AF
:1030F00002884FF67F731A400280704721B18288A0
:1031000042F00402828004E082884FF6FB731A408A
:103110008280704721B1828842F00802828004E0F8
:1031200082884FF6F7731A408280704721B18288F7
:1031300042F00102828004E082884FF6FE731A405A
:10314000828070470A460021018B4FF6F7731940C1
:103150001143018370470A460021018B4FF2FF7330
:1031600019404FF6FF7303EA0223194301837047A6
:103170000A460021818B4FF6F77319401143818372
:1031800070470A460021818B4FF2FF7319404FF6BA
:10319000FF7303EA02231943818370470A46002123
:1031A000018B4FF6FB7319401143018370470A46A8
:1031B0000021018B4FF6FF3319404FF6FF7303EAEE
:1031C00002231943018370470A460021818B4FF681
:1031D000FB7319401143818370470A460021818B9C
:1031E0004FF6FF3319404FF6FF7303EA02231943EA
:1031F000818370470A460021018B4FF67F73194087
:103200001143018370470A460021018BC1F30E016F
:103210004FF6FF7303EA02231943018370470A46FE
:103220000021818B4FF67F731940114381837047D2
:103230000A460021818BC1F30E014FF6FF7303EAAA
:1032400002231943818370470A460021018C4FF6FF
:10325000FD7319401143018470470A460021018C17
:103260004FF6F77319401143018470470A46002155
:10327000018C4FF6DF7319404FF6FF7303EA021318
:103280001943018470470A460021018C4FF67F7371
:1032900019404FF6FF7303EA021319430184704784
:1032A0000A460021018C4FF6FF5319404FF6FF7379
:1032B00003EA02231943018470470A460021018C66
:1032C0004FF2FF7319404FF6FF7303EA02231943CD
:1032D000018470470A460021018C4DF6FF731940A6
:1032E0004FF6FF7303EA023319430184704730B588
:1032F000002301248C40A3B2048C9C430484048CDE
:1033000002FA01F5ADB22C43048430BD30B5002380
:1033100004248C40A3B2048C9C430484048C02FAE1
:1033200001F5ADB22C43048430BD70B503460020D6
:1033300000241846183001258D40ACB21D8CA543E1
:103340001D8409B1082909D100EB6100056825F049
:10335000700505600568154305600EE00D1FC5F397
:103360004E052844056825F4E045056005684FF6DC
:10337000FF7606EA02263543056070BD21B102885A
:1033800042F00202028004E002884FF6FD731A4008
:103390000280704721B1028842F00402028004E0FA
:1033A00002884FF6FB731A400280704721B1828871
:1033B00042F08002828004E082884FF67F731A40D8
:1033C0008280704702884FF6F7731A4002800288A5
:1033D0000A430280704782884FF68F731A408280BA
:1033E00082880A438280704702894FF6F8731A4038
:1033F000028102890A430281704702894FF67F7376
:103400001A40028102890A43028170478184704711
:103410008185704781867047018770478187704733
:10342000A0F84010704702884FF6FF431A40028010
:1034300002880A43028070470146888E7047014621
:10344000088F70470146888F70470146B1F84000E9
:1034500070470146888C70470146088D70470246C8
:103460000020138A0B4201D0012000E000207047A9
:10347000CA430282704730B5024600200023002470
:10348000158A05EA0103958905EA010413B10CB117
:10349000012000E0002030BDCA43028270470000D6
:1034A00010B50446FB48844209D101218803FFF787
:1034B0009BF800214FF48040FFF796F832E0F64881
:1034C000844209D101214804FFF79BF800214FF401
:1034D0000030FFF796F825E0F048844209D1012139
:1034E0008804FFF78EF800214FF48020FFF789F859
:1034F00018E0EB48844209D10121C804FFF781F8A4
:1035000000214FF40020FFF77CF80BE0E5488442EF
:1035100008D101210805FFF774F800214FF480104D
:10352000FFF76FF810BD2DE9F04786B005460E464F
:103530000024A24600BFA1460027B08900B100BF09
:103540002F462C8A4CF6FF700440F08804432C82EE
:10355000AC894EF6F3100440B08831890843718974
:1035600008430443AC81AC8A4FF6FF400440B08965
:103570000443AC8201A8FEF7B0FFC648874202D1DF
:10358000DDF810A001E0DDF80CA0A88910F4004FD0
:1035900008D00AEBCA0000EB0A1031684900B0FB02
:1035A000F1F807E00AEBCA0000EB0A103168890065
:1035B000B0FBF1F86420B8FBF0F0040120096421AD
:1035C00001FB1089A88910F4004F08D0322000EBCD
:1035D000C900B0FBF1F000F00700044308E032201E
:1035E00000EB09106421B0FBF1F000F00F00044380
:1035F0002C8106B0BDE8F0874FF416510160002120
:103600008180C18001810C2141810021818170472D
:1036100010B502460020108A4FF2FF0318400B88B5
:103620004C8823438C882343CC882343184310823F
:1036300010BD0021018041808180C180704721B18F
:10364000828942F40052828104E082894DF6FF7340
:103650001A4082817047F0B50346002400260025F9
:103660000020A1F510676A3F00D100BF1846C1F3E2
:10367000421401F01F06012707FA06F5012C01D1BB
:103680000C3004E0022C01D1103000E014301AB1EB
:1036900007682F43076002E00768AF430760F0BD8B
:1036A0001AB1838A0B43838202E0838A8B4383822D
:1036B0007047028A4FF6F0731A400282028A0A4368
:1036C0000282704782894FF2FF731A408281828999
:1036D0000A438281704721B1828942F002028281CD
:1036E00004E082894FF6FD731A4082817047028A96
:1036F0004FF6DF731A400282028A0A430282704741
:1037000021B1028A42F48042028204E0028A4BF62E
:10371000FF731A4002827047C1F30802828070472B
:1037200001468888C0F308007047818941F0010193
:1037300081817047028BD2B20283028B42EA01225E
:1037400002837047028B02F47F420283028B0A439A
:103750000283704721B1828A42F02002828204E013
:10376000828A4FF6DF731A408282704721B1828AC3
:1037700042F01002828204E0828A4FF6EF731A4010
:103780008282704721B1828A42F00802828204E07C
:10379000828A4FF6F7731A408282704721B182897C
:1037A00042F40042828103E08289C2F30E028281E8
:1037B000704721B1828A42F40062828204E0828AE8
:1037C0004FF2FF731A4082827047828A4FF6FB7372
:1037D0001A408282828A0A438282704721B1828A99
:1037E00042F00202828204E0828A4FF6FD731A40A0
:1037F0008282704702460020B1F5007F00D100BFF1
:1038000013880B4201D0012000E00020704701F432
:103810000072B2F5007F00D100BFCA43028070473A
:1038200070B502460024002300250020A1F5106693
:103830006A3E00D100BFC1F3421501F01F0301260B
:1038400006FA03F3012D02D19689334006E0022DDA
:1038500002D1168A334001E0968A33400C120126C9
:1038600006FA04F41688344013B10CB1012000E0CC
:10387000002070BD10B500220023A1F510646A3C41
:1038800000D100BF0A1201249440A3B2DC4304809B
:1038900010BD0000003801400044004000480040D6
:1038A000004C00400050004030B480EA010202F0B9
:1038B000004530F0004221F0004015D0A0B1C0F327
:1038C000C753C2F3C754C2F31601C0F31600E41A7B
:1038D00041F4000140F400027D34914201D3641CA4
:1038E00000E04900002C02DA30BC002070474FF4A1
:1038F00000000023914201D3891A034340084FEA94
:103900004101F7D151B1914202D14FF0004105E0A0
:1039100002D24FF0010101E06FF0010103EBC4504E
:10392000284430BC00F0C6B82DE9FE4F81EA0304FC
:1039300004F0004421F0004100944FF0000B23F00C
:10394000004350EA010402D052EA030404D10020EB
:10395000014603B0BDE8F08FC3F30A54C1F30A5522
:103960002C44A4F2F3340194A0FB0254C1F31301DC
:1039700041F48011C3F3130343F4801301FB0244A9
:1039800000FB034E840A970A44EA815447EA8357AE
:10399000A4FB076802958D0A05FB07854FEA932C67
:1039A00004FB0C542705029D4FEA065847EA1637D8
:1039B000B5EB08056EEB070C870E920E47EA8117F0
:1039C00042EA8312A7FB0201B6EB0B0164EB000491
:1039D0002B0D43EA0C335E1844EB1C50DA4651467B
:1039E000E7FB0201C5F313044FEA0B3343EA145318
:1039F0004FEA0432019C43EA0603A4F10C0402944A
:103A0000009CCDE900B400F098F8A2E796230022CC
:103A1000114600F058B800F0004230F000400AD0E3
:103A2000C10D01F56071C0F3160042EA0151C208F0
:103A300040071143704700200146704701F00043E2
:103A400030B421F0004150EA010206D00A0DA2F57F
:103A50006072C1F31301002A02DC30BC0020704701
:103A6000440F44EAC104C100E01830BC00EBC2506E
:103A700000F020B8002801DBC0F10040002901DB84
:103A8000C1F100418842704730B50B460146002025
:103A90002022012409E021FA02F59D4205D303FA10
:103AA00002F5491B04FA02F52844151EA2F1010291
:103AB000F1DC30BD0029A8BF7047401C490008BF99
:103AC00020F00100704710B4B0FA80FC00FA0CF04E
:103AD00050EA010404BF10BC704749B1CCF1200486
:103AE00021FA04F411FA0CF118BF01212143084313
:103AF000A3EB0C01CB1D0106000A002BBEBF00206A
:103B000010BC704700EBC35010440029A4BF10BC88
:103B10007047401C490008BF20F0010010BC7047EE
:103B200010B5002B08DA401C41F1000192185B41EE
:103B30001A4301D120F0010010BD2DE9F04D92464D
:103B40009B4611B1B1FA81F202E0B0FA80F2203264
:103B5000904600F057F804460F4640EA0A0041EA52
:103B60000B0153465A46084303D120463946BDE867
:103B7000F08D114653EA010015D0C8F140025046BD
:103B800000F04FF805460E4650465946424600F0B2
:103B900039F8084301D0012000E00020054346EA3F
:103BA000E0762C4337430A984FEA4453A0EB0800D1
:103BB0004FEAD4240A304FF0000244EA47544FEA57
:103BC000D72502D500200146D1E70105101969412A
:103BD000DDE9084500196941BDE8F04DA0E70000A6
:103BE000064C074D06E0E06840F0010394E807004A
:103BF00098471034AC42F6D3FCF79EFA403E0008DA
:103C0000603E0008202A04DB203A00FA02F100207E
:103C100070479140C2F1200320FA03F3194390400A
:103C20007047202A04DB203A21FA02F00021704775
:103C300021FA02F3D040C2F1200291400843194614
:103C4000704700000FB4054B10B503A9044A029851
:103C500000F018F810BC5DF814FB0000090700081C
:103C60005C00002002E008C8121F08C1002AFAD137
:103C700070477047002001E001C1121F002AFBD1EC
:103C8000704700002DE9FF4F8BB09A460F4605465E
:103C90000026C9E0252837D100246D1C6649A046BE
:103CA00001222B78203B02FA03F0084202D00443A1
:103CB0006D1CF6E728782E2817D115F8010F44F06F
:103CC00004042A280ED06FF02F022878A0F13001CA
:103CD00009290AD808EB880102EB410100EB010831
:103CE0006D1CF2E757F8048B6D1C287869283FD0CB
:103CF00006DC002871D063280CD0642804D137E09A
:103D0000732811D075284ED052460D99904706F170
:103D1000010688E017F8040B8DF8000000208DF8EC
:103D20000100E946012003E057F8049B4FF0FF3003
:103D300061074FF0000401D40AE0641C44450DDA29
:103D40008442FADB19F804100029F6D106E0641C5D
:103D50008442FCDB19F804100029F8D1264404E061
:103D600019F8010B52460D999047641EF8D25AE09B
:103D700001CF4FF00A0B002804DAC0F100004FF029
:103D80002D0102E0210504D52B218DF824100121FD
:103D900003E0E10705D02021F7E70DF120090891A4
:103DA0000CE00021F9E701CF4FF00A0BF9E7594683
:103DB000FFF76AFE01F1300209F8012D0028F6D163
:103DC000ADEB090000F1200B600701D44FF00108B2
:103DD000D84503DDA8EB0B0001E029E00020804678
:103DE000002406E009A85246005D0D999047761C14
:103DF000641C08988442F5DB04E0302052460D999B
:103E00009047761CB8F10001A8F10108F5DC05E047
:103E100019F8010B52460D999047761CBBF1000131
:103E2000ABF1010BF4DC6D1C287800287FF432AF75
:103E30000FB03046BDE8F08F09280100FCF774BCD4
:103E4000603E00080000002060000000643C0008A4
:103E5000C03E00086000002028040000743C0008F8
:103E6000A00FA00FA00FA00F000000000000000096
:103E70000000000000000000000000000000000042
:103E8000000000000000000000000000EC5CF401F5
:103E900000A24A0400000000000000000102030428
:103EA00006070809000000000102030401020304E0
:103EB00006070809020406080000000000000000D0
:0400000508000145A9
:00000001FF
