:020000040800F2
:1000000080040020450100087D0100087F010008F0
:1000100083010008870100088B0100080000000030
:100020000000000000000000000000008F01000838
:1000300091010008000000009301000895010008EC
:100040005F0100085F0100085F0100085F01000810
:100050005F0100085F0100085F0100085F01000800
:100060005F0100085F0100085F0100085F010008F0
:100070005F0100085F0100085F0100085F010008E0
:100080005F0100085F0100085F0100085F010008D0
:100090005F0100085F0100085F0100085F010008C0
:1000A0005F0100085F0100085F0100085F010008B0
:1000B0005F0100085F010008030200085F010008FB
:1000C0005F0100085F0100085F0100085F01000890
:1000D0005F010008970100085F0100085F01000848
:1000E0005F0100085F0100085F0100085F01000870
:1000F0005F0100085F0100085F0100085F01000860
:100100005F0100085F0100085F0100085F0100084F
:100110005F0100085F0100085F0100085F0100083F
:100120005F0100085F0100085F0100085F0100082F
:10013000DFF80CD003F08AFE004800476901000890
:10014000800400200648804706480047FEE7FEE797
:10015000FEE7FEE7FEE7FEE7FEE7FEE7FEE7FEE777
:10016000791900083101000800F08CFD00F02DFA2B
:1001700000F090FB00F075FE00BFFEE7704700BF87
:10018000FEE700BFFEE700BFFEE700BFFEE77047E7
:1001900070477047704770B5002400260025E1487D
:1001A00003F082FFC4B2DF4803F07EFFC6B22146EF
:1001B000DDA003F07DFE3146DDA003F079FEA6F15F
:1001C0003000C5B22946DCA003F072FE412C06D0F7
:1001D000422C08D0432C0AD0442C10D10BE02846E6
:1001E00001F01EFB0BE0012001F025FB07E0284693
:1001F00001F02CFB03E0284601F033FB00BF00BFF9
:1002000070BD10B50121CE4803F068FA0221CC4838
:1002100003F067FA00285ED00221C94803F072FAA1
:10022000C848007840B90120C6490870C44803F0A6
:1002300039FAC54908804EE0C248007801284AD101
:1002400000240020BF490870BD4803F02BFABF49C5
:100250000880BD4800880988884207DABB480088C2
:10026000B9490988401ABA49088009E0B6480088A7
:100270004FF6FF71081AB54909880844B449088047
:10028000B3480088B349098888420FDDB048008828
:10029000B0490988401A84B2AF48008894FBF0F056
:1002A000AE4909880844AD4908800EE0A948008895
:1002B000A7490988401A84B2A748008894FBF0F047
:1002C000A6490988081AA5490880A4480188A4A05D
:1002D00003F0EEFD00BF0421994803F002FA002864
:1002E0005ED00421964803F00DFA9E48007840B98C
:1002F00001209C490870924803F0D7F99A49088078
:100300004EE09848007801284AD100240020954901
:1003100008708B4803F0C9F9944908809248008816
:100320000988884207DA914800888F490988401A6D
:100330008F49088009E08C4800884FF6FF71081A41
:100340008A49098808448A4908808948008881497F
:10035000098888420FDD864800887E490988401A4E
:1003600084B27D48008894FBF0F0824909880844F3
:10037000804908800EE0774800887D490988401A46
:1003800084B27548008894FBF0F07A490988081A0D
:10039000784908807748018877A003F089FD00BF7D
:1003A0000821674803F09DF9002859D008216448C6
:1003B00003F0A8F97148007840B901206F4908702E
:1003C0005F4803F075F96E49088049E06B48007892
:1003D000012845D10024002068490870584803F0DE
:1003E00067F968490880664800880988884207DA02
:1003F0006448008862490988401A6349088009E016
:100400005F4800884FF6FF71081A5E490988084462
:100410005D4908805C4800884E49098888420FDDA4
:10042000594800884B490988401A84B24A480088D4
:1004300094FBF0F0554909880844544908800EE0BF
:100440004448008850490988401A84B242480088CC
:1004500094FBF0F04D490988081A4C49088000BF08
:100460001021374803F03DF9002859D010213448B5
:1004700003F048F94648007840B901204449087023
:100480002F4803F018F94349088049E040480078B4
:10049000012845D1002400203D490870284803F078
:1004A0000AF93D4908803B4800880988884207DAF4
:1004B0003948008837490988401A3849088009E0D6
:1004C000344800884FF6FF71081A334909880844F8
:1004D00032490880314800881E49098888420FDD6A
:1004E0002E4800881B490988401A84B21A4800889F
:1004F00094FBF0F02A4909880844294908800EE055
:100500001448008825490988401A84B21248008896
:1005100094FBF0F022490988081A2149088000BF9D
:1005200010BD0000500000206469723D25630A0080
:10053000643D25640A00000064313D25640A000022
:1005400000080040080000200C0000200E000020E1
:1005500010000020240000202600002000000020C1
:100560007325640009000020120000201400002000
:1005700016000020040000206D2564000A00002001
:10058000180000201A0000201C000020020000209B
:100590000B0000201E000020200000202200002070
:1005A0000600002008B54FF4A06001F065FA252090
:1005B0008DF8000001208DF801008DF802008DF803
:1005C0000300684601F05DFA08BD00B585B0012161
:1005D000042002F025F90121880302F021F94FF4EB
:1005E0000070ADF8100018208DF8130003208DF86E
:1005F000120004A9534801F05DFE4FF48060ADF88D
:10060000100004208DF8130004A94E4801F052FE9A
:100610004FF4E13000900020ADF80400ADF8060082
:10062000ADF80800ADF80C000C20ADF80A006946E2
:10063000454803F0AEF8FFF7B5FF012240F225511F
:10064000414803F03EF901213F4803F02EF905B07F
:1006500000BD70B504460D462946204603F092F9C8
:1006600000BF8021204603F0FBF90028F9D070BDBF
:100670002DE9F04105460C46260AE7B231462846E8
:1006800003F080F900BF8021284603F0E9F9002833
:10069000F9D03946284603F075F900BF8021284675
:1006A00003F0DEF90028F9D0BDE8F0812DE9F04132
:1006B00007460D461646002405E0295D3846FFF73B
:1006C000C8FF601CC4B2B442F7DB00BF402138460B
:1006D00003F0C6F90028F9D0BDE8F08170B50646F0
:1006E0000C46002500BF615D3046FFF7B2FF681C75
:1006F000C5B2605D0028F6D100BF4021304603F04E
:10070000AFF90028F9D070BD70B504460D46E1B2CE
:100710000D4803F037F900BF80210B4803F0A0F922
:100720000028F9D0204670BD10B5044600BF202136
:10073000054803F095F90028F9D0034803F026F99D
:1007400010BD0000000801400038014008B501213B
:10075000102002F065F83F20ADF8000000208DF871
:10076000030069464E4801F0A5FD08BD00B591B0F3
:100770000121084602F047F80121480202F050F832
:10078000484801F00FFC4848069048480790002070
:1007900008900620099000200A9080200B904000CD
:1007A0000C9080000D9020200E9000020F900020F1
:1007B000109006A93B4801F097FC0121394801F04F
:1007C000BEFC0020019001208DF808008DF8090082
:1007D0004FF4602003900020049006208DF8140050
:1007E00001A931484C3801F0DCF94FF4404001F0E8
:1007F0007EFF052301220A212B484C3801F069FABB
:10080000052302220B2128484C3801F062FA052307
:1008100003220C2124484C3801F05BFA0523042202
:100820000D2121484C3801F054FA05231A460E21B7
:100830001D484C3801F04DFA052306220F211A48B5
:100840004C3801F046FA012117484C3801F0E0F924
:10085000012115484C3801F0D0F913484C3801F00B
:10086000EEF900BF10484C3801F0EEF90028F9D13C
:100870000D484C3801F0F2F900BF0B484C3801F03C
:10088000F2F90028F9D1012107484C3801F0F5F9B7
:1008900011B000BD10B5FFF759FFFFF767FF10BD9E
:1008A00000100140080002404C2401405800002084
:1008B00008B50121042001F0B3FF4020ADF800008D
:1008C00018208DF8030003208DF802006946F248D5
:1008D00001F0F0FC8020ADF8000018208DF8030036
:1008E00003208DF802006946EB4801F0E3FC01218A
:1008F000082001F095FF0120ADF8000018208DF8C8
:10090000030003208DF802006946E44801F0D2FCA0
:100910000121082001F084FF0220ADF8000018201A
:100920008DF8030003208DF802006946DB4801F0D2
:10093000C1FC08BD08B50121042001F071FF0120B0
:10094000ADF8000018208DF8030003208DF8020098
:100950006946D14801F0AEFC0121042001F060FF9E
:100960000220ADF8000018208DF8030003208DF858
:1009700002006946C84801F09DFC0121042001F0F5
:100980004FFF0420ADF8000018208DF8030003206D
:100990008DF802006946C04801F08CFC012104205A
:1009A00001F03EFF0820ADF8000018208DF803008C
:1009B00003208DF802006946B74801F07BFC08BDB2
:1009C00000B587B00121022001F037FF42F210701C
:1009D000ADF804000A20ADF800000020ADF80600D4
:1009E000ADF802008DF808006946AD4802F054F8F1
:1009F0006020ADF80C000120ADF80E000020ADF82D
:100A00001400ADF8120003A9A54802F082F80821ED
:100A1000A34802F0CDFC0020ADF8120003A9A048C5
:100A200002F0B9F808219E4802F0CBFC0020ADF896
:100A3000120003A99A4802F0FBF80821984802F036
:100A4000CDFC0020ADF8120003A9954802F03BF957
:100A50000821934802F0CBFC0121914802F078FB79
:100A600007B000BD00B587B00121082001F0E5FE08
:100A700042F21070ADF804000A20ADF8000000202A
:100A8000ADF80600ADF802008DF80800694685480B
:100A900002F002F86020ADF80C000120ADF80E0065
:100AA0000020ADF81400ADF8120003A97D4802F053
:100AB00030F808217B4802F07BFC0020ADF81200E2
:100AC00003A9784802F067F80821764802F079FC1B
:100AD0000020ADF8120003A9724802F0A9F808211D
:100AE000704802F07BFC0020ADF8120003A96D48AD
:100AF00002F0E9F808216B4802F079FC012169480D
:100B000002F026FB07B000BD1FB56020ADF8000065
:100B10000120ADF802000020ADF80800624800880E
:100B2000ADF8060069465F4801F0F3FF08215D4813
:100B300002F03EFC1FBD1FB56020ADF80000012093
:100B4000ADF802000020ADF8080058480088ADF864
:100B500006006946534802F01EF80821514802F089
:100B600030FC1FBD1FB56020ADF800000120ADF8BE
:100B700002000020ADF808004D480088ADF80600DE
:100B80006946484802F054F80821464802F026FC1D
:100B90001FBD1FB56020ADF800000120ADF80200B8
:100BA0000020ADF8080043480088ADF8060069460B
:100BB0003C4802F088F808213A4802F018FC1FBDB2
:100BC0001FB56020ADF800000120ADF80200002044
:100BD000ADF8080034480088ADF806006946304892
:100BE00001F097FF08212E4802F0E2FB1FBD1FB560
:100BF0006020ADF800000120ADF802000020ADF843
:100C000008002A480088ADF806006946244801F02B
:100C1000C2FF0821224802F0D4FB1FBD1FB560208F
:100C2000ADF800000120ADF802000020ADF808008A
:100C30001F480088ADF806006946194801F0F8FF22
:100C40000821174802F0CAFB1FBD1FB56020ADF890
:100C500000000120ADF802000020ADF808001548A2
:100C60000088ADF8060069460D4802F02CF808210E
:100C70000B4802F0BCFB1FBD10B5FFF7A1FEFFF74C
:100C8000F1FE10BD10B5FFF713FEFFF753FEFFF79F
:100C900097FEFFF7E7FE10BD00080140000C014081
:100CA00000040040000C0040000000200400002070
:100CB000020000200600002008B54FF4A06000F0FC
:100CC000DBFE1E208DF8000001208DF801000220BF
:100CD0008DF8020001208DF80300684600F0D1FE77
:100CE00008BD08B50121082001F09AFD4020ADF8AB
:100CF000000004208DF8030069465F4801F0DAFA2D
:100D00000121082001F08CFD8020ADF800000420B6
:100D10008DF803006946584801F0CCFA01210820FB
:100D200001F07EFD4FF48070ADF8000004208DF8D6
:100D300003006946504801F0BDFA0121082001F086
:100D40006FFD4FF40070ADF8000004208DF8030033
:100D50006946494801F0AEFA08BD00B587B00121E7
:100D6000042001F06AFD4FF6FF70ADF81400062074
:100D7000ADF810000020ADF81600ADF812008DF8A7
:100D8000180004A93D4801F087FE0020ADF80400DA
:100D9000ADF806000120ADF808000020ADF80A000B
:100DA000ADF80C0001A9354802F009F90420ADF8AE
:100DB00004000020ADF806000120ADF80800002076
:100DC000ADF80A00ADF80C0001A92C4802F0F7F8C4
:100DD0000820ADF804000020ADF806000120ADF8B1
:100DE00008000020ADF80A00ADF80C0001A9234866
:100DF00002F0E5F80C20ADF804000020ADF8060084
:100E00000120ADF808000020ADF80A00ADF80C0094
:100E100001A91A4802F0D3F81F21184802F05EFC1D
:100E200001221F21154802F0AEF90121134802F0FA
:100E30008FF907B000BD0EB50121102001F0FDFCB7
:100E400049F64040ADF8040041F61F40ADF80000FF
:100E500069460B4801F020FE0121094802F078F9AB
:100E60000EBD10B5FFF7E7FFFFF726FFFFF739FFCD
:100E7000FFF773FF10BD0000000C014000080040A8
:100E8000001000402DE9F047FFF73EFEFFF753FE4C
:100E9000FFF768FEFFF77DFE0121FE4802F058F9DA
:100EA0000121FD4802F01AFC0021FB4802F0E4FB9E
:100EB0000BE1FA49088802F0DFFE81464FF08B41D2
:100EC00002F028FE044602F0DCFE07464FF06632D0
:100ED000F34B02F05FFE054602F0E6FEF1490860C2
:100EE000EE49488802F0C8FE81464FF08B4102F07F
:100EF00011FE044602F0C5FE07464FF06632E84B8D
:100F000002F048FE054602F0CFFEE6494860E3499C
:100F1000888802F0B1FE81464FF08B4102F0FAFD65
:100F2000044602F0AEFE07464FF06632DC4B02F09C
:100F300031FE054602F0B8FEDA498860D749C88814
:100F400002F09AFE81464FF08B4102F0E3FD044629
:100F500002F097FE07464FF06632D14B02F01AFEC0
:100F6000054602F0A1FECF49C860CC49088902F0CD
:100F700083FE81464FF08B4102F0CCFD044602F027
:100F800080FE07464FF06632C54B02F003FE054671
:100F900002F08AFEC3490861C049488902F06CFE2C
:100FA00081464FF08B4102F0B5FD044602F069FE28
:100FB00007464FF06632BA4B02F0ECFD054602F0F0
:100FC00073FEB8494861B549888902F055FE8146EB
:100FD0004FF08B4102F09EFD044602F052FE0746A0
:100FE0004FF06632AE4B02F0D5FD054602F05CFED6
:100FF000AC498861A949C88902F03EFE81464FF09C
:101000008B4102F087FD044602F03BFE07464FF09D
:101010006632A34B02F0BEFD054602F045FEA14933
:10102000C8619E49088A02F027FE81464FF08B4135
:1010300002F070FD044602F024FE07464FF06632CF
:10104000974B02F0A7FD054602F02EFE9549086277
:10105000FFF75AFDFFF76FFDFFF784FDFFF799FDDE
:10106000904908684FF07E5102F03AFE06D38D4950
:1010700088694FF07E5102F033FE05D241F69C00A4
:101080008949088089490880864988684FF07E51DF
:1010900002F026FE06D38349086A4FF07E5102F023
:1010A0001FFE05D241F69C008149088081490880D5
:1010B0000121794802F009FB38B17A4908694FF0FB
:1010C0007E5102F00DFE00D200E0F2E600BF0021EA
:1010D000704802F03DF8FFF7CFFDBDE8F0872DE93D
:1010E000F047FFF76DFDFFF782FDFFF797FDFFF774
:1010F000ACFD0121674802F02BF80121664802F09F
:10110000EDFA0021644802F0B7FA1FE1634908884C
:1011100002F0B2FD81464FF08B4102F0FBFC044629
:1011200002F0AFFD07464FF066325D4B02F032FD34
:10113000054602F0B9FD5B4908605849488802F04D
:101140009BFD81464FF08B4102F0E4FC044602F027
:1011500098FD07464FF06632514B02F01BFD0546E5
:1011600002F0A2FD4F4948604C49888802F084FD96
:1011700081464FF08B4102F0CDFC044602F081FD28
:1011800007464FF06632464B02F004FD054602F07A
:101190008BFD444988604149C88802F06DFD814655
:1011A0004FF08B4102F0B6FC044602F06AFD0746A0
:1011B0004FF066323A4B02F0EDFC054602F074FD4A
:1011C0003849C8603549088902F056FD81464FF01C
:1011D0008B4102F09FFC044602F053FD07464FF09E
:1011E00066322F4B02F0D6FC054602F05DFD2D491C
:1011F00008612A49488902F03FFD81464FF08B4142
:1012000002F088FC044602F03CFD07464FF06632CF
:10121000234B02F0BFFC054602F046FD2149486120
:101220001E49888902F028FD81464FF08B4102F06B
:1012300071FC044602F025FD07464FF06632184B5C
:1012400002F0A8FC054602F02FFD164988611349FB
:10125000C88902F011FD81464FF08B4102F05AFC23
:10126000044602F00EFD07464FF066320C4B02F0CA
:1012700091FC054602F018FD0A49C8610749088A31
:1012800002F0FAFC81464FF08B4102F043FC044629
:1012900012E000000008004000100040580000204C
:1012A00066660A406400002004000020060000205A
:1012B000000000200200002002F0E3FC07464FF08F
:1012C0006632FE4B02F066FC054602F0EDFCFC497E
:1012D0000862FFF775FCFFF78AFCFFF79FFCFFF73A
:1012E000B4FCF74988684FF07E5102F0F9FC06D350
:1012F000F349086A4FF07E5102F0F2FC05D241F644
:101300009C00F0490880F0490880ED4908684FF0DA
:101310007E5102F0E5FC06D3E94988694FF07E5121
:1013200002F0DEFC05D241F69C00E8490880E8495D
:1013300008800121E74802F0C8F938B1E04908699E
:101340004FF07E5102F0CCFC00D200E0DEE600BFA0
:101350000021E14801F0FCFEFFF78EFCBDE8F087BC
:101360002DE9F047FFF7D0FBFFF741FCFFF756FCF4
:10137000FFF70FFC0121D84801F0EAFE0121D54812
:1013800002F0ACF90021D34802F076F904E1D34928
:10139000088802F071FC81464FF08B4102F0BAFBE5
:1013A000044602F06EFC07464FF06632C34B02F073
:1013B000F1FB054602F078FCC1490860C74948883E
:1013C00002F05AFC81464FF08B4102F0A3FB044629
:1013D00002F057FC07464FF06632B84B02F0DAFBDA
:1013E000054602F061FCB6494860BC49888802F0B5
:1013F00043FC81464FF08B4102F08CFB044602F027
:1014000040FC07464FF06632AC4B02F0C3FB05468A
:1014100002F04AFCAA498860B049C88802F02CFC56
:1014200081464FF08B4102F075FB044602F029FC27
:1014300007464FF06632A14B02F0ACFB054602F0C6
:1014400033FC9F49C860A549088902F015FC814614
:101450004FF08B4102F05EFB044602F012FC07469F
:101460004FF06632954B02F095FB054602F01CFCEE
:10147000934908619949488902F0FEFB81464FF083
:101480008B4102F047FB044602F0FBFB07464FF09E
:1014900066328A4B02F07EFB054602F005FC884965
:1014A00048618E49888902F0E7FB81464FF08B4105
:1014B00002F030FB044602F0E4FB07464FF06632D0
:1014C0007E4B02F067FB054602F0EEFB7C4988612B
:1014D0008249C88902F0D0FB81464FF08B4102F06F
:1014E00019FB044602F0CDFB07464FF06632734B02
:1014F00002F050FB054602F0D7FB7149C8617749FD
:10150000088A02F0B9FB81464FF08B4102F002FBE2
:10151000044602F0B6FB07464FF06632674B02F016
:1015200039FB054602F0C0FB65490862FFF7ECFA9B
:10153000FFF75DFBFFF772FBFFF72BFB6049486984
:101540004FF07E5102F0CCFB05D241F69C005D4984
:1015500008805E4908805A49C8684FF07E5102F001
:10156000BFFB05D241F69C005749088058490880C6
:101570000121584802F0A9F870B1514948684FF06C
:101580007E5102F0ADFB07D24D49C8694FF07E5144
:1015900002F0A6FB00D200E0F9E600BF00214E48B1
:1015A00001F0D6FDFFF768FBBDE8F0872DE9F047B5
:1015B000FFF706FBFFF7BFFAFFF7D4FAFFF745FB8B
:1015C0000121454801F0C4FD0121424802F086F89E
:1015D0000021404802F050F818E14049088802F024
:1015E0004BFB81464FF08B4102F094FA044602F027
:1015F00048FB07464FF06632304B02F0CBFA054607
:1016000002F052FB2E4908603449488802F034FB4E
:1016100081464FF08B4102F07DFA044602F031FB27
:1016200007464FF06632254B02F0B4FA054602F049
:101630003BFB234948602949888802F01DFB81460D
:101640004FF08B4102F066FA044602F01AFB07469F
:101650004FF06632194B02F09DFA054602F024FB6A
:10166000174988601D49C88802F006FB81464FF083
:101670008B4102F04FFA044602F003FB07464FF09D
:1016800066320E4B02F086FA054602F00DFB0C495D
:10169000C8601249088902F0EFFA81464FF08B4189
:1016A00002F038FA044602F0ECFA07464FF06632D0
:1016B000024B02F06FFA054612E0000066660A402F
:1016C000640000200400002006000020000000202C
:1016D00002000020001000400008004058000020D8
:1016E00002F0E2FA644908616449488902F0C4FAE8
:1016F00081464FF08B4102F00DFA044602F0C1FA28
:1017000007464FF066325E4B02F044FA054602F09F
:10171000CBFA594948615949888902F0ADFA8146A6
:101720004FF08B4102F0F6F9044602F0AAFA0746A0
:101730004FF06632524B02F02DFA054602F0B4FA31
:101740004D4988614D49C88902F096FA81464FF0AB
:101750008B4102F0DFF9044602F093FA07464FF09E
:101760006632474B02F016FA054602F09DFA4249EE
:10177000C8614249088A02F07FFA81464FF08B41E6
:1017800002F0C8F9044602F07CFA07464FF06632D0
:101790003B4B02F0FFF9054602F086FA3649086233
:1017A000FFF70EFAFFF7C7F9FFF7DCF9FFF74DFA7D
:1017B000314948694FF07E5102F092FA05D241F664
:1017C0009C0030490880304908802B49C8684FF098
:1017D0007E5102F085FA05D241F69C002B49088023
:1017E0002B49088001212B4801F06FFF70B122497D
:1017F00048684FF07E5102F073FA07D21E49C8695B
:101800004FF07E5102F06CFA00D200E0E5E600BF36
:101810000021214801F09CFCFFF72EFABDE8F0877B
:1018200070B50446002503E0FFF759FC681CC5B2FB
:10183000A542F9DB70BD70B50446002503E0FFF753
:1018400021FB681CC5B2A542F9DB70BD70B504462A
:10185000002503E0FFF784FD681CC5B2A542F9DB53
:1018600070BD70B50446002503E0FFF79FFE681CBD
:10187000C5B2A542F9DB70BD64000020580000200D
:1018800066660A40040000200000002006000020D8
:101890000200002000100040000800400CB50020AD
:1018A000019000906B48006840F4803069490860FE
:1018B00000BF6848006800F4003000900198401CA8
:1018C0000190009818B90198B0F5A06FF1D1614866
:1018D000006810F4003F02D00120009001E00020D9
:1018E00000900098012842D15B48006840F0100049
:1018F000594908600846006820F00300086008465F
:10190000006840F002000860524840685149486051
:101910000846406848600846406840F48060486077
:101920000846406820F47C1048600846406840F44F
:10193000E81048600846006840F08070086000BF0A
:101940004448006810F0007FFAD04248406820F018
:101950000300404948600846406840F00200486083
:1019600000BF3C48406800F00C000828F9D10CBDCD
:1019700010B5FFF793FF10BD10B53648006840F072
:10198000010034490860084640683449084031493C
:10199000486008460068324908402E4908600846F9
:1019A000006820F4802008600846406820F4FE00AB
:1019B00048604FF41F008860FFF7DAFF4FF00060C7
:1019C0002849086010BD10B5002100200022214BDD
:1019D0005B6803F00C0121B1042906D0082928D145
:1019E00007E0214B214C236027E01F4B1F4C236055
:1019F00023E0184B5B6803F47010164B5B6803F42C
:101A00008032022303EB904022B9194B4343174C19
:101A100023600DE00F4B5B6813F4003F04D0144BC0
:101A20004343124C236003E00F4B43430F4C2360AE
:101A300003E00D4B0D4C236000BF00BF054B5B68FE
:101A4000C3F303130B4CE15C084B1B68CB40074C02
:101A5000236010BD00100240002002400000FFF88B
:101A6000FFFFF6FE08ED00E000127A0028000020DB
:101A700000093D002C00002031490143314A11602A
:101A8000704770B5002100230F22C4780CB32D4C91
:101A9000246804F4E064C4F5E064210AC1F104039D
:101AA000CA40447804FA03F18478144021430901C0
:101AB000254C0678A155047804F01F050124AC409C
:101AC00005786D114FF0E02606EB8505C5F800415D
:101AD00009E0047804F01F050124AC401B4D067892
:101AE000761145F8264070BD194A0A400243154B4D
:101AF0001B1F1A60704739B1124A121D1268024347
:101B0000104B1B1D1A6006E00E4A121D126882431C
:101B10000C4B1B1D1A607047042808D14FF0E021C0
:101B2000096941F004014FF0E022116107E04FF034
:101B3000E021096921F004014FF0E02211617047B2
:101B40000000FA050CED00E000E400E080E100E0B8
:101B500080FFFF1F10B50446FA48844208D10121D6
:101B6000401500F077FE0021601500F073FE17E0CD
:101B7000F548844208D10121001500F06BFE0021D8
:101B8000201500F067FE0BE0F048844208D10121E7
:101B9000C80300F05FFE00214FF4004000F05AFE41
:101BA00010BD30B50246002000235068E84C2040AC
:101BB0000D790C6844EA0524204350609068E54C98
:101BC0002040D1E902542C434D7944EA4504204396
:101BD0009060D06A20F470000C7C641EE4B2234351
:101BE00040EA0350D06230BD0021016001714171B3
:101BF0008160C16001210174704721B1826842F0A7
:101C00000102826003E0826822F001028260704774
:101C100021B1826842F48072826003E0826822F41B
:101C200080728260704710B50023CBB21AB144684D
:101C30001C43446002E044689C43446010BD8168DA
:101C400041F0080181607047014600208A6812F067
:101C5000080F01D0012000E000207047816841F0AA
:101C6000040181607047014600208A6812F0040F69
:101C700001D0012000E00020704721B1826842F4C9
:101C8000A002826003E0826822F4A00282607047B2
:101C9000014600208A6812F4800F01D0012000E084
:101CA0000020704710B50A4600210023416821F446
:101CB0006041531E41EA4331416010BD21B1426889
:101CC00042F40062426003E0426822F40062426033
:101CD0007047F0B504460D4600200021092D11DDA6
:101CE000E068A5F10A0606EB4607072606FA07F1A3
:101CF0008843A5F10A0606EB460603FA06F10843F7
:101D0000E0600CE0206905EB4507072606FA07F1BD
:101D1000884305EB450603FA06F108432061072ACC
:101D20000FDA606B561E06EB86071F2606FA07F1D0
:101D30008843561E06EB860605FA06F108436063E3
:101D400022E00D2A0FDA206BD61F06EB86071F262E
:101D500006FA07F18843D61F06EB860605FA06F158
:101D60000843206310E0E06AA2F10D0606EB860747
:101D70001F2606FA07F18843A2F10D0606EB860638
:101D800005FA06F10843E062F0BD21B1826842F431
:101D90008012826003E0826822F4801282607047C1
:101DA0000146C86C80B2704766484C300068704786
:101DB00021B1426842F48062426003E0426822F44A
:101DC00080624260704721B1426842F480524260B2
:101DD00003E0426822F48052426070470A460021C4
:101DE000816821F4E04111438160704721B182682C
:101DF00042F40042826003E0826822F40042826082
:101E0000704721B1826842F40212826003E0826866
:101E100022F4021282607047014600208A6812F4A0
:101E2000001F01D0012000E000207047F0B50446FB
:101E30001546002000220026092911DDE068A1F1E5
:101E40000A0707EB470C072707FA0CF29043A1F1AA
:101E50000A0707EB470703FA07F21043E0600CE0BC
:101E6000206901EB410C072707FA0CF2904301EBC4
:101E7000410703FA07F210432061A06BC0F301563B
:101E8000EF1C06F1010CA7EB0C0707EB870C1F27D3
:101E900007FA0CF29043EF1C06F1010CA7EB0C07BC
:101EA00007EB870701FA07F21043A063F0BD10B5F6
:101EB0000A4600210023816B21F44011531E41EAA0
:101EC0000351816310BD08B5002300930090009B6F
:101ED0000B440093009B1A6008BD08B50246002021
:101EE0000090009201F12800009B18440090009897
:101EF000006880B208BD0A4600214168164B1940AF
:101F00001143416070474162826270470A46002176
:101F1000416821F01F0111434160704740B10949F8
:101F20000831096841F40001064A0832116007E0EF
:101F300004490831096821F40001024A083211609D
:101F4000704700000024014000280140003C01408F
:101F5000FFFEF0FFFDF7F1FFFFFD3FFF024600200F
:101F600013680B4201D0012000E000207047CA43F3
:101F70000260704770B502460020002300240B1257
:101F80005568CEB205EA060415681D4202D00CB1B0
:101F9000012000E0002070BD00220A12D34303603C
:101FA0007047000001684FF6FE7211400160002189
:101FB000016041608160C1608C49884208D18B49D1
:101FC0000839496841F00F01884A083A51608AE0AF
:101FD00086491431884208D184490839496841F05A
:101FE000F001824A083A51607DE0804928318842F8
:101FF00008D17E490839496841F470617B4A083A42
:10200000516070E079493C31884208D177490839FC
:10201000496841F47041754A083A516063E0734978
:102020005031884208D171490839496841F470211A
:102030006E4A083A516056E06C496431884208D1D2
:102040006A490839496841F47001684A083A5160A0
:1020500049E066497831884208D1644908394968BD
:1020600041F07061614A083A51603CE06049884241
:1020700006D1011F096841F00F01021F116032E013
:102080005B491431884208D15949091F096841F058
:10209000F001574A121F116025E055492831884246
:1020A00008D15349091F096841F47061504A121F51
:1020B000116018E04E493C31884208D14C49091F53
:1020C000096841F470414A4A121F11600BE0484907
:1020D0005031884207D14649091F096841F47021EF
:1020E000434A121F1160704710B50022026847F67C
:1020F000F0739A430C6A8B6823430C6923434C6941
:1021000023438C692343CC6923434C6A23438C6A61
:1021100023431A430260CB6843600B6883604B68BB
:10212000C36010BD0021016041608160C160016138
:1021300041618161C161016241628162704721B187
:10214000026842F00102026004E002684FF6FE738A
:102150001A40026070471AB103680B43036002E043
:1021600003688B43036070474160704701464868CD
:1021700080B2704701460020002211F0805F03D03A
:102180001B4B083B1A6802E0184B083B1A680A42CE
:1021900001D0012000E00020704710F0805F03D0E4
:1021A0001349091F086002E0104908394860704768
:1021B00001460020002211F0805F03D00C4B083B49
:1021C0001A6802E0094B083B1A680A4201D0012054
:1021D00000E00020704710F0805F03D00449091F21
:1021E000086002E001490839486070470800024071
:1021F0000804024010B50446CA48844208D10121AF
:10220000042000F027FB0021042000F023FB46E01F
:10221000C548844208D10121082000F01BFB0021A1
:10222000082000F017FB3AE0C048844208D10121A1
:10223000102000F00FFB0021102000F00BFB2EE01F
:10224000BB48844208D10121202000F003FB00217B
:10225000202000F0FFFA22E0B648844208D1012194
:10226000402000F0F7FA0021402000F0F3FA16E0D9
:10227000B148844208D10121802000F0EBFA00210E
:10228000802000F0E7FA0AE0AC48844207D101213F
:10229000801500F0DFFA0021A01500F0DBFA10BD78
:1022A00010B50121084600F0D5FA0021012000F008
:1022B000D1FA10BD2DE9F04102460025002600208C
:1022C00000230024002791F803C00CF00F0591F8BB
:1022D00003C01CF0100F03D091F802C04CEA0505B2
:1022E00091F800C0BCF1000F31D0146800202BE041
:1022F0004FF0010C0CFA00F3B1F800C00CEA030631
:102300009E4220D183004FF00F0C0CFA03F7BC4320
:1023100005FA03FC4CEA040491F803C0BCF1280F51
:1023200006D14FF0010C0CFA00FCC2F814C00AE010
:1023300091F803C0BCF1480F05D14FF0010C0CFA25
:1023400000FCC2F810C0401C0828D1D31460B1F8BA
:1023500000C0BCF1FF0F34DD546800202EE000F116
:10236000080C4FF0010808FA0CF3B1F800C00CEAB1
:1023700003069E4221D183004FF00F0C0CFA03F7A5
:10238000BC4305FA03FC4CEA040491F803C0BCF119
:10239000280F05D100F1080C08FA0CF8C2F81480D7
:1023A00091F803C0BCF1480F07D100F1080C4FF0C1
:1023B000010808FA0CF8C2F81080401C0828CED397
:1023C0005460BDE8F0814FF6FF71018002218170F9
:1023D0000421C17070470246002093680B4201D06F
:1023E000012000E0002070470146886880B27047F5
:1023F00002460020D3680B4201D0012000E00020FB
:1024000070470146C86880B27047016170474161FA
:1024100070470AB1016100E041617047C1607047D7
:102420004FF480320A4382618161826182698269EC
:10243000704702460020424B18684FF680731840E0
:1024400040EA021008433E4B186070473D49C8619E
:102450007047F0B50A46002300240021002500F053
:102460000046B6F1004F02D1354EF16901E0344E1D
:102470007168C0F3034583B200F44016B6F5401FFF
:1024800008D121F070612E4E766826F070662C4FD0
:102490007E6012E000F48016B6F5801F06D1032698
:1024A00006FA05F4A14341F0706106E0460D3601DD
:1024B00003FA06F6B14341F0706122B1460D3601D0
:1024C00003FA06F6314300F00046B6F1004F02D1A0
:1024D0001B4EF16101E01A4E7160F0BD30B5002273
:1024E0008B071C0F0F2303FA04F2154B08338C10D3
:1024F00053F824309343124C08348D1044F825309F
:1025000023468C1053F824308C07240F00FA04F46F
:1025100023430B4C08348D1044F8253030BD0A4954
:102520000860704700080140000C014000100140A5
:102530000014014000180140001C0140002001402F
:102540000000014000002042DC002042DD4800681D
:1025500040F00100DB49086008464068DA4908405D
:10256000D849486008460068D8490840D5490860FD
:102570000846006820F4802008600846406820F47F
:10258000FE0048604FF41F0088607047CD4909681D
:1025900021F48031CB4A11601146096821F4802171
:1025A0001160B0F5803F03D0B0F5802F0ED106E06A
:1025B000C449096841F48031C24A116007E0C14949
:1025C000096841F4A021BF4A116000E000BF00BFCC
:1025D000704710B501460022002300204A11012A4D
:1025E00002D1B84C236806E0022A02D1B54C236A16
:1025F00001E0B44C636A01F01F02012494401C42C4
:1026000001D0012000E0002010BD38B5002000906E
:102610000024002500BF3120FFF7DBFF05460098AE
:10262000401C00900098B0F5A06F01D0002DF2D0B2
:102630003120FFF7CEFF08B1012400E0002420463E
:1026400038BD014600209F4A106820F0F80040EA9B
:10265000C100106070479E49086070470246002024
:10266000984B586820F47C1042EA01031843954BBC
:102670005860704796490866704701460020914AA5
:10268000506820F003000843506070478D48406850
:1026900000F00C007047014600208A4A506820F084
:1026A000F00008435060704701460020854A50689A
:1026B00020F4E06008435060704701460020814AE2
:1026C000506820F4605040EAC1005060704729B162
:1026D0007C4A527A02437B4B5A7204E0794A527A1E
:1026E0008243784B5A7270477A49086070470146B6
:1026F0000020744A506820F44040084350607047FE
:102700000021754A11706F4A82F82010012802D00A
:10271000042808D103E001216F4A117004E005216B
:102720006D4A117000E000BF00BF70476B49086040
:1027300070476449096A0143624A116270476749F8
:1027400044390860704730B500210022002400237E
:102750005C4D6D6805F00C0121B1042905D00829F4
:1027600023D105E05E4D056022E05D4D05601FE070
:10277000544D6D6805F47012524D6D6805F4803447
:10278000022505EB92421CB9564D554305600BE0FE
:102790004C4D6D6815F4003F03D0524D5543056014
:1027A00002E04F4D5543056002E04D4D056000BF0E
:1027B00000BF444D6D6805F0F00109094A4D6B5C9E
:1027C0000568DD4045603F4D6D6805F4E061090A2C
:1027D000454D6B5C4568DD4085603A4D6D6805F49C
:1027E0006051C90A404D6B5C4568DD40C560354DA0
:1027F0006D6805F44041890B3C4D6B5CC568B5FBC9
:10280000F3F5056130BD29B12E4A526902432D4BC3
:102810005A6104E02B4A526982432A4B5A6170473D
:1028200029B1284A92690243264B9A6104E0254A5D
:1028300092698243234B9A61704729B1214AD26938
:102840000243204BDA6104E01E4AD26982431D4BE9
:10285000DA61704729B11B4AD2680243194BDA602A
:1028600004E0184AD2688243164BDA60704729B1F7
:10287000144A12690243134B1A6104E0114A1269A7
:102880008243104B1A617047144940390860704701
:102890000F49C86470470B49C87170470948406ABE
:1028A00040F0807007494862704701460020054AA1
:1028B00092680A4201D0012000E0002070470149DF
:1028C00088727047001002400000FFF8FFFFF6FE1C
:1028D00000004242D800424220100240800442429E
:1028E00000127A0000093D003C0000204C0000204E
:1028F00010B50446FE48844208D10121C014FFF7F8
:10290000A9FF0021E014FFF7A5FFC4E0B4F1804F58
:1029100008D101210846FFF7AAFF00210120FFF797
:10292000A6FFB8E0F348844208D101210220FFF756
:102930009EFF00210220FFF79AFFACE0EE488442A0
:1029400008D101210420FFF792FF00210420FFF7A6
:102950008EFFA0E0E948844208D101210820FFF75A
:1029600086FF00210820FFF782FF94E0E4488442BC
:1029700008D101211020FFF77AFF00211020FFF776
:1029800076FF88E0DF48844208D101212020FFF74C
:102990006EFF00212020FFF76AFF7CE0DA488442C6
:1029A00008D101214014FFF755FF00216014FFF703
:1029B00051FF70E0D548844209D10121C804FFF7D6
:1029C00049FF00214FF40020FFF744FF63E0D048A7
:1029D000844209D101210805FFF73CFF00214FF493
:1029E0008010FFF737FF56E0CA48844209D1012121
:1029F0004805FFF72FFF00214FF40010FFF72AFFD3
:102A000049E0C548844208D101214020FFF72FFF4B
:102A100000214020FFF72BFF3DE0C048844208D151
:102A200001218020FFF723FF00218020FFF71FFFF7
:102A300031E0BB48844208D101218015FFF717FF20
:102A40000021A015FFF713FF25E0B648844209D105
:102A500001210804FFF7FEFE00214FF48030FFF74C
:102A6000F9FE18E0B048844209D101214804FFF77B
:102A7000F1FE00214FF40030FFF7ECFE0BE0AB4815
:102A8000844208D101218804FFF7E4FE00214FF4BD
:102A90008020FFF7DFFE10BD00220288944B984291
:102AA0000ED0994B98420BD0B0F1804F08D0914B8B
:102AB000984205D0904B984202D0904B984204D156
:102AC0004FF68F731A404B881A438D4B984207D0AC
:102AD0008C4B984204D04FF6FF431A40CB881A43E0
:102AE00002808B8883850B880385814B98420BD0AD
:102AF000854B984208D08B4B984205D08A4B984220
:102B000002D08A4B984201D10B7A0386012383823B
:102B1000704770B5002400220023058C4FF6FE7626
:102B200035400584028C8388048B4FF68F752C40CA
:102B3000B51E2C400D882C43751E2A400D892A4352
:102B40004D882A436A4DA8420BD06F4DA84208D049
:102B5000744DA84205D0744DA84202D0734DA842CE
:102B600013D14FF6F7752A404D892A434FF6FB756E
:102B70002A408D882A434FF6FF652B404FF6FF55BC
:102B80002B408D892B43CD892B4383800483CD88B3
:102B90008586028470BD70B5002400220023058C58
:102BA0004FF6EF7635400584028C8388048B48F617
:102BB000FF752C404FF6FF452C400D884FF6FF76F1
:102BC00006EA05252C434FF6DF752A400D8906EAF3
:102BD00005152A434D8806EA05152A43444DA842A7
:102BE00002D0494DA8421DD14FF67F752A404D892C
:102BF0004FF6FF7606EA05152A434FF6BF752A40C1
:102C00008D8806EA05152A434FF6FF352B404FF213
:102C1000FF752B408D8906EA85052B43CD8906EA91
:102C200085052B4383800483CD880587028470BD8E
:102C300070B5002400220023058C4FF6FF66354056
:102C40000584028C8388848B4FF68F752C404FF659
:102C5000FC752C400D882C434FF6FF552A400D89FA
:102C60004FF6FF7606EA05252A434D8806EA052534
:102C70002A431F4DA84202D0234DA8421DD14FF236
:102C8000FF752A404D894FF6FF7606EA05252A434F
:102C90004FF6FF352A408D8806EA05252A434EF671
:102CA000FF752B404DF6FF752B408D8906EA051503
:102CB0002B43CD8906EA05152B4383808483CD8879
:102CC0008587028470BD70B5002200230024058C26
:102CD0004EF6FF7635400584038C8488828B48F657
:102CE000FF752A404FF6FF452A400D8820E000007E
:102CF000002C01400004004000080040000C00408F
:102D0000001000400014004000340140004C01401D
:102D1000005001400054014000180040001C0040D9
:102D200000200040004001400044014000480140B4
:102D30004FF6FF7606EA05252A434DF6FF752B4030
:102D40000D8906EA05352B434D8806EA05352B43E8
:102D5000FA4DA84202D0FA4DA84208D14BF6FF75B1
:102D60002C408D894FF6FF7606EA85152C4384802A
:102D70008283CD88A0F84050038470BD828B4FF2CF
:102D8000FF331A408283828B4FF6FF7303EA0123DD
:102D90001A4382837047F0B50C4615460022002185
:102DA0000026078C4EF6FF7C07EA0C070784828B0F
:102DB000018C4FF6FF7707EA043640F6FF473A40AA
:102DC0004FF6FF7707EA05273A434FF6FF7707EA02
:102DD00003373A43D94FB8420ED0D94FB8420BD03F
:102DE000B0F1804F08D0D74FB84205D0D64FB84287
:102DF00002D0D64FB84206D14DF6FF77394046F49F
:102E00008057394305E047F6FF57394044F480576F
:102E1000394382830184F0BD828B4FF6F3731A40ED
:102E20008283828B0A4382837047F0B50C46154635
:102E3000002200210026078C4FF6FF6C07EA0C07E2
:102E40000784828B018C4FF6FF7707EA04264FF642
:102E50000C773A404FF6FF7707EA03172F433A43C0
:102E6000B64FB8420ED0B64FB8420BD0B0F1804F3B
:102E700008D0B44FB84205D0B34FB84202D0B34FD8
:102E8000B84206D14FF6FF57394046F480773943B0
:102E900005E04FF2FF57394044F48077394382838D
:102EA0000184F0BD028B4FF2FF331A400283028B84
:102EB0004FF6FF7303EA01231A4302837047F0B50C
:102EC0000C461546002200210026078C4FF6EF7CA9
:102ED00007EA0C070784028B018C4FF6FF7707EA9D
:102EE000041640F6FF473A404FF6FF7707EA0337EC
:102EF0003A434FF6FF7707EA05273A438F4FB84228
:102F00000ED08F4FB8420BD0B0F1804F08D08D4F0C
:102F1000B84205D08C4FB84202D08C4FB84206D18F
:102F20004FF6DF77394046F01007394305E04FF69A
:102F30005F77394044F01007394302830184F0BDC4
:102F4000028B4FF6F3731A400283028B0A4302830B
:102F50007047F0B50C46154600220021068C4FF64E
:102F6000FE773E400684028B018C4FF60C76324091
:102F70007E1C06EA03162E433243704EB0420ED03A
:102F80006F4EB0420BD0B0F1804F08D06D4EB042C2
:102F900005D06D4EB04202D06C4EB04206D14FF615
:102FA000FD76314044F00106314305E04FF6F576F9
:102FB000314044F00106314302830184F0BD70B515
:102FC00005460C465D4885420ED05D4885420BD0D3
:102FD000B5F1804F08D05B48854205D05A488542FC
:102FE00002D05A48854200D100E000BF208850B985
:102FF0002389A28861882846FFF7ABFFE18828462D
:10300000FFF79EFF25E0208804280AD12389A288A3
:1030100061882846FFF753FFE1882846FFF742FF03
:1030200017E0208808280AD12389A28861882846C9
:10303000FFF7FBFEE1882846FFF7EEFE09E0238953
:10304000A28861882846FFF7A6FEE1882846FFF798
:1030500095FE70BD2DE9F04105460C46002601277E
:10306000608808B9022600E00026A088012801D166
:10307000022700E001272088A0B92389A28861885F
:103080002846FFF766FFE1882846FFF759FF2389A6
:103090003A4631462846FFF712FFE1882846FFF7F7
:1030A00001FF13E02389A28861882846FFF707FF04
:1030B000E1882846FFF7F6FE23893A46314628463E
:1030C000FFF747FFE1882846FFF73AFFBDE8F081A8
:1030D0000A884B881A438B881A43CB881A430B897A
:1030E0001A434B891A438B891A43A0F8442070472E
:1030F0004FF6FF71818000210180C1804180017203
:1031000070470021018041808180C180018141811F
:103110008181C1817047002101804180012181802E
:103120000021C180018170470021018041808180A0
:10313000C18001814181818170470000002C0140E4
:10314000003401400004004000080040000C004032
:1031500021B1028842F00102028004E002884FF6A9
:10316000FE731A400280704731B1B0F8442042F437
:103170000042A0F8442005E0B0F84420C2F30E025B
:10318000A0F8442070471AB183890B43838102E081
:1031900083898B43838170478182704741EA0203B0
:1031A000A0F8483070471AB183890B43838102E04D
:1031B00083898B438381704701894FF6F8721140F0
:1031C000018170470A46002101894FF68F7319402B
:1031D00011430181704730B504460D46294620460B
:1031E000FFF7F0FF208940F00700208130BD2DE976
:1031F000F04104460D4616461F46602D06D13B465B
:10320000012231462046FFF75AFE05E03B460122E7
:1032100031462046FFF79DFE29462046FFF7D2FFA4
:10322000208940F007002081BDE8F08130B50C46D0
:1032300000210189C9B24FF6FF7505EA0325154340
:1032400025432943018130BD2DE9F04105460E4655
:1032500017469846002443463A4631462846FFF72B
:10326000E5FF2C894FF6F870044044F007044FF650
:103270008F70044044F070042C81BDE8F081F0B5FB
:1032800004460D4616461F463B4632462946204612
:10329000FFF7CCFF208940F480402081F0BD0185FC
:1032A000828270470A46002101884FF68F731940C9
:1032B000114301807047F0B50C4615461E460021AB
:1032C000002200230189028B038C4FF6F8773940E6
:1032D00021434FF6FC473A4040F201173A434FF67C
:1032E000DD773B404FF6FF7707EA06172F433B4356
:1032F000018102830384F0BD0A460021018B4FF651
:103300008F7319401143018370470A460021018BD6
:1033100048F6FF7319404FF6FF7303EA022319437F
:10332000018370470A460021818B4FF68F73194045
:103330001143818370470A460021818B48F6FF7351
:1033400019404FF6FF7303EA022319438183704744
:1033500021B1028842F08002028004E002884FF628
:103360007F731A400280704721B1828842F00402C4
:10337000828004E082884FF6FB731A408280704797
:1033800021B1828842F00802828004E082884FF6F0
:10339000F7731A408280704721B1828842F001029F
:1033A000828004E082884FF6FE731A408280704764
:1033B0000A460021018B4FF6F77319401143018330
:1033C00070470A460021018B4FF2FF7319404FF6F8
:1033D000FF7303EA02231943018370470A46002161
:1033E000818B4FF6F77319401143818370470A466A
:1033F0000021818B4FF2FF7319404FF6FF7303EAF0
:1034000002231943818370470A460021018B4FF63E
:10341000FB7319401143018370470A460021018B59
:103420004FF6FF3319404FF6FF7303EA02231943A7
:10343000018370470A460021818B4FF6FB731940C8
:103440001143818370470A460021818B4FF6FF3379
:1034500019404FF6FF7303EA022319438183704733
:103460000A460021018B4FF67F73194011430183F7
:1034700070470A460021018BC1F30E014FF6FF731E
:1034800003EA02231943018370470A460021818B16
:103490004FF67F7319401143818370470A4600211C
:1034A000818BC1F30E014FF6FF7303EA0223194328
:1034B000818370470A460021018C4FF6FD73194045
:1034C0001143018470470A460021018C4FF6F773BF
:1034D00019401143018470470A460021018C4FF6C0
:1034E000DF7319404FF6FF7303EA02131943018497
:1034F00070470A460021018C4FF67F7319404FF642
:10350000FF7303EA02131943018470470A4600213E
:10351000018C4FF6FF5319404FF6FF7303EA022365
:103520001943018470470A460021018C4FF2FF7352
:1035300019404FF6FF7303EA0223194301847047D1
:103540000A460021018C4DF6FF7319404FF6FF73B8
:1035500003EA023319430184704730B50023012484
:103560008C40A3B2048C9C430484048C02FA01F5C1
:10357000ADB22C43048430BD30B5002304248C400C
:10358000A3B2048C9C430484048C02FA01F5ADB20E
:103590002C43048430BD70B5034600200024184637
:1035A000183001258D40ACB21D8CA5431D8409B196
:1035B000082909D100EB6100056825F07005056058
:1035C0000568154305600EE00D1FC5F34E05284440
:1035D000056825F4E045056005684FF6FF7606EAC4
:1035E00002263543056070BD21B1028842F0020217
:1035F000028004E002884FF6FD731A400280704793
:1036000021B1028842F00402028004E002884FF6F1
:10361000FB731A400280704721B1828842F0800219
:10362000828004E082884FF67F731A408280704760
:1036300002884FF6F7731A40028002880A4302801C
:10364000704782884FF68F731A40828082880A43BF
:103650008280704702894FF6F8731A40028102890E
:103660000A430281704702894FF67F731A40028134
:1036700002890A43028170478184704781857047BF
:10368000818670470187704781877047A0F8401096
:10369000704702884FF6FF431A40028002880A43AF
:1036A000028070470146888E70470146088F704738
:1036B0000146888F70470146B1F8400070470146C7
:1036C000888C70470146088D704702460020138A97
:1036D0000B4201D0012000E000207047CA43028263
:1036E000704730B50246002000230024158A05EA01
:1036F0000103958905EA010413B10CB1012000E032
:10370000002030BDCA4302827047000010B5044655
:10371000FB48844209D101218803FFF79BF800216F
:103720004FF48040FFF796F832E0F648844209D122
:1037300001214804FFF79BF800214FF40030FFF708
:1037400096F825E0F048844209D101218804FFF76A
:103750008EF800214FF48020FFF789F818E0EB483D
:10376000844209D10121C804FFF781F800214FF4F8
:103770000020FFF77CF80BE0E548844208D10121E6
:103780000805FFF774F800214FF48010FFF76FF879
:1037900010BD2DE9F04786B005460E460024A2462E
:1037A00000BFA1460027B08900B100BF2F462C8A78
:1037B0004CF6FF700440F08804432C82AC894EF62E
:1037C000F3100440B08831890843718908430443E9
:1037D000AC81AC8A4FF6FF400440B0890443AC8210
:1037E00001A8FEF7B0FFC648874202D1DDF810A05D
:1037F00001E0DDF80CA0A88910F4004F08D00AEB16
:10380000CA0000EB0A1031684900B0FBF1F807E08C
:103810000AEBCA0000EB0A1031688900B0FBF1F82E
:103820006420B8FBF0F004012009642101FB108939
:10383000A88910F4004F08D0322000EBC900B0FB7B
:10384000F1F000F00700044308E0322000EB09101B
:103850006421B0FBF1F000F00F0004432C8106B0AE
:10386000BDE8F0874FF41651016000218180C180CE
:1038700001810C21418100218181704710B50246F0
:103880000020108A4FF2FF0318400B884C88234316
:103890008C882343CC8823431843108210BD002119
:1038A000018041808180C180704721B1828942F4CA
:1038B0000052828104E082894DF6FF731A408281B2
:1038C0007047F0B503460024002600250020A1F52E
:1038D00010676A3F00D100BF1846C1F3421401F0DF
:1038E0001F06012707FA06F5012C01D10C3004E070
:1038F000022C01D1103000E014301AB107682F43B8
:10390000076002E00768AF430760F0BD1AB1838A21
:103910000B43838202E0838A8B4383827047028A4F
:103920004FF6F0731A400282028A0A4302827047FD
:1039300082894FF2FF731A40828182890A43828111
:10394000704721B1828942F00202828104E08289BB
:103950004FF6FD731A4082817047028A4FF6DF737B
:103960001A400282028A0A430282704721B1028A07
:1039700042F48042028204E0028A4BF6FF731A404E
:1039800002827047C1F3080282807047014688882E
:10399000C0F308007047818941F0010181817047BF
:1039A000028BD2B20283028B42EA01220283704769
:1039B000028B02F47F420283028B0A430283704728
:1039C00021B1828A42F02002828204E0828A4FF68C
:1039D000DF731A408282704721B1828A42F010025E
:1039E000828204E0828A4FF6EF731A408282704727
:1039F00021B1828A42F00802828204E0828A4FF674
:103A0000F7731A408282704721B1828942F40042E2
:103A1000828103E08289C2F30E028281704721B164
:103A2000828A42F40062828204E0828A4FF2FF734B
:103A30001A4082827047828A4FF6FB731A40828254
:103A4000828A0A438282704721B1828A42F002024E
:103A5000828204E0828A4FF6FD731A4082827047A8
:103A600002460020B1F5007F00D100BF13880B4251
:103A700001D0012000E00020704701F40072B2F58F
:103A8000007F00D100BFCA430280704770B5024674
:103A90000024002300250020A1F510666A3E00D115
:103AA00000BFC1F3421501F01F03012606FA03F31C
:103AB000012D02D19689334006E0022D02D1168AEB
:103AC000334001E0968A33400C12012606FA04F4D2
:103AD0001688344013B10CB1012000E0002070BD05
:103AE00010B500220023A1F510646A3C00D100BF8C
:103AF0000A1201249440A3B2DC43048010BD0000EC
:103B0000003801400044004000480040004C0040A4
:103B10000050004030B480EA010202F0004530F06D
:103B2000004221F0004015D0A0B1C0F3C753C2F34A
:103B3000C754C2F31601C0F31600E41A41F40001A1
:103B400040F400027D34914201D3641C00E049003E
:103B5000002C02DA30BC002070474FF40000002334
:103B6000914201D3891A034340084FEA4101F7D13A
:103B700051B1914202D14FF0004105E002D24FF025
:103B8000010101E06FF0010103EBC450284430BC97
:103B900000F0C6B82DE9FE4F81EA030404F00044AA
:103BA00021F0004100944FF0000B23F0004350EA55
:103BB000010402D052EA030404D10020014603B0FC
:103BC000BDE8F08FC3F30A54C1F30A552C44A4F2A4
:103BD000F3340194A0FB0254C1F3130141F48011AA
:103BE000C3F3130343F4801301FB024400FB034EB1
:103BF000840A970A44EA815447EA8357A4FB07687A
:103C000002958D0A05FB07854FEA932C04FB0C54A3
:103C10002705029D4FEA065847EA1637B5EB080517
:103C20006EEB070C870E920E47EA811742EA831269
:103C3000A7FB0201B6EB0B0164EB00042B0D43EA7A
:103C40000C335E1844EB1C50DA465146E7FB020188
:103C5000C5F313044FEA0B3343EA14534FEA04321B
:103C6000019C43EA0603A4F10C040294009CCDE9F4
:103C700000B400F098F8A2E796230022114600F065
:103C800058B800F0004230F000400AD0C10D01F5F4
:103C90006071C0F3160042EA0151C20840071143A7
:103CA000704700200146704701F0004330B421F016
:103CB000004150EA010206D00A0DA2F56072C1F37C
:103CC0001301002A02DC30BC00207047440F44EA94
:103CD000C104C100E01830BC00EBC25000F020B8B5
:103CE000002801DBC0F10040002901DBC1F10041E7
:103CF0008842704730B50B4601460020202201243F
:103D000009E021FA02F59D4205D303FA02F5491BA9
:103D100004FA02F52844151EA2F10102F1DC30BDBF
:103D20000029A8BF7047401C490008BF20F00100CF
:103D3000704710B4B0FA80FC00FA0CF050EA0104AD
:103D400004BF10BC704749B1CCF1200421FA04F43F
:103D500011FA0CF118BF012121430843A3EB0C0118
:103D6000CB1D0106000A002BBEBF002010BC70470F
:103D700000EBC35010440029A4BF10BC7047401C86
:103D8000490008BF20F0010010BC704710B5002B9F
:103D900008DA401C41F1000192185B411A4301D13D
:103DA00020F0010010BD2DE9F04D92469B4611B167
:103DB000B1FA81F202E0B0FA80F22032904600F0CF
:103DC00057F804460F4640EA0A0041EA0B01534601
:103DD0005A46084303D120463946BDE8F08D1146C6
:103DE00053EA010015D0C8F14002504600F04FF8E8
:103DF00005460E4650465946424600F039F80843FB
:103E000001D0012000E00020054346EAE0762C4383
:103E100037430A984FEA4453A0EB08004FEAD424F2
:103E20000A304FF0000244EA47544FEAD72502D542
:103E300000200146D1E7010510196941DDE9084577
:103E400000196941BDE8F04DA0E70000064C074DA0
:103E500006E0E06840F0010394E80700984710345A
:103E6000AC42F6D3FCF768F9AC400008CC4000083F
:103E7000202A04DB203A00FA02F10020704791402A
:103E8000C2F1200320FA03F3194390407047202A1F
:103E900004DB203A21FA02F00021704721FA02F3F4
:103EA000D040C2F1200291400843194670470000FB
:103EB0000FB4054B10B503A9044A029800F018F896
:103EC00010BC5DF814FB0000090700085400002036
:103ED00002E008C8121F08C1002AFAD170477047D3
:103EE000002001E001C1121F002AFBD17047000031
:103EF0002DE9FF4F8BB09A460F4605460026C9E0D4
:103F0000252837D100246D1C6649A04601222B7854
:103F1000203B02FA03F0084202D004436D1CF6E78E
:103F200028782E2817D115F8010F44F004042A2808
:103F30000ED06FF02F022878A0F1300109290AD89D
:103F400008EB880102EB410100EB01086D1CF2E770
:103F500057F8048B6D1C287869283FD006DC0028B0
:103F600071D063280CD0642804D137E0732811D0B5
:103F700075284ED052460D99904706F1010688E00B
:103F800017F8040B8DF8000000208DF80100E946B9
:103F9000012003E057F8049B4FF0FF3061074FF01A
:103FA000000401D40AE0641C44450DDA8442FADBC3
:103FB00019F804100029F6D106E0641C8442FCDBE9
:103FC00019F804100029F8D1264404E019F8010B6F
:103FD00052460D999047641EF8D25AE001CF4FF037
:103FE0000A0B002804DAC0F100004FF02D0102E0B6
:103FF000210504D52B218DF82410012103E0E107D0
:1040000005D02021F7E70DF1200908910CE00021EF
:10401000F9E701CF4FF00A0BF9E75946FFF76AFEBF
:1040200001F1300209F8012D0028F6D1ADEB0900AD
:1040300000F1200B600701D44FF00108D84503DDE3
:10404000A8EB0B0001E029E000208046002406E0F8
:1040500009A85246005D0D999047761C641C08988B
:104060008442F5DB04E0302052460D999047761CDF
:10407000B8F10001A8F10108F5DC05E019F8010B21
:1040800052460D999047761CBBF10001ABF1010B34
:10409000F4DC6D1C287800287FF432AF0FB0304676
:1040A000BDE8F08F09280100FCF73EBBCC400008BA
:1040B0000000002058000000D03E00082441000805
:1040C0005800002028040000E03E0008A00FA00FC8
:1040D000A00FA00F00000000000000000000000082
:1040E00000000000000000000000000000000000D0
:1040F000EC5CF40100A24A04000000000000000093
:10410000010203040607080900000000010203047D
:104110000102030406070809020406080000000063
:04412000000000009B
:0400000508000145A9
:00000001FF
