:020000040800F2
:10000000A804002045010008950100089701000898
:100010009B0100089F010008A301000800000000E8
:10002000000000000000000000000000A701000820
:10003000A901000800000000AB010008AD010008A4
:100040005F0100085F0100085F0100085F01000810
:100050005F0100085F0100085F0100085F01000800
:100060005F0100085F0100085F0100085F010008F0
:100070005F0100085F0100085F0100085F010008E0
:100080005F0100085F0100085F0100085F010008D0
:100090005F0100085F0100085F0100085F010008C0
:1000A0005F0100085F0100085F0100085F010008B0
:1000B0005F0100085F0100083B0200085F010008C3
:1000C0005F0100085F0100085F0100085F01000890
:1000D0005F0100085F0100085F010008AF01000830
:1000E0005F0100085F0100085F0100085F01000870
:1000F0005F0100085F0100085F0100085F01000860
:100100005F0100085F0100085F0100085F0100084F
:100110005F0100085F0100085F0100085F0100083F
:100120005F0100085F0100085F0100085F0100082F
:10013000DFF80CD004F052FA004800477B010008B9
:10014000A80400200648804706480047FEE7FEE76F
:10015000FEE7FEE7FEE7FEE7FEE7FEE7FEE7FEE777
:10016000CD2000083101000801B502E00098401ED2
:10017000009000980028F9D108BD00F061FE00F061
:100180003CFA00F054FC00F049FF01F01DFF00BFF5
:10019000FEE70000704700BFFEE700BFFEE700BFBC
:1001A000FEE700BFFEE770477047704770472DE9D4
:1001B000F0410024002600250027EA4804F03CFB1B
:1001C000C4B2E84804F038FBC6B22146E6A004F009
:1001D00037FAA6F13000C5B2E24804F02DFBC7B2F1
:1001E0002946E3A004F02CFAA4F14100052817D217
:1001F000DFE800F003070B0F1300284601F076FD3F
:100200000FE0284601F07DFD0BE0284601F084FD5B
:1002100007E0284601F08BFD03E001F0CBFE00E093
:1002200000BF00BFBDE8F08101B502E00098401EAC
:10023000009000980028F9D108BD70B50121CE4882
:1002400003F0F6FD0221CC4803F0F5FD002860D054
:100250000221C94803F000FEC848007840B90120D7
:10026000C6490870C44803F0C7FDC549088050E07E
:10027000C248007801284CD100250020BF490870F1
:10028000BD4803F0B9FDBF490880BD480088098812
:10029000884207DABB480088B9490988401ABA4938
:1002A000088009E0B64800884FF6FF71081AB54982
:1002B00009880844B4490880B3480088B3490988CC
:1002C00088420EDDB0480088B0490988401A85B2DE
:1002D000AF48008895FBF0F0AE490988084484B225
:1002E0000DE0AA480088A8490988401A85B2A848A4
:1002F000008895FBF0F0A7490988081A84B241F2FA
:100300008830844202DDA349088001E0A1480480CE
:1003100000BF0421984803F08EFD002861D004211D
:10032000954803F099FD9C48007840B901209A490E
:100330000870914803F063FD9849088051E09648A1
:10034000007801284DD10024002500209249087032
:10035000894803F054FD9249088090480088098834
:10036000884207DA8E4800888C490988401A8D49EE
:10037000088009E0894800884FF6FF71081A88490B
:100380000988084487490880864800887F49098889
:1003900088420EDD834800887C490988401A85B26E
:1003A0007B48008895FBF0F07F490988084484B2B7
:1003B0000DE0764800887B490988401A85B2744868
:1003C000008895FBF0F078490988081A84B241F258
:1003D0008830844202DD7449088001E0724804805C
:1003E00000BF0821644803F026FD002859D00821E9
:1003F000614803F031FD6D48007840B901206B4938
:1004000008705D4803F0FEFC6949088049E06748D0
:100410000078012845D1002400206449087056481E
:1004200003F0F0FC6349088061480088098888422D
:1004300007DA604800885E490988401A5E490880EA
:1004400009E05B4800884FF6FF71081A594909888E
:10045000084459490880584800884C49098888420E
:100460000FDD5548008849490988401A84B2484838
:10047000008894FBF0F05149098808444F490880EE
:100480000EE0424800884C490988401A84B240482E
:10049000008894FBF0F049490988081A4749088008
:1004A00000BF1021344803F0C6FC002859D01021A9
:1004B000314803F0D1FC4248007840B9012040495E
:1004C00008702D4803F0A1FC3E49088049E03C48F3
:1004D0000078012845D100240020394908702648B9
:1004E00003F093FC38490880364800880988884220
:1004F00007DA3548008833490988401A33490880AB
:1005000009E0304800884FF6FF71081A2E49098823
:1005100008442E4908802D4800881C4909888842D3
:100520000FDD2A48008819490988401A84B2184802
:10053000008894FBF0F02649098808442449088083
:100540000EE01248008821490988401A84B21048F8
:10055000008894FBF0F01E490988081A1C4908809D
:1005600000BF70BD600000206469723D25630A0011
:1005700064313D25640A000000080040100000209E
:100580001400002016000020180000202C0000207D
:100590002E00002000000020110000201A00002082
:1005A0001C0000201E00002004000020120000207B
:1005B0002000002022000020240000200200002053
:1005C0001300002026000020280000202A00002020
:1005D0000600002008B54FF4A06001F0F7FD2720C9
:1005E0008DF8000001208DF801008DF802008DF8D3
:1005F0000300684601F0EFFD08BD00B585B001219C
:10060000082002F0B7FC0121880402F0C0FC4FF47E
:100610008060ADF8100018208DF8130003208DF8CD
:10062000120004A9534802F0EFF94FF40060ADF84E
:10063000100004208DF8130004A94E4802F0E4F9DC
:100640004FF4E13000900020ADF80400ADF8060052
:10065000ADF80800ADF80C000C20ADF80A006946B2
:10066000454803F040FCFFF7B5FF012240F2255159
:10067000414803F0D0FC01213F4803F0C0FC05B025
:1006800000BD70B504460D462946204603F024FD02
:1006900000BF8021204603F08DFD0028F9D070BDF9
:1006A0002DE9F04105460C46260AE7B231462846B8
:1006B00003F012FD00BF8021284603F07BFD0028D7
:1006C000F9D03946284603F007FD00BF80212846AF
:1006D00003F070FD0028F9D0BDE8F0812DE9F0416C
:1006E00007460D461646002405E0295D3846FFF70B
:1006F000C8FF601CC4B2B442F7DB00BF40213846DB
:1007000003F058FD0028F9D0BDE8F08170B5064629
:100710000C46002500BF615D3046FFF7B2FF681C44
:10072000C5B2605D0028F6D100BF4021304603F01D
:1007300041FD0028F9D070BD70B504460D46E1B208
:100740000D4803F0C9FC00BF80210B4803F032FDC7
:100750000028F9D0204670BD10B5044600BF202106
:10076000054803F027FD0028F9D0034803F0B8FC42
:1007700010BD0000000C01400048004008B50121F8
:10078000042002F0F7FB4FF47070ADF80000002079
:100790008DF803006946AC4802F036F908BD08B58B
:1007A0000121102002F0E6FB3F20ADF80000002000
:1007B0008DF803006946A54802F026F908BD08B582
:1007C0000121102002F0D6FB3020ADF800000020FF
:1007D0008DF8030069469E4802F016F908BD00B581
:1007E00091B00121022002F0B8FB0121C80302F000
:1007F000C1FB984801F080FF974806909748079002
:10080000002008900420099000200A9080200B907E
:1008100040000C9080000D9020200E9000020F9060
:100820000020109006A98B4802F008F801218948A1
:1008300002F02FF80020019001208DF808008DF8BB
:1008400009004FF4602003900020049004208DF8EC
:10085000140001A980484C3801F04DFD4FF4404090
:1008600002F0EFFA0523012204217B484C3801F005
:10087000DAFD05230222194677484C3801F0D3FDF2
:1008800005230322062174484C3801F0CCFD0523D2
:100890000422072170484C3801F0C5FD01216E4843
:1008A0004C3801F05FFD01216B484C3801F04FFDE1
:1008B00069484C3801F06DFD00BF67484C3801F0C5
:1008C0006DFD0028F9D164484C3801F071FD00BF7E
:1008D00061484C3801F071FD0028F9D101215E48D2
:1008E0004C3801F074FD11B000BD00B591B001218C
:1008F000084602F032FB0121480202F03BFB584857
:1009000001F0FAFE574806905748079000200890DB
:100910000820099000200A9080200B9040000C9045
:1009200080000D9020200E9000020F90002010906B
:1009300006A94B4801F082FF0121494801F0A9FFB7
:100940000020019001208DF808008DF809004FF477
:10095000602003900020049008208DF8140001A965
:1009600040484C3801F0C7FC4FF4404002F069FAAF
:10097000052301220A213B484C3801F054FD052390
:1009800002220B2137484C3801F04DFD052303228C
:100990000C2134484C3801F046FD052304220D217A
:1009A00030484C3801F03FFD05231A460E212D48F2
:1009B0004C3801F038FD052306220F2129484C3818
:1009C00001F031FD05230722042126484C3801F0AF
:1009D0002AFD05230822194622484C3801F023FD40
:1009E000012120484C3801F0BDFC01211D484C3844
:1009F00001F0ADFC1B484C3801F0CBFC00BF19489E
:100A00004C3801F0CBFC0028F9D116484C3801F0E5
:100A1000CFFC00BF13484C3801F0CFFC0028F9D1BF
:100A2000012110484C3801F0D2FC11B000BD10B5C6
:100A3000FFF7A4FEFFF7D3FEFFF7B1FEFFF7BFFEFF
:100A4000FFF753FF10BD0000001C014000100140E3
:100A500000080140580402404C3C01403000002096
:100A6000080002404C2401406800002008B5012124
:100A7000042002F07FFA4020ADF8000018208DF825
:100A8000030003208DF802006946F24801F0BCFF24
:100A90008020ADF8000018208DF8030003208DF8A9
:100AA00002006946EB4801F0AFFF0121082002F087
:100AB00061FA0120ADF8000018208DF80300032032
:100AC0008DF802006946E44801F09EFF01210820EC
:100AD00002F050FA0220ADF8000018208DF8030053
:100AE00003208DF802006946DB4801F08DFF08BD48
:100AF00008B50121042002F03DFA0120ADF8000004
:100B000018208DF8030003208DF802006946D148B3
:100B100001F07AFF0121042002F02CFA0220ADF846
:100B2000000018208DF8030003208DF802006946AC
:100B3000C84801F069FF0121042002F01BFA0420DB
:100B4000ADF8000018208DF8030003208DF8020096
:100B50006946C04801F058FF0121042002F00AFA5A
:100B60000820ADF8000018208DF8030003208DF850
:100B700002006946B74801F047FF08BD00B587B0DD
:100B80000121022002F003FA42F21070ADF80400D5
:100B90000A20ADF800000020ADF80600ADF8020014
:100BA0008DF808006946AD4802F020FB6020ADF8E2
:100BB0000C000120ADF80E000020ADF81400ADF8D7
:100BC000120003A9A54802F04EFB0821A34802F039
:100BD00099FF0020ADF8120003A9A04802F085FBA0
:100BE00008219E4802F097FF0020ADF8120003A9EB
:100BF0009A4802F0C7FB0821984802F099FF0020AC
:100C0000ADF8120003A9954802F007FC08219348AB
:100C100002F097FF0121914802F044FE07B000BDA9
:100C200000B587B00121082002F0B1F942F210703E
:100C3000ADF804000A20ADF800000020ADF8060071
:100C4000ADF802008DF808006946854802F0CEFA3A
:100C50006020ADF80C000120ADF80E000020ADF8CA
:100C60001400ADF8120003A97D4802F0FCFA082137
:100C70007B4802F047FF0020ADF8120003A9784836
:100C800002F033FB0821764802F045FF0020ADF862
:100C9000120003A9724802F075FB0821704802F0A7
:100CA00047FF0020ADF8120003A96D4802F0B5FB24
:100CB00008216B4802F045FF0121694802F0F2FD6E
:100CC00007B000BD1FB56020ADF800000120ADF8F1
:100CD00002000020ADF8080062480088ADF8060068
:100CE00069465F4802F0BFFA08215D4802F00AFF3A
:100CF0001FBD1FB56020ADF800000120ADF8020057
:100D00000020ADF8080058480088ADF80600694694
:100D1000534802F0EAFA0821514802F0FCFE1FBDD8
:100D20001FB56020ADF800000120ADF802000020E2
:100D3000ADF808004D480088ADF8060069464848FF
:100D400002F020FB0821464802F0F2FE1FBD1FB54D
:100D50006020ADF800000120ADF802000020ADF8E1
:100D6000080043480088ADF8060069463C4802F098
:100D700054FB08213A4802F0E4FE1FBD1FB5602075
:100D8000ADF800000120ADF802000020ADF8080029
:100D900034480088ADF806006946304802F063FA2E
:100DA00008212E4802F0AEFE1FBD1FB56020ADF831
:100DB00000000120ADF802000020ADF808002A482C
:100DC0000088ADF806006946244802F08EFA082132
:100DD000224802F0A0FE1FBD1FB56020ADF8000044
:100DE0000120ADF802000020ADF808001F4800887F
:100DF000ADF806006946194802F0C4FA0821174800
:100E000002F096FE1FBD1FB56020ADF80000012066
:100E1000ADF802000020ADF8080015480088ADF8D4
:100E2000060069460D4802F0F8FA08210B4802F066
:100E300088FE1FBD10B5FFF7A1FEFFF7F1FE10BD44
:100E400010B5FFF713FEFFF753FEFFF797FEFFF70E
:100E5000E7FE10BD00080140000C01400004004006
:100E6000000C0040000000200400002002000020D0
:100E70000600002008B54FF4A06001F0A7F91E207D
:100E80008DF8000000208DF8010001208DF802008F
:100E90008DF80300684601F09EF908BD08B50121F0
:100EA000082002F067F84020ADF8000004208DF81B
:100EB000030069465E4801F0A7FD0121082002F009
:100EC00059F88020ADF8000004208DF80300694631
:100ED000574801F099FD0121082002F04BF84FF42A
:100EE0008070ADF8000004208DF80300694650487A
:100EF00001F08AFD0121082002F03CF84FF4007057
:100F0000ADF8000004208DF803006946484801F060
:100F10007BFD08BD00B587B00121042002F037F841
:100F20004FF6FF70ADF814004720ADF81000002018
:100F3000ADF81600ADF812008DF8180004A93D4870
:100F400002F054F90020ADF80400ADF806000120CD
:100F5000ADF808000020ADF80A00ADF80C0001A9BA
:100F6000344802F0D6FB0420ADF804000020ADF8B0
:100F700006000120ADF808000020ADF80A00ADF829
:100F80000C0001A92B4802F0C4FB0820ADF80400B6
:100F90000020ADF806000120ADF808000020ADF8F3
:100FA0000A00ADF80C0001A9224802F0B2FB0C20A7
:100FB000ADF804000020ADF806000120ADF80800EF
:100FC0000020ADF80A00ADF80C0001A9194802F0A4
:100FD000A0FB1F21174802F02BFF01221F211548FB
:100FE00002F07BFC0121134802F05CFC07B000BD5D
:100FF0000EB50121102001F0CAFF4FF4FA50ADF8F0
:10100000040041F61F40ADF8000069460A4802F0AE
:10101000EDF80121084802F045FC0EBD10B5FFF7C0
:10102000E7FFFFF727FFFFF739FFFFF773FF10BD5B
:10103000000C0140000800400010004001B502E033
:101040000098401E009000980028F9D108BD2DE9B5
:10105000F04740F6C410FE490880FE490880FE496A
:101060000880FE490880FFF72DFEFFF742FEFFF7DC
:1010700057FEFFF76CFE0121F94802F013FC012135
:10108000F84802F0D5FE0021F64802F09FFE55E137
:10109000F549088803F09AF981464FF08B4103F037
:1010A000E3F8044603F097F907464FF06632EF4B3A
:1010B00003F01AF9054603F0C9F9ED490860EA4959
:1010C000488803F083F981464FF08B4103F0CCF858
:1010D000044603F080F907464FF06632E34B03F015
:1010E00003F9054603F0B2F9E1494860DE49888812
:1010F00003F06CF981464FF08B4103F0B5F80446DC
:1011000003F069F907464FF06632D84B03F0ECF86C
:10111000054603F09BF9D6498860D349C88803F097
:1011200055F981464FF08B4103F09EF8044603F0D9
:1011300052F907464FF06632CC4B03F0D5F805461E
:1011400003F084F9CA49C860CA49088803F03EF927
:1011500081464FF08B4103F087F8044603F03BF9DA
:1011600007464FF06632C14B03F0BEF8054603F068
:101170006DF9C1490860BF49488803F027F98146E5
:101180004FF08B4103F070F8044603F024F9074652
:101190004FF06632B54B03F0A7F8054603F056F959
:1011A000B5494860B349888803F010F981464FF08B
:1011B0008B4103F059F8044603F00DF907464FF050
:1011C0006632AA4B03F090F8054603F03FF9AA49AE
:1011D0008860A849C88803F0F9F881464FF08B4130
:1011E00003F042F8044603F0F6F807464FF0663283
:1011F0009E4B03F079F8054603F028F99E49C86034
:101200009C49088903F0E2F881464FF08B4103F0D6
:101210002BF8044603F0DFF807464FF06632934B95
:1012200003F062F8054603F011F99349086191490A
:10123000488903F0CBF881464FF08B4103F014F856
:10124000044603F0C8F807464FF06632874B03F0B8
:101250004BF8054603F0FAF88749486185498889C3
:1012600003F0B4F881464FF08B4102F0FDFF0446D5
:1012700003F0B1F807464FF066327C4B03F034F8C8
:10128000054603F0E3F87C4988617A49C88903F090
:101290009DF881464FF08B4102F0E6FF044603F0D3
:1012A0009AF807464FF06632704B03F01DF805467A
:1012B00003F0CCF87049C861FFF704FDFFF719FD92
:1012C000FFF72EFDFFF743FD6B49C86803F083F875
:1012D00004460022694B03F0A5F81FD266498868CE
:1012E00003F079F804460022644B03F087F805D236
:1012F0004FF47A6056490880564908805E4908696B
:1013000003F069F8044600225C4B03F077F805D23D
:101310004FF47A60504908805049088001215148B3
:1013200002F07DFD50B15449086803F054F80446BA
:101330000022524B03F062F800D200E0A8E600BFA2
:101340000021474802F0AEFAFFF774FDBDE8F087D0
:101350002DE9F04740F6C4103D4908803D4908801A
:101360003D4908803D490880FFF708FDFFF71DFD56
:10137000FFF732FDFFF747FD0121394802F092FAED
:101380000121384802F054FD0021364802F01EFDCC
:101390006EE13549088803F019F881464FF08B411A
:1013A00002F062FF044603F016F807464FF066327B
:1013B0002E4B02F099FF054603F048F82C490860CF
:1013C0002949488803F002F881464FF08B4102F02A
:1013D0004BFF044602F0FFFF07464FF06632234BF7
:1013E00002F082FF054603F031F8214948601E49AA
:1013F000888802F0EBFF81464FF08B4102F034FF0A
:10140000044602F0E8FF07464FF06632174B02F041
:101410006BFF054603F01AF8154988601249C88821
:1014200002F0D4FF81464FF08B4102F01DFF0446CD
:1014300002F0D1FF07464FF066320C4B02F054FF2A
:10144000054603F003F80A49C8600A49088817E00E
:101450000000002002000020040000200600002000
:1014600000080040001000403000002066660A407E
:101470007800002068000020880000200000F83F6D
:1014800002F0A4FF81464FF08B4102F0EDFE0446CE
:1014900002F0A1FF07464FF06632FE4B02F024FF38
:1014A000054602F0D3FFFC490860FC49488802F079
:1014B0008DFF81464FF08B4102F0D6FE044602F0CC
:1014C0008AFF07464FF06632F24B02F00DFF0546E9
:1014D00002F0BCFFF0494860F049888802F076FFCE
:1014E00081464FF08B4102F0BFFE044602F073FFCD
:1014F00007464FF06632E74B02F0F6FE054602F073
:10150000A5FFE5498860E549C88802F05FFF81468C
:101510004FF08B4102F0A8FE044602F05CFF074644
:101520004FF06632DB4B02F0DFFE054602F08EFF25
:10153000D949C860D949088902F048FF81464FF06F
:101540008B4102F091FE044602F045FF07464FF042
:101550006632D04B02F0C8FE054602F077FFCE4956
:101560000861CE49488902F031FF81464FF08B4136
:1015700002F07AFE044602F02EFF07464FF0663274
:10158000C44B02F0B1FE054602F060FFC24948615B
:10159000C249888902F01AFF81464FF08B4102F060
:1015A00063FE044602F017FF07464FF06632B94B60
:1015B00002F09AFE054602F049FFB7498861B74933
:1015C000C88902F003FF81464FF08B4102F04CFEC8
:1015D000044602F000FF07464FF06632AD4B02F0C2
:1015E00083FE054602F032FFAB49C861FFF7C6FB38
:1015F000FFF7DBFBFFF7F0FBFFF705FCA8494868A6
:1016000002F0E9FE04460022A64B02F00BFF1FD2B7
:10161000A349086802F0DFFE04460022A14B02F055
:10162000EDFE05D24FF47A609F4908809F490880FB
:101630009B49886802F0CFFE04460022994B02F0D5
:10164000DDFE05D24FF47A609949088099490880F7
:101650000121994802F0E3FB50B18F49086802F07C
:10166000BAFE044600228F4B02F0C8FE00D200E012
:101670008FE600BF0021914802F014F9FFF7DAFB72
:10168000BDE8F0872DE9F04740F6C410884908808E
:10169000884908808449088084490880FFF712FB44
:1016A000FFF783FBFFF798FBFFF751FB012183480E
:1016B00002F0F8F80121804802F0BAFB00217E48D0
:1016C00002F084FB6EE17E49088802F07FFE8146CD
:1016D0004FF08B4102F0C8FD044602F07CFE074645
:1016E0004FF066326B4B02F0FFFD054602F0AEFE96
:1016F0006B4908607249488802F068FE81464FF0E5
:101700008B4102F0B1FD044602F065FE07464FF042
:101710006632604B02F0E8FD054602F097FE604934
:1017200048606749888802F051FE81464FF08B413E
:1017300002F09AFD044602F04EFE07464FF0663274
:10174000544B02F0D1FD054602F080FE54498860FA
:101750005B49C88802F03AFE81464FF08B4102F0A7
:1017600083FD044602F037FE07464FF06632494BD0
:1017700002F0BAFD054602F069FE4949C8604749D2
:10178000088802F023FE81464FF08B4102F06CFD89
:10179000044602F020FE07464FF066323D4B02F051
:1017A000A3FD054602F052FE3B4908603B494888CC
:1017B00002F00CFE81464FF08B4102F055FD0446CD
:1017C00002F009FE07464FF06632324B02F08CFD04
:1017D000054602F03BFE304948603049888802F0F7
:1017E000F5FD81464FF08B4102F03EFD044602F0CC
:1017F000F2FD07464FF06632264B02F075FD0546B6
:1018000002F024FE244988602449C88802F0DEFDE5
:1018100081464FF08B4102F027FD044602F0DBFDCC
:1018200007464FF066321B4B02F05EFD054602F0A4
:101830000DFE1949C8601949088902F0C7FD8146A3
:101840004FF08B4102F010FD044602F0C4FD074644
:101850004FF066320F4B02F047FD054602F0F6FDF1
:101860000D4908610D49488902F0B0FD81464FF0ED
:101870008B4102F0F9FC044602F0ADFD07464FF043
:101880006632044B02F030FD054602F0DFFD0249EE
:10189000486117E066660A40880000206800002062
:1018A000780000200000F83F04000020060000201F
:1018B000000000200200002000100040000800404E
:1018C00030000020F849888902F080FD81464FF001
:1018D0008B4102F0C9FC044602F07DFD07464FF043
:1018E0006632F24B02F000FD054602F0AFFDF04912
:1018F0008861ED49C88902F069FD81464FF08B414E
:1019000002F0B2FC044602F066FD07464FF0663274
:10191000E64B02F0E9FC054602F098FDE449C86197
:10192000FFF7D0F9FFF741FAFFF756FAFFF70FFA82
:10193000DF49886902F04FFD04460022DD4B02F0CA
:1019400071FD1FD2DA49C86902F045FD0446002244
:10195000D84B02F053FD05D24FF47A60D649088087
:10196000D6490880D249486902F035FD0446002274
:10197000D04B02F043FD05D24FF47A60D049088085
:10198000D04908800121D04802F049FA50B1CF492E
:10199000486802F020FD04460022C64B02F02EFDEE
:1019A00000D200E08FE600BF0021C94801F07AFFB5
:1019B000FFF740FABDE8F0872DE9F04740F6C41084
:1019C000BF490880BC490880BE490880BB490880DF
:1019D000FFF7D4F9FFF78DF9FFF7A2F9FFF713FA34
:1019E0000121BB4801F05EFF0121B74802F020FA57
:1019F0000021B54802F0EAF96EE1B649088802F024
:101A0000E5FC81464FF08B4102F02EFC044602F0CB
:101A1000E2FC07464FF06632A44B02F065FC054637
:101A200002F014FDA9490860AA49488802F0CEFCDA
:101A300081464FF08B4102F017FC044602F0CBFCCC
:101A400007464FF06632994B02F04EFC054602F015
:101A5000FDFC9E4948609F49888802F0B7FC81469A
:101A60004FF08B4102F000FC044602F0B4FC074644
:101A70004FF066328D4B02F037FC054602F0E6FC73
:101A8000924988609349C88802F0A0FC81464FF0D3
:101A90008B4102F0E9FB044602F09DFC07464FF043
:101AA0006632824B02F020FC054602F0CFFC8749EB
:101AB000C8607D49088802F089FC81464FF08B415F
:101AC00002F0D2FB044602F086FC07464FF0663275
:101AD000764B02F009FC054602F0B8FC7449086038
:101AE0007149488802F072FC81464FF08B4102F048
:101AF000BBFB044602F06FFC07464FF066326B4BAF
:101B000002F0F2FB054602F0A1FC69494860664913
:101B1000888802F05BFC81464FF08B4102F0A4FB09
:101B2000044602F058FC07464FF066325F4B02F065
:101B3000DBFB054602F08AFC5D4988605A49C8888B
:101B400002F044FC81464FF08B4102F08DFB0446CD
:101B500002F041FC07464FF06632544B02F0C4FBE2
:101B6000054602F073FC5249C8604F49088902F0EB
:101B70002DFC81464FF08B4102F076FB044602F0CB
:101B80002AFC07464FF06632484B02F0ADFB054693
:101B900002F05CFC464908614349488902F016FCA2
:101BA00081464FF08B4102F05FFB044602F013FCCC
:101BB00007464FF066323D4B02F096FB054602F0B9
:101BC00045FC3B4948613849888902F0FFFB814662
:101BD0004FF08B4102F048FB044602F0FCFB074645
:101BE0004FF06632314B02F07FFB054602F02EFCCF
:101BF0002F4988612C49C88902F0E8FB81464FF0E3
:101C00008B4102F031FB044602F0E5FB07464FF042
:101C10006632264B02F068FB054602F017FC2449A9
:101C2000C861FFF7ABF8FFF764F8FFF779F8FFF743
:101C3000EAF81F49086802F0CEFB044600221D4B5B
:101C400002F0F0FB1FD22149C86802F0C4FB044631
:101C50000022184B02F0D2FB05D24FF47A601649ED
:101C60000880164908801249486802F0B4FB04460F
:101C70000022104B02F0C2FB05D24FF47A601049EB
:101C800008801049088001210F4802F0C8F850B1BF
:101C90000E49486802F09FFB04460022054B02F003
:101CA000ADFB19D219E017E06800002066660A4013
:101CB000880000200000F83F0200002006000020FD
:101CC00000000020040000200010004078000020E8
:101CD00000080040300000208FE600BF00211948B6
:101CE00001F0E0FDFFF7A6F8BDE8F08770B5044607
:101CF000002503E0FFF72CFB681CC5B2A542F9DB09
:101D000070BD70B50446002503E0FFF7A0F9681C1C
:101D1000C5B2A542F9DB70BD70B50446002503E0ED
:101D2000FFF7B0FC681CC5B2A542F9DB70BD70B509
:101D30000446002503E0FFF73FFE681CC5B2A5423C
:101D4000F9DB70BD0008004008B50121412001F019
:101D500011F901219F4800F026FF0121402001F0E8
:101D600009F94FF40070ADF8000018208DF8030059
:101D700003208DF802006946974800F045FE0121D6
:101D8000402001F0F7F84FF40060ADF80000182093
:101D90008DF8030003208DF8020069468E4800F09C
:101DA00033FE0121402001F0E5F84FF40050ADF87A
:101DB000000018208DF8030003208DF8020069460A
:101DC000854800F021FE0121402001F0D3F84FF4B6
:101DD0008040ADF8000018208DF8030003208DF836
:101DE000020069467C4800F00FFE08BD00B58BB0CC
:101DF0000121C80201F0BEF84EF66020ADF80400E3
:101E00002320ADF800000020ADF80600ADF8020078
:101E10008DF808006946714801F0E8F901216F4822
:101E200002F006F8012211466C4801F056FD6020D0
:101E3000ADF80C000120ADF80E000020ADF8140044
:101E400040F6B830ADF8120003A9644801F00BFA6F
:101E50000821624801F056FE4FF47A60ADF8120096
:101E600003A95E4801F041FA08215C4801F053FEE5
:101E70004FF47A60ADF8120003A9584801F082FAD5
:101E80000821564801F054FE4FF4FA60ADF81200F4
:101E900003A9524801F0C1FA0821504801F051FE4F
:101EA0000020ADF81C00ADF81E00ADF82000902019
:101EB000ADF822000020ADF824004FF40050ADF83A
:101EC00026004000ADF8280007A9444801F0AAFC0C
:101ED0000121424801F0E6FD0121404801F0E2FC09
:101EE00001213E4801F0EAFC0BB000BD1FB56020A7
:101EF000ADF800000120ADF802000020ADF80800A8
:101F000037480088ADF806006946344801F0ABF95F
:101F10000821324801F0F6FD0121304801F0C2FDF0
:101F200001212E4801F0CAFC1FBD1FB56020ADF88D
:101F300000000120ADF802000020ADF8080029489B
:101F40000088ADF806006946244801F0CEF9082162
:101F5000224801F0E0FD1FBD1FB56020ADF8000074
:101F60000120ADF802000020ADF808001E480088EE
:101F7000ADF806006946194801F004FA082117482F
:101F800001F0D6FD1FBD1FB56020ADF80000012097
:101F9000ADF802000020ADF8080014480088ADF844
:101FA000060069460D4801F038FA08210B4801F097
:101FB000C8FD1FBD10B5FFF799FFFFF7B6FFFFF78C
:101FC000CBFFFFF7E0FF10BD10B5FFF7BDFEFFF739
:101FD0000DFF10BDC000160000180140002C01408C
:101FE000080000200A0000200C0000200E00002045
:101FF0000CB50020019000906B48006840F48030E0
:102000006949086000BF6848006800F4003000902B
:102010000198401C0190009818B90198B0F5A06F84
:10202000F1D16148006810F4003F02D00120009017
:1020300001E0002000900098012842D15B48006830
:1020400040F01000594908600846006820F003007D
:1020500008600846006840F0020008605248406886
:10206000514948600846406848600846406840F466
:10207000806048600846406820F47C10486008464C
:10208000406840F4E81048600846006840F08070FE
:10209000086000BF4448006810F0007FFAD0424852
:1020A000406820F00300404948600846406840F01E
:1020B0000200486000BF3C48406800F00C0008285F
:1020C000F9D10CBD10B5FFF793FF10BD10B5364820
:1020D000006840F00100344908600846406834490F
:1020E00008403149486008460068324908402E4996
:1020F00008600846006820F48020086008464068B0
:1021000020F4FE0048604FF41F008860FFF7DAFFFC
:102110004FF000602849086010BD10B50021002074
:102120000022214B5B6803F00C0121B1042906D089
:10213000082928D107E0214B214C236027E01F4BC1
:102140001F4C236023E0184B5B6803F47010164BA0
:102150005B6803F48032022303EB904022B9194BF1
:102160004343174C23600DE00F4B5B6813F4003FB3
:1021700004D0144B4343124C236003E00F4B434302
:102180000F4C236003E00D4B0D4C236000BF00BFDC
:10219000054B5B68C3F303130B4CE15C084B1B68F6
:1021A000CB40074C236010BD0010024000200240CD
:1021B0000000FFF8FFFFF6FE08ED00E000127A00D5
:1021C0003800002000093D003C0000203149014357
:1021D000314A1160704770B5002100230F22C47886
:1021E0000CB32D4C246804F4E064C4F5E064210AC7
:1021F000C1F10403CA40447804FA03F1847814401E
:1022000021430901254C0678A155047804F01F05E7
:102210000124AC4005786D114FF0E02606EB8505F2
:10222000C5F8004109E0047804F01F050124AC4022
:102230001B4D0678761145F8264070BD194A0A40B4
:102240000243154B1B1F1A60704739B1124A121D09
:1022500012680243104B1B1D1A6006E00E4A121D45
:10226000126882430C4B1B1D1A607047042808D16A
:102270004FF0E021096941F004014FF0E0221161C3
:1022800007E04FF0E021096921F004014FF0E0225E
:10229000116170470000FA050CED00E000E400E079
:1022A00080E100E080FFFF1F10B50446FA48844239
:1022B00008D10121401500F077FE0021601500F0E3
:1022C00073FE17E0F548844208D10121001500F0A3
:1022D0006BFE0021201500F067FE0BE0F048844201
:1022E00008D10121C80300F05FFE00214FF4004037
:1022F00000F05AFE10BD30B50246002000235068A1
:10230000E84C20400D790C6844EA052420435060D5
:102310009068E54C2040D1E902542C434D7944EAC1
:10232000450420439060D06A20F470000C7C641E49
:10233000E4B2234340EA0350D06230BD0021016083
:10234000017141718160C16001210174704721B147
:10235000826842F00102826003E0826822F001029A
:102360008260704721B1826842F48072826003E02B
:10237000826822F480728260704710B50023CBB26D
:102380001AB144681C43446002E044689C434460C2
:1023900010BD816841F0080181607047014600204E
:1023A0008A6812F0080F01D0012000E00020704779
:1023B000816841F0040181607047014600208A680D
:1023C00012F0040F01D0012000E00020704721B17D
:1023D000826842F4A002826003E0826822F4A002D4
:1023E00082607047014600208A6812F4800F01D095
:1023F000012000E00020704710B50A4600210023AC
:10240000416821F46041531E41EA4331416010BDEF
:1024100021B1426842F40062426003E0426822F463
:10242000006242607047F0B504460D46002000216E
:10243000092D11DDE068A5F10A0606EB460707261F
:1024400006FA07F18843A5F10A0606EB460603FAE9
:1024500006F10843E0600CE0206905EB450707261C
:1024600006FA07F1884305EB450603FA06F108432F
:102470002061072A0FDA606B561E06EB86071F26BF
:1024800006FA07F18843561E06EB860605FA06F1A2
:102490000843606322E00D2A0FDA206BD61F06EB9B
:1024A00086071F2606FA07F18843D61F06EB860625
:1024B00005FA06F10843206310E0E06AA2F10D0678
:1024C00006EB86071F2606FA07F18843A2F10D06E0
:1024D00006EB860605FA06F10843E062F0BD21B17D
:1024E000826842F48012826003E0826822F48012E3
:1024F000826070470146C86C80B2704766484C30B5
:102500000068704721B1426842F48062426003E093
:10251000426822F480624260704721B1426842F40E
:102520008052426003E0426822F480524260704769
:102530000A460021816821F4E0411143816070471F
:1025400021B1826842F40042826003E0826822F492
:1025500000428260704721B1826842F402128260B8
:1025600003E0826822F40212826070470146002074
:102570008A6812F4001F01D0012000E0002070479B
:10258000F0B504461546002000220026092911DD79
:10259000E068A1F10A0707EB470C072707FA0CF2DE
:1025A0009043A1F10A0707EB470703FA07F210432C
:1025B000E0600CE0206901EB410C072707FA0CF200
:1025C000904301EB410703FA07F210432061A06B2F
:1025D000C0F30156EF1C06F1010CA7EB0C0707EB4B
:1025E000870C1F2707FA0CF29043EF1C06F1010C31
:1025F000A7EB0C0707EB870701FA07F21043A0636C
:10260000F0BD10B50A4600210023816B21F4401172
:10261000531E41EA0351816310BD08B500230093A6
:102620000090009B0B440093009B1A6008BD08B506
:10263000024600200090009201F12800009B1844FF
:1026400000900098006880B208BD0A4600214168E9
:10265000164B1940114341607047416282627047D6
:102660000A460021416821F01F0111434160704773
:1026700040B109490831096841F40001064A0832AD
:10268000116007E004490831096821F40001024A99
:10269000083211607047000000240140002801400A
:1026A000003C0140FFFEF0FFFDF7F1FFFFFD3FFFA3
:1026B0000246002013680B4201D0012000E00020F8
:1026C0007047CA430260704770B50246002000237D
:1026D00000240B125568CEB205EA060415681D42A7
:1026E00002D00CB1012000E0002070BD00220A12CF
:1026F000D34303607047000001684FF6FE7211403B
:1027000001600021016041608160C1608C498842A4
:1027100008D18B490839496841F00F01884A083AC5
:1027200051608AE086491431884208D184490839C9
:10273000496841F0F001824A083A51607DE08049E1
:102740002831884208D17E490839496841F47061CE
:102750007B4A083A516070E079493C31884208D19F
:1027600077490839496841F47041754A083A51601F
:1027700063E073495031884208D17149083949688A
:1027800041F470216E4A083A516056E06C49643158
:10279000884208D16A490839496841F47001684A99
:1027A000083A516049E066497831884208D1644965
:1027B0000839496841F07061614A083A51603CE06B
:1027C0006049884206D1011F096841F00F01021FCC
:1027D000116032E05B491431884208D15949091F20
:1027E000096841F0F001574A121F116025E0554970
:1027F0002831884208D15349091F096841F47061A2
:10280000504A121F116018E04E493C31884208D1ED
:102810004C49091F096841F470414A4A121F11606E
:102820000BE048495031884207D14649091F0968E1
:1028300041F47021434A121F1160704710B5002205
:10284000026847F6F0739A430C6A8B6823430C695D
:1028500023434C6923438C692343CC6923434C6A4B
:1028600023438C6A23431A430260CB6843600B689E
:1028700083604B68C36010BD0021016041608160CE
:10288000C160016141618161C16101624162816236
:10289000704721B1026842F00102026004E0026860
:1028A0004FF6FE731A40026070471AB103680B437B
:1028B000036002E003688B43036070474160704728
:1028C0000146486880B2704701460020002211F09E
:1028D000805F03D01B4B083B1A6802E0184B083B93
:1028E0001A680A4201D0012000E00020704710F071
:1028F000805F03D01349091F086002E010490839BE
:102900004860704701460020002211F0805F03D02C
:102910000C4B083B1A6802E0094B083B1A680A4254
:1029200001D0012000E00020704710F0805F03D04C
:102930000449091F086002E00149083948607047EE
:10294000080002400804024010B50446CA48844208
:1029500008D10121042000F027FB0021042000F011
:1029600023FB46E0C548844208D10121082000F03D
:102970001BFB0021082000F017FB3AE0C04884420E
:1029800008D10121102000F00FFB0021102000F0E1
:102990000BFB2EE0BB48844208D10121202000F02F
:1029A00003FB0021202000F0FFFA22E0B648844219
:1029B00008D10121402000F0F7FA0021402000F06A
:1029C000F3FA16E0B148844208D10121802000F0DA
:1029D000EBFA0021802000F0E7FA0AE0AC488442DC
:1029E00007D10121801500F0DFFA0021A01500F0C9
:1029F000DBFA10BD10B50121084600F0D5FA002120
:102A0000012000F0D1FA10BD2DE9F0410246002569
:102A10000026002000230024002791F803C00CF0BA
:102A20000F0591F803C01CF0100F03D091F802C0FD
:102A30004CEA050591F800C0BCF1000F31D01468D4
:102A400000202BE04FF0010C0CFA00F3B1F800C0AD
:102A50000CEA03069E4220D183004FF00F0C0CFAC3
:102A600003F7BC4305FA03FC4CEA040491F803C0E5
:102A7000BCF1280F06D14FF0010C0CFA00FCC2F893
:102A800014C00AE091F803C0BCF1480F05D14FF023
:102A9000010C0CFA00FCC2F810C0401C0828D1D36D
:102AA0001460B1F800C0BCF1FF0F34DD54680020A1
:102AB0002EE000F1080C4FF0010808FA0CF3B1F811
:102AC00000C00CEA03069E4221D183004FF00F0C98
:102AD0000CFA03F7BC4305FA03FC4CEA040491F832
:102AE00003C0BCF1280F05D100F1080C08FA0CF85E
:102AF000C2F8148091F803C0BCF1480F07D100F16F
:102B0000080C4FF0010808FA0CF8C2F81080401CBD
:102B10000828CED35460BDE8F0814FF6FF710180E4
:102B2000022181700421C170704702460020936821
:102B30000B4201D0012000E0002070470146886868
:102B400080B2704702460020D3680B4201D00120BA
:102B500000E0002070470146C86880B270470161FC
:102B60007047416170470AB1016100E041617047FF
:102B7000C16070474FF480320A4382618161826193
:102B800082698269704702460020424B18684FF6FE
:102B90008073184040EA021008433E4B18607047AB
:102BA0003D49C8617047F0B50A4600230024002162
:102BB000002500F00046B6F1004F02D1354EF16914
:102BC00001E0344E7168C0F3034583B200F440164F
:102BD000B6F5401F08D121F070612E4E766826F0C0
:102BE00070662C4F7E6012E000F48016B6F5801FF0
:102BF00006D1032606FA05F4A14341F0706106E010
:102C0000460D360103FA06F6B14341F0706122B178
:102C1000460D360103FA06F6314300F00046B6F1E0
:102C2000004F02D11B4EF16101E01A4E7160F0BD00
:102C300030B500228B071C0F0F2303FA04F2154B4B
:102C400008338C1053F824309343124C08348D1001
:102C500044F8253023468C1053F824308C07240F79
:102C600000FA04F423430B4C08348D1044F825304B
:102C700030BD0A490860704700080140000C01405F
:102C8000001001400014014000180140001C0140E8
:102C9000002001400000014000002042DC002042F2
:102CA000DD48006840F00100DB49086008464068E4
:102CB000DA490840D849486008460068D8490840C1
:102CC000D54908600846006820F48020086008465E
:102CD000406820F4FE0048604FF41F008860704791
:102CE000CD49096821F48031CB4A11601146096849
:102CF00021F480211160B0F5803F03D0B0F5802F22
:102D00000ED106E0C449096841F48031C24A11601D
:102D100007E0C149096841F4A021BF4A116000E001
:102D200000BF00BF704710B50146002200230020FD
:102D30004A11012A02D1B84C236806E0022A02D1C6
:102D4000B54C236A01E0B44C636A01F01F02012410
:102D500094401C4201D0012000E0002010BD38B595
:102D6000002000900024002500BF3120FFF7DBFF8A
:102D700005460098401C00900098B0F5A06F01D067
:102D8000002DF2D03120FFF7CEFF08B1012400E082
:102D90000024204638BD014600209F4A106820F0DC
:102DA000F80040EAC100106070479E490860704713
:102DB00002460020984B586820F47C1042EA010338
:102DC0001843954B5860704796490866704701460E
:102DD0000020914A506820F003000843506070477B
:102DE0008D48406800F00C007047014600208A4A78
:102DF000506820F0F0000843506070470146002002
:102E0000854A506820F4E0600843506070470146EE
:102E10000020814A506820F4605040EAC1005060B0
:102E2000704729B17C4A527A02437B4B5A7204E0C4
:102E3000794A527A8243784B5A7270477A490860CD
:102E4000704701460020744A506820F4404008430F
:102E5000506070470021754A11706F4A82F8201047
:102E6000012802D0042808D103E001216F4A117023
:102E700004E005216D4A117000E000BF00BF7047FB
:102E80006B49086070476449096A0143624A1162EC
:102E90007047674944390860704730B50021002207
:102EA000002400235C4D6D6805F00C0121B104295C
:102EB00005D0082923D105E05E4D056022E05D4D77
:102EC00005601FE0544D6D6805F47012524D6D6839
:102ED00005F48034022505EB92421CB9564D55434A
:102EE00005600BE04C4D6D6815F4003F03D0524D6A
:102EF0005543056002E04F4D5543056002E04D4DDE
:102F0000056000BF00BF444D6D6805F0F001090980
:102F10004A4D6B5C0568DD4045603F4D6D6805F4CA
:102F2000E061090A454D6B5C4568DD4085603A4DBE
:102F30006D6805F46051C90A404D6B5C4568DD4021
:102F4000C560354D6D6805F44041890B3C4D6B5CA7
:102F5000C568B5FBF3F5056130BD29B12E4A52694C
:102F600002432D4B5A6104E02B4A526982432A4B9B
:102F70005A61704729B1284A92690243264B9A61E7
:102F800004E0254A92698243234B9A61704729B134
:102F9000214AD2690243204BDA6104E01E4AD26919
:102FA00082431D4BDA61704729B11B4AD268024344
:102FB000194BDA6004E0184AD2688243164BDA6093
:102FC000704729B1144A12690243134B1A6104E095
:102FD000114A12698243104B1A61704714494039F3
:102FE000086070470F49C86470470B49C871704743
:102FF0000948406A40F080700749486270470146BE
:103000000020054A92680A4201D0012000E0002019
:103010007047014988727047001002400000FFF8B5
:10302000FFFFF6FE00004242D8004242201002405C
:103030008004424200127A0000093D004C0000204A
:103040005C00002010B50446FE48844208D10121EE
:10305000C014FFF7A9FF0021E014FFF7A5FFC4E0AB
:10306000B4F1804F08D101210846FFF7AAFF0021E3
:103070000120FFF7A6FFB8E0F348844208D1012100
:103080000220FFF79EFF00210220FFF79AFFACE02D
:10309000EE48844208D101210420FFF792FF00216D
:1030A0000420FFF78EFFA0E0E948844208D1012107
:1030B0000820FFF786FF00210820FFF782FF94E039
:1030C000E448844208D101211020FFF77AFF002153
:1030D0001020FFF776FF88E0DF48844208D1012105
:1030E0002020FFF76EFF00212020FFF76AFF7CE021
:1030F000DA48844208D101214014FFF755FF00212E
:103100006014FFF751FF70E0D548844209D10121D6
:10311000C804FFF749FF00214FF40020FFF744FFE8
:1031200063E0D048844209D101210805FFF73CFF44
:1031300000214FF48010FFF737FF56E0CA48844261
:1031400009D101214805FFF72FFF00214FF400109E
:10315000FFF72AFF49E0C548844208D101214020F9
:10316000FFF72FFF00214020FFF72BFF3DE0C04875
:10317000844208D101218020FFF723FF0021802015
:10318000FFF71FFF31E0BB48844208D101218015C1
:10319000FFF717FF0021A015FFF713FF25E0B64842
:1031A000844209D101210804FFF7FEFE00214FF4FB
:1031B0008030FFF7F9FE18E0B048844209D10121C0
:1031C0004804FFF7F1FE00214FF40030FFF7ECFE5A
:1031D0000BE0AB48844208D101218804FFF7E4FEEC
:1031E00000214FF48020FFF7DFFE10BD002202888F
:1031F000944B98420ED0994B98420BD0B0F1804F2F
:1032000008D0914B984205D0904B984202D0904BF9
:10321000984204D14FF68F731A404B881A438D4B56
:10322000984207D08C4B984204D04FF6FF431A4087
:10323000CB881A4302808B8883850B880385814B5A
:1032400098420BD0854B984208D08B4B984205D0C2
:103250008A4B984202D08A4B984201D10B7A03865E
:1032600001238382704770B5002400220023058C5F
:103270004FF6FE7635400584028C8388048B4FF62A
:103280008F752C40B51E2C400D882C43751E2A408E
:103290000D892A434D882A436A4DA8420BD06F4DB1
:1032A000A84208D0744DA84205D0744DA84202D05F
:1032B000734DA84213D14FF6F7752A404D892A4322
:1032C0004FF6FB752A408D882A434FF6FF652B4049
:1032D0004FF6FF552B408D892B43CD892B4383809F
:1032E0000483CD888586028470BD70B500240022D9
:1032F0000023058C4FF6EF7635400584028C8388D9
:10330000048B48F6FF752C404FF6FF452C400D8886
:103310004FF6FF7606EA05252C434FF6DF752A4067
:103320000D8906EA05152A434D8806EA05152A4344
:10333000444DA84202D0494DA8421DD14FF67F7599
:103340002A404D894FF6FF7606EA05152A434FF6C7
:10335000BF752A408D8806EA05152A434FF6FF35CA
:103360002B404FF2FF752B408D8906EA85052B43D4
:10337000CD8906EA85052B4383800483CD880587A4
:10338000028470BD70B5002400220023058C4FF626
:10339000FF6635400584028C8388848B4FF68F75D9
:1033A0002C404FF6FC752C400D882C434FF6FF55F2
:1033B0002A400D894FF6FF7606EA05252A434D88F7
:1033C00006EA05252A431F4DA84202D0234DA842F4
:1033D0001DD14FF2FF752A404D894FF6FF7606EA60
:1033E00005252A434FF6FF352A408D8806EA052534
:1033F0002A434EF6FF752B404DF6FF752B408D8905
:1034000006EA05152B43CD8906EA05152B43838073
:103410008483CD888587028470BD70B50022002327
:103420000024058C4EF6FF7635400584038C848895
:10343000828B48F6FF752A404FF6FF452A400D88DB
:1034400020E00000002C0140000400400008004083
:10345000000C004000100040001400400034014007
:10346000004C014000500140005401400018004051
:10347000001C00400020004000400140004401408A
:10348000004801404FF6FF7606EA05252A434DF62F
:10349000FF752B400D8906EA05352B434D8806EA5A
:1034A00005352B43FA4DA84202D0FA4DA84208D167
:1034B0004BF6FF752C408D894FF6FF7606EA851591
:1034C0002C4384808283CD88A0F84050038470BD53
:1034D000828B4FF2FF331A408283828B4FF6FF7349
:1034E00003EA01231A4382837047F0B50C46154660
:1034F000002200210026078C4EF6FF7C07EA0C070D
:103500000784828B018C4FF6FF7707EA043640F67A
:10351000FF473A404FF6FF7707EA05273A434FF651
:10352000FF7707EA03373A43D94FB8420ED0D94F55
:10353000B8420BD0B0F1804F08D0D74FB84205D079
:10354000D64FB84202D0D64FB84206D14DF6FF77DB
:10355000394046F48057394305E047F6FF57394074
:1035600044F48057394382830184F0BD828B4FF647
:10357000F3731A408283828B0A4382837047F0B5CB
:103580000C461546002200210026078C4FF6FF6CE2
:1035900007EA0C070784828B018C4FF6FF7707EA56
:1035A00004264FF60C773A404FF6FF7707EA0317E9
:1035B0002F433A43B64FB8420ED0B64FB8420BD065
:1035C000B0F1804F08D0B44FB84205D0B34FB842E5
:1035D00002D0B34FB84206D14FF6FF57394046F4F8
:1035E0008077394305E04FF2FF57394044F4807744
:1035F000394382830184F0BD028B4FF2FF331A40BE
:103600000283028B4FF6FF7303EA01231A430283FE
:103610007047F0B50C461546002200210026078CA5
:103620004FF6EF7C07EA0C070784028B018C4FF6FC
:10363000FF7707EA041640F6FF473A404FF6FF7758
:1036400007EA03373A434FF6FF7707EA05273A437D
:103650008F4FB8420ED08F4FB8420BD0B0F1804F91
:1036600008D08D4FB84205D08C4FB84202D08C4F55
:10367000B84206D14FF6DF77394046F0100739439C
:1036800005E04FF65F77394044F010073943028375
:103690000184F0BD028B4FF6F3731A400283028B54
:1036A0000A4302837047F0B50C46154600220021FC
:1036B000068C4FF6FE773E400684028B018C4FF657
:1036C0000C7632407E1C06EA03162E433243704EBF
:1036D000B0420ED06F4EB0420BD0B0F1804F08D048
:1036E0006D4EB04205D06D4EB04202D06C4EB0422D
:1036F00006D14FF6FD76314044F00106314305E036
:103700004FF6F576314044F00106314302830184DF
:10371000F0BD70B505460C465D4885420ED05D484B
:1037200085420BD0B5F1804F08D05B48854205D06B
:103730005A48854202D05A48854200D100E000BF75
:10374000208850B92389A28861882846FFF7ABFFFB
:10375000E1882846FFF79EFF25E0208804280AD14B
:103760002389A28861882846FFF753FFE18828460D
:10377000FFF742FF17E0208808280AD12389A28892
:1037800061882846FFF7FBFEE1882846FFF7EEFE3A
:1037900009E02389A28861882846FFF7A6FEE18810
:1037A0002846FFF795FE70BD2DE9F04105460C4611
:1037B00000260127608808B9022600E00026A088BC
:1037C000012801D1022700E001272088A0B9238920
:1037D000A28861882846FFF766FFE1882846FFF740
:1037E00059FF23893A4631462846FFF712FFE18800
:1037F0002846FFF701FF13E02389A2886188284645
:10380000FFF707FFE1882846FFF7F6FE23893A46CF
:1038100031462846FFF747FFE1882846FFF73AFF81
:10382000BDE8F0810A884B881A438B881A43CB88FD
:103830001A430B891A434B891A438B891A43A0F800
:10384000442070474FF6FF71818000210180C180C4
:103850004180017270470021018041808180C180D8
:10386000018141818181C1817047002101804180B6
:10387000012181800021C1800181704700210180E8
:1038800041808180C1800181418181817047000038
:10389000002C0140003401400004004000080040BA
:1038A000000C004021B1028842F00102028004E0D5
:1038B00002884FF6FE731A400280704731B1B0F8AB
:1038C000442042F40042A0F8442005E0B0F844202F
:1038D000C2F30E02A0F8442070471AB183890B434B
:1038E000838102E083898B438381704781827047A3
:1038F00041EA0203A0F8483070471AB183890B43AC
:10390000838102E083898B438381704701894FF66D
:10391000F8721140018170470A46002101894FF673
:103920008F73194011430181704730B504460D462D
:1039300029462046FFF7F0FF208940F0070020814C
:1039400030BD2DE9F04104460D4616461F46602D58
:1039500006D13B46012231462046FFF75AFE05E0DC
:103960003B46012231462046FFF79DFE2946204670
:10397000FFF7D2FF208940F007002081BDE8F081E9
:1039800030B50C4600210189C9B24FF6FF7505EA32
:103990000325154325432943018130BD2DE9F0411D
:1039A00005460E4617469846002443463A46314699
:1039B0002846FFF7E5FF2C894FF6F870044044F0E5
:1039C00007044FF68F70044044F070042C81BDE86A
:1039D000F081F0B504460D4616461F463B4632467A
:1039E00029462046FFF7CCFF208940F48040208103
:1039F000F0BD0185828270470A46002101884FF69A
:103A00008F731940114301807047F0B50C4615467D
:103A10001E460021002200230189028B038C4FF6F1
:103A2000F877394021434FF6FC473A4040F20117FE
:103A30003A434FF6DD773B404FF6FF7707EA06172C
:103A40002F433B43018102830384F0BD0A460021DA
:103A5000018B4FF68F7319401143018370470A465B
:103A60000021018B48F6FF7319404FF6FF7303EAFC
:103A700002231943018370470A460021818B4FF6C8
:103A80008F7319401143818370470A460021818B4F
:103A900048F6FF7319404FF6FF7303EA02231943F8
:103AA0008183704721B1028842F08002028004E0E5
:103AB00002884FF67F731A400280704721B18288D6
:103AC00042F00402828004E082884FF6FB731A40C1
:103AD0008280704721B1828842F00802828004E02F
:103AE00082884FF6F7731A408280704721B182882E
:103AF00042F00102828004E082884FF6FE731A4091
:103B0000828070470A460021018B4FF6F7731940F7
:103B10001143018370470A460021018B4FF2FF7366
:103B200019404FF6FF7303EA0223194301837047DC
:103B30000A460021818B4FF6F773194011438183A8
:103B400070470A460021818B4FF2FF7319404FF6F0
:103B5000FF7303EA02231943818370470A46002159
:103B6000018B4FF6FB7319401143018370470A46DE
:103B70000021018B4FF6FF3319404FF6FF7303EA24
:103B800002231943018370470A460021818B4FF6B7
:103B9000FB7319401143818370470A460021818BD2
:103BA0004FF6FF3319404FF6FF7303EA0223194320
:103BB000818370470A460021018B4FF67F731940BD
:103BC0001143018370470A460021018BC1F30E01A6
:103BD0004FF6FF7303EA02231943018370470A4635
:103BE0000021818B4FF67F73194011438183704709
:103BF0000A460021818BC1F30E014FF6FF7303EAE1
:103C000002231943818370470A460021018C4FF635
:103C1000FD7319401143018470470A460021018C4D
:103C20004FF6F77319401143018470470A4600218B
:103C3000018C4FF6DF7319404FF6FF7303EA02134E
:103C40001943018470470A460021018C4FF67F73A7
:103C500019404FF6FF7303EA0213194301847047BA
:103C60000A460021018C4FF6FF5319404FF6FF73AF
:103C700003EA02231943018470470A460021018C9C
:103C80004FF2FF7319404FF6FF7303EA0223194303
:103C9000018470470A460021018C4DF6FF731940DC
:103CA0004FF6FF7303EA023319430184704730B5BE
:103CB000002301248C40A3B2048C9C430484048C14
:103CC00002FA01F5ADB22C43048430BD30B50023B7
:103CD00004248C40A3B2048C9C430484048C02FA18
:103CE00001F5ADB22C43048430BD70B5034600200D
:103CF00000241846183001258D40ACB21D8CA54318
:103D00001D8409B1082909D100EB6100056825F07F
:103D1000700505600568154305600EE00D1FC5F3CD
:103D20004E052844056825F4E045056005684FF612
:103D3000FF7606EA02263543056070BD21B1028890
:103D400042F00202028004E002884FF6FD731A403E
:103D50000280704721B1028842F00402028004E030
:103D600002884FF6FB731A400280704721B18288A7
:103D700042F08002828004E082884FF67F731A400E
:103D80008280704702884FF6F7731A4002800288DB
:103D90000A430280704782884FF68F731A408280F0
:103DA00082880A438280704702894FF6F8731A406E
:103DB000028102890A430281704702894FF67F73AC
:103DC0001A40028102890A43028170478184704748
:103DD000818570478186704701877047818770476A
:103DE000A0F84010704702884FF6FF431A40028047
:103DF00002880A43028070470146888E7047014658
:103E0000088F70470146888F70470146B1F840001F
:103E100070470146888C70470146088D70470246FE
:103E20000020138A0B4201D0012000E000207047DF
:103E3000CA430282704730B50246002000230024A6
:103E4000158A05EA0103958905EA010413B10CB14D
:103E5000012000E0002030BDCA430282704700000C
:103E600010B50446FB48844209D101218803FFF7BD
:103E70009BF800214FF48040FFF796F832E0F648B7
:103E8000844209D101214804FFF79BF800214FF437
:103E90000030FFF796F825E0F048844209D101216F
:103EA0008804FFF78EF800214FF48020FFF789F88F
:103EB00018E0EB48844209D10121C804FFF781F8DA
:103EC00000214FF40020FFF77CF80BE0E548844226
:103ED00008D101210805FFF774F800214FF4801084
:103EE000FFF76FF810BD2DE9F04786B005460E4686
:103EF0000024A24600BFA1460027B08900B100BF40
:103F00002F462C8A4CF6FF700440F08804432C8224
:103F1000AC894EF6F3100440B088318908437189AA
:103F200008430443AC81AC8A4FF6FF400440B0899B
:103F30000443AC8201A8FEF7B0FFC648874202D115
:103F4000DDF810A001E0DDF80CA0A88910F4004F06
:103F500008D00AEBCA0000EB0A1031684900B0FB38
:103F6000F1F807E00AEBCA0000EB0A10316889009B
:103F7000B0FBF1F86420B8FBF0F0040120096421E3
:103F800001FB1089A88910F4004F08D0322000EB03
:103F9000C900B0FBF1F000F00700044308E0322054
:103FA00000EB09106421B0FBF1F000F00F000443B6
:103FB0002C8106B0BDE8F0874FF416510160002156
:103FC0008180C18001810C21418100218181704764
:103FD00010B502460020108A4FF2FF0318400B88EC
:103FE0004C8823438C882343CC8823431843108276
:103FF00010BD0021018041808180C180704721B1C6
:10400000828942F40052828104E082894DF6FF7376
:104010001A4082817047F0B503460024002600252F
:104020000020A1F510676A3F00D100BF1846C1F318
:10403000421401F01F06012707FA06F5012C01D1F1
:104040000C3004E0022C01D1103000E014301AB121
:1040500007682F43076002E00768AF430760F0BDC1
:104060001AB1838A0B43838202E0838A8B43838263
:104070007047028A4FF6F0731A400282028A0A439E
:104080000282704782894FF2FF731A4082818289CF
:104090000A438281704721B1828942F00202828103
:1040A00004E082894FF6FD731A4082817047028ACC
:1040B0004FF6DF731A400282028A0A430282704777
:1040C00021B1028A42F48042028204E0028A4BF665
:1040D000FF731A4002827047C1F308028280704762
:1040E00001468888C0F308007047818941F00101CA
:1040F00081817047028BD2B20283028B42EA012295
:1041000002837047028B02F47F420283028B0A43D0
:104110000283704721B1828A42F02002828204E049
:10412000828A4FF6DF731A408282704721B1828AF9
:1041300042F01002828204E0828A4FF6EF731A4046
:104140008282704721B1828A42F00802828204E0B2
:10415000828A4FF6F7731A408282704721B18289B2
:1041600042F40042828103E08289C2F30E0282811E
:10417000704721B1828A42F40062828204E0828A1E
:104180004FF2FF731A4082827047828A4FF6FB73A8
:104190001A408282828A0A438282704721B1828ACF
:1041A00042F00202828204E0828A4FF6FD731A40D6
:1041B0008282704702460020B1F5007F00D100BF27
:1041C00013880B4201D0012000E00020704701F469
:1041D0000072B2F5007F00D100BFCA430280704771
:1041E00070B502460024002300250020A1F51066CA
:1041F0006A3E00D100BFC1F3421501F01F03012642
:1042000006FA03F3012D02D19689334006E0022D10
:1042100002D1168A334001E0968A33400C120126FF
:1042200006FA04F41688344013B10CB1012000E002
:10423000002070BD10B500220023A1F510646A3C77
:1042400000D100BF0A1201249440A3B2DC430480D1
:1042500010BD00000038014000440040004800400C
:10426000004C00400050004030B480EA010202F0EF
:10427000004530F0004221F0004015D0A0B1C0F35D
:10428000C753C2F3C754C2F31601C0F31600E41AB1
:1042900041F4000140F400027D34914201D3641CDA
:1042A00000E04900002C02DA30BC002070474FF4D7
:1042B00000000023914201D3891A034340084FEACA
:1042C0004101F7D151B1914202D14FF0004105E0D7
:1042D00002D24FF0010101E06FF0010103EBC45085
:1042E000284430BC00F0E4B82DE9FE4F81EA030415
:1042F00004F0004421F0004100944FF0000B23F043
:10430000004350EA010402D052EA030404D1002021
:10431000014603B0BDE8F08FC3F30A54C1F30A5558
:104320002C44A4F2F3340194A0FB0254C1F3130112
:1043300041F48011C3F3130343F4801301FB0244DF
:1043400000FB034E840A970A44EA815447EA8357E4
:10435000A4FB076802958D0A05FB07854FEA932C9D
:1043600004FB0C542705029D4FEA065847EA16370E
:10437000B5EB08056EEB070C870E920E47EA811726
:1043800042EA8312A7FB0201B6EB0B0164EB0004C7
:104390002B0D43EA0C335E1844EB1C50DA465146B1
:1043A000E7FB0201C5F313044FEA0B3343EA14534E
:1043B0004FEA0432019C43EA0603A4F10C04029480
:1043C000009CCDE900B400F0B6F8A2E796230022E5
:1043D000114600F076B800F0004230F000400AD0FC
:1043E000C10D01F56071C0F3160042EA0151C20827
:1043F00040071143704700200146704730B500293F
:1044000004DB4FF00044404264EB0101002B04DB6D
:104410004FF00044524264EB03038B4208BF8242D8
:1044200030BD000030B5002904DB4FF000444042AD
:1044300064EB0101002B04DB4FF00044524264EBBB
:104440000303994208BF904230BD000001F00043D1
:1044500030B421F0004150EA010206D00A0DA2F565
:104460006072C1F31301002A02DC30BC00207047E7
:10447000440F44EAC104C100E01830BC00EBC25054
:1044800000F016B830B50B4601460020202201246A
:1044900009E021FA02F59D4205D303FA02F5491B12
:1044A00004FA02F52844151EA2F10102F1DC30BD28
:1044B0000029A8BF7047401C490008BF20F0010038
:1044C000704710B4B0FA80FC00FA0CF050EA010416
:1044D00004BF10BC704749B1CCF1200421FA04F4A8
:1044E00011FA0CF118BF012121430843A3EB0C0181
:1044F000CB1D0106000A002BBEBF002010BC704778
:1045000000EBC35010440029A4BF10BC7047401CEE
:10451000490008BF20F0010010BC704710B5002B07
:1045200008DA401C41F1000192185B411A4301D1A5
:1045300020F0010010BD2DE9F04D92469B4611B1CF
:10454000B1FA81F202E0B0FA80F22032904600F037
:1045500057F804460F4640EA0A0041EA0B01534669
:104560005A46084303D120463946BDE8F08D11462E
:1045700053EA010015D0C8F14002504600F04FF850
:1045800005460E4650465946424600F039F8084363
:1045900001D0012000E00020054346EAE0762C43EC
:1045A00037430A984FEA4453A0EB08004FEAD4245B
:1045B0000A304FF0000244EA47544FEAD72502D5AB
:1045C00000200146D1E7010510196941DDE90845E0
:1045D00000196941BDE8F04DA0E70000064C074D09
:1045E00006E0E06840F0010394E8070098471034C3
:1045F000AC42F6D3FBF7A0FD3C4800085C4800083D
:10460000202A04DB203A00FA02F100207047914092
:10461000C2F1200320FA03F3194390407047202A87
:1046200004DB203A21FA02F00021704721FA02F35C
:10463000D040C2F120029140084319467047000063
:104640000FB4054B10B503A9044A029800F018F8FE
:1046500010BC5DF814FB000039070008640000205E
:1046600002E008C8121F08C1002AFAD1704770473B
:10467000002001E001C1121F002AFBD17047000099
:104680002DE9FF4F8BB09A460F4605460026C9E03C
:10469000252837D100246D1C6649A04601222B78BD
:1046A000203B02FA03F0084202D004436D1CF6E7F7
:1046B00028782E2817D115F8010F44F004042A2871
:1046C0000ED06FF02F022878A0F1300109290AD806
:1046D00008EB880102EB410100EB01086D1CF2E7D9
:1046E00057F8048B6D1C287869283FD006DC002819
:1046F00071D063280CD0642804D137E0732811D01E
:1047000075284ED052460D99904706F1010688E073
:1047100017F8040B8DF8000000208DF80100E94621
:10472000012003E057F8049B4FF0FF3061074FF082
:10473000000401D40AE0641C44450DDA8442FADB2B
:1047400019F804100029F6D106E0641C8442FCDB51
:1047500019F804100029F8D1264404E019F8010BD7
:1047600052460D999047641EF8D25AE001CF4FF09F
:104770000A0B002804DAC0F100004FF02D0102E01E
:10478000210504D52B218DF82410012103E0E10738
:1047900005D02021F7E70DF1200908910CE0002158
:1047A000F9E701CF4FF00A0BF9E75946FFF76AFE28
:1047B00001F1300209F8012D0028F6D1ADEB090016
:1047C00000F1200B600701D44FF00108D84503DD4C
:1047D000A8EB0B0001E029E000208046002406E061
:1047E00009A85246005D0D999047761C641C0898F4
:1047F0008442F5DB04E0302052460D999047761C48
:10480000B8F10001A8F10108F5DC05E019F8010B89
:1048100052460D999047761CBBF10001ABF1010B9C
:10482000F4DC6D1C287800287FF432AF0FB03046DE
:10483000BDE8F08F09280100FBF78EBF5C48000837
:10484000000000206800000060460008C44800081E
:10485000680000204004000070460008D007D00720
:10486000D007D007DC0500000000000000000000B9
:104870000000000000000000000000000000000038
:104880000000000000000000B80B0A00000000005B
:104890000000000000A24A04000000000000000028
:1048A00001020304060708090000000001020304D6
:1048B00001020304060708090204060800000000BC
:0448C00000000000F4
:0400000508000145A9
:00000001FF
